:100000000C94C5090C94F6090C94F6090C94FB1693
:100010000C94F6090C94F6090C94F6090C94F60964
:100020000C94F6090C94F6090C94F6090C94F60954
:100030000C94F6090C94F6090C94F6090C94F60944
:100040000C94F6090C9494340C94F6090C94F6096B
:100050000C94F6090C94F6090C94F6090C94F60924
:100060000C94F6090C94F6090C94F6090C94F60914
:100070000C94F6090C94F6090C94F6090C94F60904
:100080000C94F6090C94F6090C94F6090C94F609F4
:100090000C94F6090C94F6090C94F6090C94F609E4
:1000A0000C94F6090C94F6090C94F6090C94F609D4
:1000B0000C94F6090C94F6090C94F6090C94F609C4
:1000C0000C94F6090C94F6090C94F6090C94F609B4
:1000D0000C94F6090C94F6090C94F6090C94F609A4
:1000E0000C94F609000D320DD30B3C0DDD0BE70B24
:1000F000F10BFB0B2A0D2A0D030C0B0C130C1A0C25
:10010000210C280C0A0D460D3B0C2C0D430C4D0CFC
:10011000550C5F0C670C2C0D710C7B0C850C8D0C39
:10012000970C9E0C120D4E0DB30CBD0CC40C2E0D75
:10013000CD0CD60CE00CE60CF00CF70C0D19F518F4
:10014000F818FB18FE18011904190719661F681F13
:10015000721F6A1F6C1F6E1F661F701FB4282C2A27
:10016000382AA02AAD2AC92ADA2A75427542754270
:10017000A242AA42B84275427542A242AA427B15E7
:1001800068156A156C156E157015721574159B152A
:100190009D159F15A115A315A515A715A915506F98
:1001A00073743A20257000576169743A20257000F5
:1001B0001B5B25753B25756D004661696C65642088
:1001C000746F2073687574646F776E004661696C34
:1001D000656420746F207265626F6F7400465245CB
:1001E000453A20257000465245453A2042756666DC
:1001F000657220257020696E2075736520627920F4
:10020000257520757365727300465245453A204244
:10021000756666657220616C7265616479206672CC
:10022000656520257000465245453A20496E766145
:100230006C69642043535020627566666572207055
:100240006F696E74657220257000417474656D70FD
:100250007420746F2066726565206E756C6C2070FA
:100260006F696E74657200436F72727570742043AB
:10027000535020627566666572004745543A2025E2
:1002800070202570004F7574206F66206275666659
:1002900065727300417474656D707420746F2061B1
:1002A0006C6C6F6361746520746F6F206C61726732
:1002B0006520626C6F636B202575005B253032759D
:1002C0002025705D20533A25752C202575202D3E64
:1002D0002025752C202575202D3E2025752C20737A
:1002E0006F636B3A2025700A00417474656D7074F9
:1002F00020746F20637265617465205854454120F5
:10030000656E6372797074656420636F6E6E656389
:1003100074696F6E2C20627574204353502077618E
:100320007320636F6D70696C656420776974686FA2
:100330007574205854454120737570706F72740045
:10034000417474656D707420746F2063726561749C
:100350006520484D41432061757468656E7469631A
:100360006174656420636F6E6E656374696F6E2C73
:1003700020627574204353502077617320636F6D42
:1003800070696C656420776974686F757420484D76
:10039000414320737570706F727400417474656DA1
:1003A000707420746F2063726561746520524450CC
:1003B00020636F6E6E656374696F6E2C2062757456
:1003C000204353502077617320636F6D70696C65B3
:1003D0006420776974686F75742052445020737577
:1003E00070706F7274004661696C656420746F2070
:1003F0006C6F636B20636F6E6E2061727261790047
:10040000436F6E6E20616C726561647920636C6FFE
:10041000736564004E554C4C20506F696E74657264
:1004200020676976656E20746F206373705F636CFC
:100430006F7365004E6F206D6F7265206672656523
:1004400020636F6E6E656374696F6E7300466169D9
:100450006C656420746F206C6F636B20636F6E6ECD
:10046000206172726179004E6F206D6F7265206D30
:10047000656D6F727920666F7220636F6E6E207388
:10048000656D6170686F7265004661696C656420B6
:10049000746F2063726561746520636F6E6E65634F
:1004A00074696F6E206C6F636B004E6F206D6F729E
:1004B00065206D656D6F727920666F722073706F45
:1004C00072742073656D6170686F72650052582098
:1004D00071756575652025702066756C6C2077696F
:1004E0007468202575206974656D73000000000034
:1004F00003836BF2F7703BE1F4F350131F979AC735
:100500001C14F135E8E7A126EB64CAD4CF58D98A88
:10051000CCDBB2783828E26B3BAB8999D0CF434D26
:10052000D34C28BF27BF78AC243C135E6FC75E1046
:100530006C4435E298B765F19B340E037050C4D714
:1005400073D3AF258720FF3684A394C4A09F879AD6
:10055000A31CEC6857EFBC7B546CD789BF081D5DAA
:10056000BC8B76AF487826BC4BFB4D4EDE8EBD2053
:10057000DD0DD6D229FE86C12A7DED33C11927E7CC
:10058000C29A4C1536691C0635EA77F411D664AA6E
:1005900012550F58E6A65F4BE52534B90E41FE6DA6
:1005A0000DC2959FF931C58CFAB2AE7EB149E330E8
:1005B000B2CA88C24639D8D145BAB323AEDE79F77C
:1005C000AD5D120559AE42165A2D29E47E113ABA94
:1005D0007D9251488961015B8AE26AA96186A07DAA
:1005E0006205CB8F96F69B9C9575F06EBC1D7B418A
:1005F000BF9E10B34B6D40A048EE2B52A38AE186FC
:10060000A0098A7454FADA675779B1957345A2CB79
:1006100070C6C9398435992A87B6F2D86CD2380C9D
:100620006F5153FE9BA203ED9821681FD3DA255129
:10063000D0594EA324AA1EB027297542CC4DBF968F
:10064000CFCED4643B3D847738BEEF851C82FCDB83
:100650001F019729EBF2C73AE871ACC80315661C75
:1006600000960DEEF4655DFDF7E6360F6293C66108
:100670006110AD9395E3FD80966096727D045CA653
:100680007E8737548A74674789F70CB5ADCB1FEB6B
:10069000AE4874195ABB240A59384FF8B25C852CFD
:1006A000B1DFEEDE452CBECD46AFD53F0D5498717F
:1006B0000ED7F383FA24A390F9A7C86212C302B637
:1006C00011406944E5B33957E63052A5C20C41FBED
:1006D000C18F2A09357C7A1A36FF11E8DD9BDB3C95
:1006E000DE18B0CE2AEBE0DD29688B2F783BF6824E
:1006F0007BB89D708F4BCD638CC8A69167AC6C4561
:10070000642F07B790DC57A4935F3C56B7632F085C
:10071000B4E044FA401314E943907F1BA8F4B5CF2A
:10072000AB77DE3D5F848E2E5C07E5DC17FCA8927C
:10073000147FC360E08C9373E30FF881086B32552C
:100740000BE859A7FF1B09B4FC986246D8A471189E
:10075000DB271AEA2FD44AF92C57210BC733EBDFDA
:10076000C4B0802D3043D03E33C0BBCCA6B54BA225
:10077000A536205051C5704352461BB1B922D165F0
:10078000BAA1BA974E52EA844DD1817669ED92288A
:100790006A6EF9DA9E9DA9C99D1EC23B767A08EF62
:1007A00075F9631D810A330E828958FCC97215B22E
:1007B000CAF17E403E022E533D8145A1D6E58F759C
:1007C000D566E4872195B4942216DF66062ACC38D4
:1007D00005A9A7CAF15AF7D9F2D99C2B19BD56FF22
:1007E0001A3E3D0DEECD6D1EED4E06ECC4268DC3BA
:1007F000C7A5E6313356B62230D5DDD0DBB11704BC
:10080000D8327CF62CC12CE52F4247170B7E544979
:1008100008FD3FBBFC0E6FA8FF8D045A14E9CE8E75
:10082000176AA57CE399F56FE01A9E9DABE1D3D3DF
:10083000A862B8215C91E8325F1283C0B476491493
:10084000B7F522E6430672F54085190764B90A59DF
:10085000673A61AB93C931B8904A5A4A7B2E909E51
:1008600078ADFB6C8C5EAB7F8FDDC08D1AA830E35A
:10087000192B5B11EDD80B02EE5B60F0053FAA244B
:1008800006BCC1D6F24F91C5F1CCFA37D5F0E96973
:10089000D673829B2280D2882103B97ACA6773AE4D
:1008A000C9E4185C3D17484F3E9423BD756F6EF345
:1008B00076EC0501821F5512819C3EE06AF8F43403
:1008C000697B9FC69D88CFD59E0BA427BA37B77981
:1008D000B9B4DC8B4D478C984EC4E76AA5A02DBEF9
:1008E000A623464C52D0165F51537DAD4572726FB0
:1008F000722052657365740A004353502052455369
:100900004554202573000D0A00252E31662563000D
:10091000252D357320202074783A202530356C75CC
:100920002072783A202530356C75207478653A202D
:100930002530356C75207278653A202530356C7518
:100940000D0A202020202020202064726F703A2081
:100950002530356C7520617574686572723A202592
:1009600030356C75206672616D653A202530356CC6
:10097000750D0A20202020202020207478623A2043
:10098000256C752028257329207278623A20256C01
:100990007520282573290D0A0D0A00496E76616CB1
:1009A00069642063616C6C20746F206373705F7383
:1009B000656E6400417474656D707420746F20738B
:1009C000656E64205854454120656E637279707479
:1009D0006564207061636B65742C206275742043BC
:1009E00053502077617320636F6D70696C6564206C
:1009F000776974686F757420585445412073757019
:100A0000706F72742E2044697363617264696E67DB
:100A1000207061636B657400435243333220617010
:100A200070656E64206661696C6564210041747450
:100A3000656D707420746F2073656E6420706163DF
:100A40006B6574207769746820484D41432C20629F
:100A50007574204353502077617320636F6D706904
:100A60006C656420776974686F757420484D4143E4
:100A700020737570706F72742E2044697363617295
:100A800064696E67207061636B6574004F55543AFA
:100A900020532025752C20442025752C20447020BF
:100AA00025752C2053702025752C2050722025751B
:100AB0002C20466C203078253032582C20537A2058
:100AC0002575205649413A202573004E6F20726FDC
:100AD00075746520746F20686F73743A2025233015
:100AE0003878006373705F73656E645F6469726504
:100AF00063742063616C6C65642077697468204E50
:100B0000554C4C207061636B657400496E76616C66
:100B1000696420736F636B6574206F7074696F6EA6
:100B200000417474656D707420746F206372656128
:100B3000746520736F636B657420746861742072D0
:100B40006571756972657320484D41432C2062754B
:100B500074204353502077617320636F6D70696C0C
:100B6000656420776974686F757420484D4143202F
:100B7000737570706F727400417474656D70742059
:100B8000746F2063726561746520736F636B657445
:100B9000207468617420726571756972657320587C
:100BA0005445412C20627574204353502077617363
:100BB00020636F6D70696C656420776974686F7508
:100BC00074205854454120737570706F72740041E1
:100BD0007474656D707420746F20637265617465E0
:100BE00020736F636B657420746861742072657123
:100BF0007569726573205244502C206275742043CD
:100C000053502077617320636F6D70696C65642049
:100C1000776974686F7574205244502073757070D2
:100C20006F72740042696E64696E6720736F636BE4
:100C3000657420257020746F20706F727420257584
:100C400000506F727420256420697320616C726596
:100C500061647920696E20757365004F6E6C792030
:100C6000706F7274732066726F6D20302D25752041
:100C700028616E64204353505F414E5920666F7265
:100C80002064656661756C742920617265206176E7
:100C900061696C61626C6520666F7220696E636F5A
:100CA0006D696E6720706F727473004552524F52B7
:100CB0003A20526F7574696E6720696E7075742082
:100CC0004649464F2069732046554C4C2E204472AD
:100CD0006F7070696E67207061636B65742E00635E
:100CE00073705F6E6577207061636B6574206361FC
:100CF0006C6C65642077697468204E554C4C206993
:100D00006E74657266616365006373705F6E6577AC
:100D1000207061636B65742063616C6C656420771F
:100D2000697468204E554C4C207061636B6574008B
:100D300025732025640A004661696C656420746F20
:100D400020737461727420726F757465722074619F
:100D5000736B005265636569766564207061636BCF
:100D6000657420776974686F757420435243333219
:100D70002E20416363657074696E67207061636BD8
:100D80006574004352433332207665726966696345
:100D90006174696F6E206572726F7221204469738D
:100DA00063617264696E67207061636B657400547F
:100DB0006F6F2073686F7274207061636B6574204D
:100DC000666F722043524333322C202575005265E2
:100DD00063656976656420524450207061636B6579
:100DE000742C206275742043535020776173206304
:100DF0006F6D70696C656420776974686F757420B5
:100E000052445020737570706F72742E2044697351
:100E100063617264696E67207061636B6574005210
:100E200065636569766564207061636B65742077BE
:100E300069746820484D41432C20627574204353E7
:100E4000502077617320636F6D70696C65642077E3
:100E50006974686F757420484D41432073757070D4
:100E60006F72742E2044697363617264696E6720C7
:100E70007061636B657400526563656976656420B3
:100E80005854454120656E637279707465642070B2
:100E900061636B65742C2062757420435350207716
:100EA000617320636F6D70696C6564207769746825
:100EB0006F7574205854454120737570706F72744B
:100EC0002E2044697363617264696E672070616388
:100ED0006B6574004E6F206D6F726520636F6E6E70
:100EE000656374696F6E7320617661696C61626CB1
:100EF0006500436F6E6E2D6C65737320736F636B4B
:100F000065742071756575652066756C6C00526F2F
:100F100075746572206661696C656420746F2073F6
:100F2000656E6400494E503A20532025752C2044AC
:100F30002025752C2044702025752C2053702025E9
:100F4000752C2050722025752C20466C2030782579
:100F50003032582C20537A202575205649413A20AA
:100F6000257300534552564943453A2050696E67F0
:100F700020726563656976656400717565756520C5
:100F80006661696C007175657565206661696C00E4
:100F900044617461202564203D20257800444C4341
:100FA000203D202575780D0A004964203D202575D7
:100FB000780D0A00696D706F737369626C652070DB
:100FC0006F7320256409636F756E74203D2025645E
:100FD0000D0A0043414E20526563203D20256400E8
:100FE000546F6F204D616E79204672616D6573207C
:100FF0006F722077726F6E67206F72646572002562
:10100000732025640A0063616E2074782065727213
:101010006F72004661696C656420746F2073656E41
:10102000642043414E206672616D6520696E2054D4
:10103000782063616C6C6261636B004661696C650A
:101040006420746F2073656E642043414E20667285
:10105000616D6520696E206373705F74785F636192
:101060006E004661696C656420746F20676574204A
:10107000434650206964656E74696669636174698A
:101080006F6E206E756D62657200436F756C6420C3
:101090006E6F7420696E697469616C697A6520434A
:1010A00046502069642073656D6170686F726500D9
:1010B000526563656976656420756E6B6E6F776ED9
:1010C00020434650206D65737361676520747970A5
:1010D0006500525820627566666572206F7665728B
:1010E000666C6F770043414E206672616D65206CBF
:1010F0006F737420696E20435350207061636B6579
:1011000074004661696C656420746F2067657420A3
:1011100062756666657220666F72204353505F4247
:101120004547494E207061636B657400496E636F7B
:101130006D706C657465206672616D650053686FD3
:10114000727420424547494E206672616D65207277
:1011500065636569766564004F7574206F66206FFE
:1011600072646572204D4F5245206672616D652034
:101170007265636569766564004E6F2061766169AA
:101180006C61626C65207061636B6574206275666A
:1011900066657220666F722043414E0043414E20C7
:1011A00042756666657220656C656D656E74207447
:1011B000696D6564206F7574004661696C656420B3
:1011C000746F20696E697469616C697A6520434146
:1011D0004E20647269766572004661696C656420B0
:1011E000746F20696E69742043414E2052582074F8
:1011F00061736B004661696C656420746F20637273
:10120000656174652043414E2052582071756575A3
:101210006500556E6B6E6F776E2043414E206D6F8B
:101220006465004661696C656420746F20696E694D
:101230007469616C697A652043414E206964656E0A
:1012400074696669636174696F6E206E756D62653D
:1012500072002020202A2020252D3973202025757A
:101260000D0A002534752020252D39732020257581
:101270000D0A004E6F64652020496E7465726661C8
:1012800063652020416464726573730D0A004661D2
:10129000696C656420746F2073657420726F757457
:1012A000653A20696E76616C6964206E6F646520B2
:1012B0006964202575005761726E696E6720736FCF
:1012C000636B657420636F6E6E656374696F6E2007
:1012D00071756575652066756C6C00436F6E6E6523
:1012E0006374696F6E2062756666657220717565DC
:1012F00075652066756C6C210025732025640A00D5
:101300004572726F722052657365740A00556E657E
:101310007820566563746F720050696E672072653D
:1013200073756C74202564205B6D735D0D0A00502D
:10133000696E67204661696C65640A005350203D00
:10134000203078253034780A0025732025640A007F
:10135000496E74657266616365730D0A00526F753C
:101360007465207461626C650D0A00436F6E6E20B7
:101370007461626C650D0A00536574757020457266
:10138000726F720025640000EE1211241FBECFEFB1
:10139000D1E2DEBFCDBF00E00CBF13E0A0E0B2E0C1
:1013A000EAE1F4E900E00BBF02C007900D92AE3114
:1013B000B107D9F720E2AEE1B3E001C01D92A43736
:1013C000B207E1F719E0C5ECD9E000E006C02197CB
:1013D0000109802FFE010E941E44C43CD10780E019
:1013E0000807A9F70E9439160C940B4A0C9436177B
:1013F00081E080931E0380916620882399F08FB747
:10140000F89490916620913059F49DB390936420A4
:101410002DB390916520909592239DBB8FBF02C004
:101420008093642080E58CBD81E08DBD2C9808956B
:101430002C9A80916620882371F09FB7F894809150
:101440006620813029F4809164208DBB9FBF089570
:10145000809164208FBF0895CF93DF93EC010E94A9
:101460002D15249ACE01E4DFDF91CF9108951F93CB
:10147000CF93DF93EC01162FBBDF83E08EBD00001E
:101480000DB407FEFDCF8EB51EBD00000DB407FEE6
:10149000FDCF8EB51EBC00000DB407FEFDCF1EB5FE
:1014A000CE01C6DF812FDF91CF911F910895EF927A
:1014B000FF920F931F93CF93DF93EC01062F7A01D6
:1014C000122F96DF83E08EBD00000DB407FEFDCF26
:1014D0008EB50EBD00000DB407FEFDCF8EB51123F5
:1014E00091F0F7011150412F50E04F5F5F4F4E0DCB
:1014F0005F1D1EBC00000DB407FEFDCF8EB58193AD
:10150000E417F507B1F7CE0193DFDF91CF911F917B
:101510000F91FF90EF9008950F931F93CF93DF9358
:10152000EC01062F142F64DF82E08EBD00000DB4A5
:1015300007FEFDCF8EB50EBD00000DB407FEFDCF3A
:101540008EB51EBD00000DB407FEFDCF8EB5CE01D9
:101550006FDFDF91CF911F910F910895EF92FF926E
:101560000F931F93CF93DF93EC01062F7A01122F75
:101570003FDF82E08EBD00000DB407FEFDCF8EB5CB
:101580000EBD00000DB407FEFDCF8EB5112391F006
:10159000F7011150412F50E04F5F5F4F4E0D5F1D1F
:1015A00081918EBD00000DB407FEFDCF8EB5E4170E
:1015B000F507B1F7CE013CDFDF91CF911F910F917D
:1015C000FF90EF900895FF920F931F93CF93DF93B7
:1015D000EC01F62E042F122F0BDF85E08EBD0000EC
:1015E0000DB407FEFDCF8EB5FEBC00000DB407FEA6
:1015F000FDCF8EB50EBD00000DB407FEFDCF8EB53C
:101600001EBD00000DB407FEFDCF8EB5CE0110DF6C
:10161000DF91CF911F910F91FF900895EF92FF926C
:101620000F931F93CF93DF93CDB7DEB72E970FB6EF
:10163000F894DEBF0FBECDBF8C01DADE80EC8EBD2C
:1016400000000DB407FEFDCF8EB5C801F1DE8FE3BB
:101650009CE90197F1F700C00000FE0131967F017F
:101660008EE011928A95E9F72EE0A70160E3C801A8
:1016700075DF2EE0A70160E4C80170DF2EE0A7014E
:1016800060E5C8016BDF40E060E6C80145DF40E08F
:1016900060E7C80141DF43E06BE2C8013DDF24E0C1
:1016A00044E660E6C8018FDF20E040E660E7C8015D
:1016B0008ADF80E02E960FB6F894DEBF0FBECDBF56
:1016C000DF91CF911F910F91FF90EF9008951F939D
:1016D000CF93DF93EC018CDE80EA8EBD00000DB469
:1016E00007FEFDCF8EB51EBC00000DB407FEFDCF7A
:1016F0001EB5CE019DDE812FDF91CF911F91089500
:101700000F931F93CF93DF93EC01162F0FB7262F64
:1017100040EE6FE058DF789480E792E0B8D7D9D7F1
:10172000019641F06EE0CE01A2DE807E1813F7CF65
:1017300091E001C090E00FBF81E08927DF91CF9158
:101740001F910F91089560E8DBCF089560E6D8CF30
:10175000089560E2D5CF089560E4D2CF089560E0A7
:10176000CFCF0895EF92FF920F931F93CF93DF9304
:10177000EC01162F042FE7DF811198C1013009F425
:101780006DC008F4E2C0023009F038C1812F90E04A
:101790008031910508F05EC1FC018827EE58FF4FAB
:1017A0008F4F0C941E4417E80F2EFFEBEF2EF02DF9
:1017B0000F2EF7E0FF2EF02D3FC115E80F2EF2EEB1
:1017C000EF2EF02D0F2EF7E4FF2EF02D35C117E888
:1017D0000F2EFFEBEF2EF02D0F2EF3E0FF2EF02D4E
:1017E0002BC116E80F2EF4EBEF2EF02D0F2EF3E0A9
:1017F000FF2EF02D21C117E80F2EFFEBEF2EF02D5D
:10180000FF24F39419C116E80F2EF4EBEF2EF02D00
:10181000FF24F39411C115E80F2EF1EBEF2EF02DFC
:10182000FF24F39409C116E80F2EF4EBEF2EF02DF0
:10183000F12C02C115E80F2EF1EBEF2EF02DF12C5B
:10184000FBC012E80F2EF0E9EF2EF02DF12CF4C0C2
:1018500010E86894EE24E7F8F12CEEC0812F90E0B8
:101860008031910508F0F8C0FC018827EE57FF4F42
:101870008F4F0C941E4417E8EE24EA940F2EFFE0DD
:10188000FF2EF02DD9C015E80F2EF1EFEF2EF02D21
:101890000F2EFEE4FF2EF02DCFC017E8EE24EA94C1
:1018A0000F2EF7E0FF2EF02DC7C017E80F2EFAEF2E
:1018B000EF2EF02D0F2EF7E0FF2EF02DBDC017E814
:1018C000EE24EA940F2EF3E0FF2EF02DB5C017E0C2
:1018D0000F2EFEEBEF2EF02D0F2EF3E0FF2EF02D4E
:1018E000ABC017E80F2EFAEFEF2EF02D0F2EF3E01E
:1018F000FF2EF02DA1C016E80F2EF0EFEF2EF02DE9
:101900000F2EF3E0FF2EF02D97C017E80F2EFAEF01
:10191000EF2EF02DFF24F3948FC015E80F2EF1EF7A
:10192000EF2EF02D0F2EF1E4FF2EF02D85C016E8DE
:101930000F2EF0EFEF2EF02DF12C7EC012E80F2EBF
:10194000F0EDEF2EF02DF12C77C0812F90E0FC010F
:101950003497EC30F10508F081C08827EE56FF4F30
:101960008F4F0C941E4417E80F2EFAEFEF2EF02D38
:101970000F2EF9E0FF2EF02D5FC017E8EE24EA9459
:101980006894FF24F2F858C017E80F2EFEEFEF2EF0
:10199000F02D6894FF24F2F84FC017E80F2EFAEFED
:1019A000EF2EF02D6894FF24F2F846C017E80F2EB2
:1019B000FAEFEF2EF02D0F2EF3E0FF2EF02D3CC0AE
:1019C00017E8EE24EA94FF24F39436C016E80F2EAD
:1019D000FBEFEF2EF02D0F2EF1E4FF2EF02D2CC09B
:1019E00017E80F2EFAEFEF2EF02DF12C25C012E89C
:1019F0000F2EF9EDEF2EF02DF12C1EC080E019C056
:101A00000F2EFFEBEF2EF02D0F2EFFE1FF2EF02D0E
:101A100081E00FC0EE24EA940F2EFFE3FF2EF02D9D
:101A200081E007C0EE24EA940F2EFBE0FF2EF02D9C
:101A300081E08823A9F017E84F2D6AE2CE016CDD22
:101A40004E2D69E2CE0168DD412F68E2CE0164DDF2
:101A500080E02CC081E02AC081E028C081E026C05F
:101A600081E024C017E80F2EFFEBEF2EF02D0F2E94
:101A7000FFE0FF2EF02DE0CF14E80F2EF4EAEF2E5A
:101A8000F02D0F2EF7E0FF2EF02DD6CF17E8EE2425
:101A9000EA940F2EFFE1FF2EF02DCECF17E8EE24B3
:101AA000EA940F2EF9E0FF2EF02DC6CFDF91CF91F3
:101AB0001F910F91FF90EF90089541E053CE08954C
:101AC000CF93DF93EC016F3F51F420E044E06FE0EF
:101AD0007ADD20E840E868E2CE0175DD0EC0262FF1
:101AE00043E06FE070DD24E044E06FE0CE016BDDA9
:101AF00020E040E868E2CE0166DD80E0DF91CF9132
:101B000008950F931F93FB014423C9F003831283AD
:101B1000890122273327802F8C71880F880F880F27
:101B2000902F9370890F8860818316950795129581
:101B300002950F7001271F70012700830EC0C80196
:101B40009695879596958795969587958083029526
:101B5000000F007E0183138212821F910F9108955E
:101B60008F929F92AF92BF92CF92DF92EF92FF92AD
:101B70000F931F93CF93DF9300D01F92CDB7DEB7A3
:101B80007C01D62EC42E48015901DDDD811119C01A
:101B9000950184014C2DBE016F5F7F4FC701B1DFFE
:101BA000DD2029F081E0D8120BC064E201C060E2C0
:101BB00024E0AE014F5F5F4FC701D0DC80E001C081
:101BC00081E00F900F900F900F90DF91CF911F91B8
:101BD0000F91FF90EF90DF90CF90BF90AF909F90CC
:101BE0008F9008958F929F92AF92BF92CF92DF9283
:101BF000EF92FF920F931F93CF93DF9300D01F922A
:101C0000CDB7DEB76C01F62EE42E480159019BDDFD
:101C100081113DC082E0F816A9F08F1530F0FF2049
:101C200019F181E0F81651F031C084E0F81691F016
:101C3000F81660F085E0F81691F028C06894FF244B
:101C4000F2F813C06894FF24F3F80FC06894FF24DF
:101C5000F4F80BC00F2EF4E1FF2EF02D06C00F2E6E
:101C6000F8E1FF2EF02D01C0F12C950184014E2DDD
:101C7000BE016F5F7F4FC60144DF24E0AE014F5FBE
:101C80005F4F6F2DC6016ADC80E001C081E00F90DC
:101C90000F900F900F90DF91CF911F910F91FF90B8
:101CA000EF90DF90CF90BF90AF909F908F9008956E
:101CB0004F925F926F927F92AF92BF92CF92DF92DC
:101CC000EF92FF920F931F93CF93DF93CDB7DEB7C1
:101CD0002D970FB6F894DEBF0FBECDBF5C016A0131
:101CE000E62EF12CFA010081118122813381B901A4
:101CF000A801442777FD43955527662777272801B4
:101D00003901442455246624F0E47F2233232CF047
:101D10008FEF97E0A0E0B0E004C08FEF9FEFAFEF50
:101D2000BFE1082319232A233B23BE016F5F7F4FA6
:101D3000C501E7DE45284628472821F0F6018481C1
:101D4000806402C0F60184818D83F6011481412FE5
:101D500050E0B601685F7F4FCE0106960E94A14415
:101D600025E0210F8701000F111F0E0D1F1D0257C7
:101D70001D4FAE014F5F5F4FF8016181C501EEDB82
:101D800028E048E0F8016081C5011DDC80E02D9667
:101D90000FB6F894DEBF0FBECDBFDF91CF911F917C
:101DA0000F91FF90EF90DF90CF90BF90AF907F901A
:101DB0006F905F904F9008959F92AF92BF92CF9295
:101DC000DF92EF92FF920F931F93CF93DF9300D098
:101DD000CDB7DEB76C01FB019481993048F57B01EA
:101DE000198281E08A8382E08B838E010F5F1F4F0F
:101DF0005E01F4E0AF0EB11CF80191908F01292D26
:101E000030E0F901EE0FFF1F2E0F3F1FF901E257DF
:101E1000FD4F6081C6012BDB83FD05C0A701692D45
:101E2000C60146DF06C00A151B0531F784E001C074
:101E300084E00F900F900F90DF91CF911F910F9141
:101E4000FF90EF90DF90CF90BF90AF909F9008955C
:101E50007F928F929F92AF92BF92CF92DF92EF923A
:101E6000FF920F931F93CF93DF9300D01F921F9287
:101E7000CDB7DEB75C014A01062F10E0F801EE0F86
:101E8000FF1FEE0FFF1FEA57FD4F25E0AE014F5F2A
:101E90005F4F61810CDB8A819981C82ED12CD5944A
:101EA000C794D594C794D594C794D594C794D59422
:101EB000C79428E0929FC00CD11C11240D2C000C5B
:101EC000EE08FF0883FF21C0CC0CDD1CEE1CFF1CBC
:101ED000CC0CDD1CEE1CFF1C8370C80ED11CE11C59
:101EE000F11CFE2CED2CDC2CCC248B81C80ED11CDB
:101EF000E11CF11CFE2CED2CDC2CCC248C81C80EBA
:101F0000D11CE11CF11C6894F7F88D818F70782E3C
:101F100088E0871550F1F801EE0FFF1FEE0FFF1F4D
:101F2000EA57FD4F6081C501A2DA83FF02C06894C1
:101F3000F6F8F401C082D182E282F3827482A401B5
:101F4000485F5F4F000F111F000F111F0A571D4FF1
:101F5000272DF8016281C501AADA20E0F80143814A
:101F60006CE2C50130DB80E001C081E00F900F9092
:101F70000F900F900F90DF91CF911F910F91FF90D5
:101F8000EF90DF90CF90BF90AF909F908F907F9019
:101F900008950F931F93CF93DF93EC018B0197DB91
:101FA00080FF05C0A80160E0CE0152DF08C081FFBC
:101FB00005C0A80161E0CE014BDF01C085E0DF91E3
:101FC000CF911F910F91089582DB982F937081E03C
:101FD00009F480E008956DE24ACA0895FCDF982F65
:101FE000987F81E009F480E0089520E040EC6DE204
:101FF000EACA08956CE23BCA089540E06CE28CCADC
:1020000008956BE234CA089520E04CE16CE2DBCA2B
:102010000895CF93DF93EC01DEDF882321F0CE011A
:10202000E4DFCE01EADFDF91CF91089520E040E8C0
:102030006CE2C9CA089520E040E26CE2C4CA089587
:1020400060E315DA80E008958F929F92AF92BF927D
:10205000CF92DF92EF92FF920F931F93CF93DF9374
:102060006B017C0149015A010FB6F8940F92F5D427
:1020700088E595E0D3DAD82F6FE088E595E01DDD9F
:1020800081110BC081E090E0D11102C080E090E0AE
:10209000CC27DD27C81BD90B02C0CFEFDFEF95019E
:1020A000840141E060E088E595E05ADD882311F085
:1020B000CFEFDFEF9501840141E061E088E595E035
:1020C0004FDD882311F0CFEFDFEF9701860141E06C
:1020D00060E088E595E086DD882311F0CFEFDFEF43
:1020E0009701860141E062E088E595E07BDD882389
:1020F00011F0CFEFDFEF88E595E031DB882311F0B9
:10210000CFEFDFEF0F900FBECE01DF91CF911F9188
:102110000F91FF90EF90DF90CF90BF90AF909F9086
:102120008F900895CF92DF92EF92FF920F931F93BB
:10213000CF93DF93CDB7DEB7CDB6DEB6EDB7FEB742
:1021400077970FB6F894FEBF0FBEEDBFEDB6FEB6A3
:10215000F8E0EF0EF11C38EFE3220FB6F8940F927F
:10216000DC01CB01B068F70180839183A283B38344
:102170002483222309F43DC0A42FB52F389630E0E4
:10218000285F3F4F2E0D3F1D8D918193E217F3077E
:10219000D9F72FC088E595E053DF811115C08FE88E
:1021A00091E00197F1F700C00000A70160E088E529
:1021B00095E07EDD01E010E0811102C000E010E05A
:1021C00011950195110905C00150110919F700E099
:1021D00010E00F900FBE0115110571F086E090E13F
:1021E0009F938F931F920E94461F0F900F900F9006
:1021F00003C008E010E0CECFC8010FB6F894DEBEF1
:102200000FBECDBEDF91CF911F910F91FF90EF9048
:10221000DF90CF900895CF93DF9300D01F921F924D
:10222000CDB7DEB75298E9E6F0E080818062808326
:10223000EA9A88E595E0E1DE21E029831A820F2EF3
:10224000F0E92F2EFFE03F2EF02D88E595E0D5DE5A
:1022500080E090E00E94C63D8B839D8380E090E00B
:102260000E94AD3A3D813F934B814F939F938F9353
:102270008FEF9FE09F938F9382E08F930E94461F82
:1022800080E090E00E9469400FB6F8940F9286E0DB
:1022900091E0FDD10FB6F894DEBF0FBECDBF00E0D8
:1022A00010E00F2EF6E0FF2EF02D512C12D2892BCC
:1022B000A9F5452D50E05C834B83BA016295729578
:1022C000707F7627607F762768517B4F88E595E0A1
:1022D00060DE81111EC00115110509F462C119C02B
:1022E000511015C0072E7AE0B695A795979587955A
:1022F0007A95D1F7702DF82E56E0581720F007C0C8
:10230000511005C00EC009811A815524539453946D
:10231000DBD1F51458F680E090E005C080E090E055
:1023200002C081E090E00F900FBE012B11F4892BC9
:1023300059F080EE9FE09F938F931F920E94461F5B
:102340000F900F900F9081CFC52CD12C1F925F92D0
:1023500083ED9FE09F938F9382E08F930E94461FAF
:102360000F900F900F900F900F901C141D040CF005
:10237000A5C088EE94E00F2EF0EF8F2EF4E09F2E94
:10238000F02DA12CB12C9C838B830B811C81F80137
:1023900080819181A281B381072E7AE0B695A795BD
:1023A000979587957A95D1F7702DE82FE0954E2E69
:1023B000450C451408F44FC0DF92CF921F924F9204
:1023C00024EB3FE03F932F931F920E94461FEB8127
:1023D000FC8183818F9382818F9381818F93808110
:1023E0008F9329EA3FE03F932F931F920E94461F4D
:1023F000EB81FC8184811F928F932DE93FE03F9315
:102400002F931F920E94461FEB81FC8184810FB69F
:10241000F894DEBF0FBECDBF8823E9F07401612CB4
:10242000712CF70181917F011F928F937F926F92A0
:102430003F922F921F920E94461FFFEF6F1A7F0A52
:10244000F801848190E00FB6F894DEBF0FBECDBFD7
:102450006816790634F35DE0549DF0011124AF0154
:1024600043575B4FF80180819181A281B381FA01CA
:1024700080839183A283B383F8012481FA012483AA
:10248000222369F03DE0349DF0011124EE56FB4F0C
:10249000D40180E09D9191938F5F2813FBCF9FEF34
:1024A000A91AB90AEB81FC817096FC83EB83F0E1F9
:1024B0008F0E911CCA14DB0409F067CF0FB6F89495
:1024C0000F921C141D04F4F50DE814E01C821B820D
:1024D000760121E0E21AF1080F2EF6E0BF2EF02D72
:1024E0008B819C81E816F90691F462EC72E0C801D8
:1024F0000E941D2F892BE1F0E5E8FFE0FF93EF93A9
:10250000BF920E94461F0F900F900F9011C060E085
:1025100070E0C8010E941D2F892B51F04AE75FE04F
:102520005F934F93BF920E94461F0F900F900F90A2
:10253000EB81FC813196FC83EB83035F1F4FCE164A
:10254000DF0671F60F900FBE8DE894E028EE34E0C0
:102550003C832B8328EE34E0FC011082118212822E
:102560001382EB81FC811082118212821382FC01A2
:102570001482EB81FC811482DC01159638964B8124
:102580005C81405F5F4F5C834B831D9211924B8156
:102590005C81E417F507C9F70D9682179307E1F6FA
:1025A00054CE8B819C8182959295907F9827807FD5
:1025B000982788519B4FFC0180819181A281B38132
:1025C000AC01BD01032E32E176956795579547958D
:1025D0003A95D1F7302D40FF83CE92CE88E595E035
:1025E0000C942C0A08958AB1806E8AB981E090E03B
:1025F00090936F0680936E06089520916E06309139
:102600006F06232BC1F16130710539F0623071051D
:1026100031F0672B31F425E005C026E003C027E048
:1026200001C020E08130910581F082309105C1F038
:10263000892B09F53BB181E090E002C0880F991F1A
:102640002A95E2F783278BB908953BB181E090E0AA
:1026500002C0880F991F2A95E2F7832B8BB9089542
:102660003BB181E090E002C0880F991F2A95E2F704
:10267000809583238BB90895E4E6F0E0808180663D
:102680008083E5E6F0E080818F63808308959C017C
:10269000F894E5E6F0E09081977F908310929000A7
:1026A000E1E9F0E0108210929500109294003093CE
:1026B0009900209398008081886080838081846065
:1026C0008083C19A78940895109295001092940096
:1026D000089528B321FB882780F990E021FF11C0DD
:1026E000F894109290001092910010929500109220
:1026F0009400C198E5E6F0E080818860808378945A
:1027000081E00895CF93DF93CDB7DEB7A8970FB6DA
:10271000F894DEBF0FBECDBF60E070E0CB010E9439
:10272000A8215C0160E20E9403246AE070E0C50118
:102730000E94E6230F2EF9EFCF2EF2E1DF2EF02DCF
:102740006894552451F8CE0101969CA38BA33E01B9
:1027500099E0690E711C0F2EFEEF2F2EF02DEBA1CC
:10276000EDA3FCA1FEA333243394412C83E28FA379
:1027700018A680E090E00E94C63D182F092F80E047
:1027800090E00E94AD3A0F931F939F938F93DF9237
:10279000CF925F920E94461F40E157E260E070E0F6
:1027A000C5010E9415228C010FB6F894DEBF0FBE42
:1027B000CDBF892BF1F240E050E0BA01C8010E9480
:1027C0003B227C01892B09F461C0C8010E94E91DEC
:1027D0004F9709F056C0F70186858130B9F028F08F
:1027E000823089F18330A1F138C080E0F70186871B
:1027F000811109C082E2EDA1FEA1D7011F960190CF
:102800000D928A95E1F79FA188A52BC088E0F7017A
:102810003F96ADA1BEA101900D928A95E1F7CE0140
:1028200001964C01F401808191810E94BF1FF40147
:10283000819391934F01E615F705A1F7F7011686ED
:10284000932D842D0EC0F7011686932D842D09C07B
:10285000F7011686932D842D04C0F7012686932D4B
:10286000842DF7019087818720E030E0A901B7012E
:10287000C8010E946B23892B09F09DCFC7016AD63E
:102880009ACFB701C8010E94972895CFC8010E942E
:10289000D61C6FCFE5E0F1E0808180648083E2E0C8
:1028A000F1E0808180648083E4E0F1E080818F7BCF
:1028B0008083E1E0F1E08081806480830895E1E03D
:1028C000F1E080818F7B80830895E1E0F1E08081F9
:1028D000806480830895E4E0F1E080818F7B8083D1
:1028E0000895E4E0F1E08081806480830895E5E06C
:1028F000F1E0808180628083EBE0F1E080818062A2
:102900008083E4E0F1E080818F7D8083EAE0F1E084
:102910008081806280830895EAE0F1E080818F7D8C
:1029200080830895EAE0F1E08081806280830895E9
:10293000E4E0F1E080818F7D80830895E4E0F1E0C0
:102940008081806280830895089508950895089590
:10295000089580E480937C0084E880937A0010924C
:102960007B008FE080937E000895DC010FB6F89421
:102970000F92ECE7F0E08081807F83608083EAE75C
:10298000F0E0808180648083908196FDFDCFECE74C
:10299000F0E09081907F92609083EAE7F0E08081A0
:1029A00080648083908196FDFDCF80917800909126
:1029B000790013969C938E931297ECE7F0E0908148
:1029C000907F91609083EAE7F0E08081806480836B
:1029D000908196FDFDCF80917800909179001596B9
:1029E0009C938E931497ECE7F0E08081807F808346
:1029F000EAE7F0E0808180648083908196FDFDCFDE
:102A0000809178009091790017969C938E931697F9
:102A10000F900FBE0895EF92FF920F931F933ADF2E
:102A200066DF0F2EF0E7EF2EF6E0FF2EF02D02E02E
:102A300010E020E030E04EE051E06BEC72E082E824
:102A400093E119D421E0892B09F420E0822F8195AC
:102A50001F910F91FF90EF9008959FB7F894809188
:102A6000672081110FC0249A209A289A2C9A219AC3
:102A7000229A8CB580618CBD8CB580648CBD8CB580
:102A800083608CBD809167208F5F809367209FBF9C
:102A900008959FB7F89480916720882329F081508A
:102AA00080936720811105C08CB58F7B8CBD1092FF
:102AB00066209FBF08952FB7F89490E08830910565
:102AC000A8F4FC018827E154FF4F8F4F0C941E445B
:102AD00080E212C081E010C082E00EC084E00CC031
:102AE00088E00AC080E408C080E806C082E08093E5
:102AF000662080E001C080E190916520892B809361
:102B0000652080916620811103C081E0809366205A
:102B10002FBF089590916620923049F12FB7F89415
:102B200090E088309105B8F4FC018827E953FF4F05
:102B30008F4F0C941E4480E10FC080E20DC081E0F5
:102B40000BC082E009C084E007C088E005C080E4D3
:102B500003C080E801C080E08095909165208923C2
:102B600080936520811102C0109266202FBF0895C6
:102B7000A8959DE088E10FB6F894A8958093600031
:102B80000FBE90936000A89584E190E00E94D33B33
:102B900060E070E080E090E030DDF5CF0F2EF9E4EA
:102BA000AF2EF3E1BF2EF02D12E00F2EFCE3CF2E5F
:102BB000F3E1DF2EF02D0F2EFFE28F2EF3E19F2E9B
:102BC000F02D0F2EF9E1EF2EF3E1FF2EF02D80E036
:102BD00090E00E94C63DC82FD92F80E090E00E946F
:102BE000AD3ADF93CF939F938F93BF92AF921F9392
:102BF0000E94461F84E690E00E94D33BEDB7FEB7EB
:102C0000808191819F938F93DF92CF921F930E9437
:102C1000461F00E02AE030E044E650E060E070E06B
:102C200081E00E94DB27EC018DB79EB70C960FB6B2
:102C3000F8949EBF0FBE8DBFCF3F9FEFD90741F4E1
:102C40009F928F921F920E94461F0F900F900F909D
:102C5000DF93CF93FF92EF921F930E94461F84E66B
:102C600090E00E94D33B0F900F900F900F900F9029
:102C7000AECFCF92DF92EF92FF920F931F93CF933D
:102C8000DF931F921F92CDB7DEB783E090E006D1AD
:102C900060E070E086E697E10E94E0449DE088E114
:102CA0000FB6F894A895809360000FBE90936000D3
:102CB0009ADC62E370E084E090E011D36C0186E07E
:102CC0000E948121C80ED91E6CE772E080E00E944C
:102CD000302FC80ED91E2FEF46E152E065E080E2AA
:102CE0000E947630C80ED91E61E070E084EB90E05F
:102CF0000E94B127C80ED91E8EDEC81AD10887FDE2
:102D0000D394DF92CF9284E893E19F938F930E94B4
:102D10003D45CE0101967C0101E010E020E030E06D
:102D20004CED50E067E073E08EEC95E1A4D2C80E64
:102D3000D91E0F2EF8E6EF2EF0E2FF2EF02D03E065
:102D400010E020E030E044EB50E06EE073E08BE018
:102D500091E191D28C0D9D1D0F900F900F900F90CF
:102D6000892B81F062E070E081E090E046DC88E74A
:102D700093E19F938F9386E08F930E94461F0F905D
:102D80000F900F908BE693E19F938F930E943D45A8
:102D90002DD78DE593E19F938F930E943D450E942F
:102DA000AC3080E593E19F938F930E943D450E9454
:102DB000C420E12CF12C03E020E030E044E650E0B8
:102DC00064E173E088EB95E10E94C4380E946F3A99
:102DD0000F900F900F900F900F900F9080E090E069
:102DE0000F900F90DF91CF911F910F91FF90EF9077
:102DF000DF90CF9008951F920F920FB60F9211247B
:102E00000BB60F922F933F934F935F936F937F93E4
:102E10008F939F93AF93BF93EF93FF93CF93DF93E2
:102E20001F92CDB7DEB7D898809168209091692025
:102E30000E941B3A89838981813011F40E94D0332A
:102E40000F90DF91CF91FF91EF91BF91AF919F9143
:102E50008F917F916F915F914F913F912F910F9043
:102E60000BBE0F900FBE0F901F9018951F920F92E0
:102E70000FB60F9211248DE093E19F938F930E94E0
:102E80003D450E949A3A80E093E19F938F930E9480
:102E90003D450F900F900F900F90FFCF9093C5007E
:102EA0008093C400E0ECF0E080818260808388E061
:102EB0008093C10086E08093C2000895E0ECF0E0CA
:102EC000908195FFFDCF8093C6000895CF93C82FC2
:102ED0008A3011F48DE0F2DF8C2FF0DF80E090E09B
:102EE000CF9108950C94DF3108950C949F3108958B
:102EF00040E00C94A53508950F931F93CF93DF9373
:102F0000EC018B01CA01B9016F3F2FEF72078105F8
:102F1000910541F02AE030E040E050E00E94FC439F
:102F2000CA01B90120E0AB01B801CE010E94D3353E
:102F3000082E000C990BDF91CF911F910F910895EE
:102F400020E00E947D36082E000C990B08950F9307
:102F50001F93CF93DF93EC018B012F3F8FEF380747
:102F60004105510541F0CA01B9012AE030E040E0D5
:102F700050E00E94FC43A901B801CE010E94B53681
:102F8000082E000C990BDF91CF911F910F9108959E
:102F90000E94FA3790E00895CF93DF93EC0181E02F
:102FA0000E9465369983888321E030E0892B11F4F3
:102FB00020E030E0C901DF91CF910895CF93DF93F6
:102FC000EC0143E060E081E00E94A53599838883AD
:102FD000009739F020E040E050E060E070E00E94AF
:102FE000D33581E090E0DF91CF910895CF92DF92C9
:102FF000EF92FF92CF93DF93EC016A017B01DF93A5
:10300000CF9387EA91E09F938F9387E08F933ED78A
:103010000F900F900F900F900F908FEFC816D8065B
:10302000E104F10451F0C701B6012AE030E040E0CC
:1030300050E00E94FC4369017A01B60188819981C0
:103040000E943E3721E030E0813011F020E030E096
:10305000C901DF91CF91FF90EF90DF90CF9008955D
:10306000CF93DF93EC01DF93CF938EE991E09F93B1
:103070008F9387E08F930AD720E040E050E060E034
:1030800070E0888199810E94D33521E030E00F9073
:103090000F900F900F900F90813011F020E030E0F2
:1030A000C901DF91CF9108950E94F33E80E090E046
:1030B00008950E94AA3A28E2829FC001112408952F
:1030C0004F925F926F927F928F929F92AF92BF9238
:1030D000CF92DF92EF92FF920F2EF0E1CF2EF7E228
:1030E000DF2EE12CF12CF02D44244A94542C320193
:1030F000812C912C5401C601880D991D0E94DF314D
:10310000009759F4240135014C0C5D1C6E1C7F1C8A
:10311000F694E794D794C79415C08C0C9D1CAE1CF4
:10312000BF1CB701A601480D591D6A1D7B1D441522
:1031300055056605770520F0F694E794D794C79473
:103140000E949F3180E2C816D104E104F10498F690
:10315000C501B401FF90EF90DF90CF90BF90AF908A
:103160009F908F907F906F905F904F90089580E038
:1031700090E0892B21F081E090E00E94000080E047
:1031800090E0892B19F00E940000FFCF8CEC91E0B9
:103190009F938F931F927AD60F900F900F908EEF80
:1031A0009FEF089580E090E0892B19F00E940000C5
:1031B000FFCF89EB91E09F938F931F9267D60F907B
:1031C0000F900F908EEF9FEF0895982FE82FEF70DC
:1031D0004E2F50E0FA013197E830F105D8F48827F6
:1031E000E256FF4F8F4F0C941E442FE130E017C082
:1031F00020E230E014C021E230E011C022E230E0F1
:103200000EC023E230E00BC024E230E008C025E22B
:1032100030E005C020E030E002C02EE130E0892F30
:10322000807F803249F018F4803191F00EC08033F5
:1032300031F0803439F009C082E090E00BC083E0C7
:1032400090E008C084E090E005C080E090E002C01B
:1032500081E090E03F932F939F938F9380EB91E0D9
:103260009F938F930E943D450F900F900F900F906A
:103270000F900F900895EF92FF920F930E94C43821
:1032800021E030E0813011F420E030E088279927F8
:10329000821B930B0F91FF90EF9008950E94A03A2C
:1032A000BC01660F771F880F991F880F991F880F21
:1032B000991F680F791F80E090E008950E94A03A5E
:1032C0009C013695279536952795ABE7B4E10E948A
:1032D000264496958795BC0180E090E00895CF92B2
:1032E000DF92EF92FF920F931F93CF93DF931F9282
:1032F0001F92CDB7DEB790932203809321039B01E9
:10330000225F3F4F3093200320931F036B0122E184
:10331000C20ED11C8C9D80018D9D100D9C9D100DA9
:103320001124C801DFDD9093240380932303892BAC
:1033300009F44FC062E070E0809121039091220374
:10334000D7DD9093260380932503892BD1F1A80123
:1033500060E070E080912303909124030E94AA44CE
:103360008091210390912203892BB1F1E12CF12C62
:1033700000E010E0E0912303F0912403EE0DFF1D27
:10338000FA83E98311821082E981FA81F383E2836F
:1033900020E030E0A901BE016F5F7F4F80912503DF
:1033A00090912603A9DD0F5F1F4FEC0CFD1C80914F
:1033B00021039091220308171907E0F280E090E0C2
:1033C0000DC080912303909124038FDD8FEF9FEF39
:1033D00005C08FEF9FEF02C080E090E00F900F904C
:1033E000DF91CF911F910F91FF90EF90DF90CF90E1
:1033F0000895CF93DF931F921F92CDB7DEB71A8245
:103400001982AC01425F5F4F20911F03309120036E
:103410002417350780F49F938F9384E992E09F935C
:103420008F931F9233D50F900F900F900F900F90A6
:1034300080E090E057C020E030E0A901BE016F5F5E
:103440007F4F809125039091260381DDE981FA81E8
:10345000309761F485E892E09F938F931F9216D581
:103460000F900F900F9080E090E03CC083818F938D
:1034700082818F93FF93EF938AE792E09F938F93DC
:1034800083E08F9303D5E981FA810FB6F894DEBF0C
:103490000FBECDBF82819381E817F907D9F087E687
:1034A00092E09F938F931F92F1D480912303909188
:1034B00024030E949F3160911F037091200380912B
:1034C0002103909122030BDF0F900F900F9080E06B
:1034D00090E008C0808191810196918380838981E9
:1034E0009A8104960F900F90DF91CF910895CF931A
:1034F000DF9300D0CDB7DEB71982009729F1FC0128
:103500003497FB83EA8322813381E217F307E1F4E6
:103510002081318121153105B9F02230310528F0A3
:1035200021503109318320830FC0FC01349711826F
:103530001082AE014F5F5F4FBE016E5F7F4F809183
:10354000250390912603FCDC0F900F900F90DF91E4
:10355000CF910895CF93DF931F921F92CDB7DEB71F
:10356000009751F48AE492E09F938F931F928ED438
:103570000F900F900F9062C0FC013497FA83E9839B
:1035800022813381E217F30771F09F938F9386E2D4
:1035900092E09F938F931F9279D40F900F900F908A
:1035A0000F900F904BC0DC0114972D913C91211589
:1035B000310571F4FF93EF9389E092E09F938F932D
:1035C0001F9264D40F900F900F900F900F9036C001
:1035D00022303105B0F021503109DC0114972D93D0
:1035E0003C933F932F93FF93EF9386EE91E09F934D
:1035F0008F931F924BD40FB6F894DEBF0FBECDBF92
:103600001DC0DC0114971D921C92FF93EF938DED6A
:1036100091E09F938F9383E08F9338D420E030E044
:10362000A901BE016F5F7F4F809125039091260312
:1036300063DC0F900F900F900F900F900F900F90F2
:10364000DF91CF9108958091250390912603A0CC1E
:1036500008950F931F93CF93DF931F921F92CDB7BF
:10366000DEB78C0105C089819A81009709F072DF6D
:1036700020E030E0A901BE016F5F7F4FF801848533
:10368000958565DC019779F380E090E00F900F90CD
:10369000DF91CF911F910F9108950F931F93CF93B7
:1036A000DF931F921F92CDB7DEB77A8369830097AD
:1036B00031F18C0120E030E0A901BE016F5F7F4F46
:1036C000FC018485958518DC0197E1F0F80184857B
:1036D00095855EDC9F938F93F80185858F93848514
:1036E0008F938DEC94E09F938F931F92CFD30FB65F
:1036F000F894DEBF0FBECDBF8FEF9FEF05C08EEFFA
:103700009FEF02C080E090E00F900F90DF91CF918B
:103710001F910F9108950F931F93CF93DF93BEDDF9
:10372000CB010E9489440E9486448F71907899232E
:1037300024F40197806E9F6F0196805E80932A0328
:1037400088E293E03BDC019729F4CFE2D3E00FE17C
:1037500014E01CC08AEA94E09F938F931F9296D343
:103760000F900F900F908FEF9FEF32C089E894E099
:103770009F938F931F928AD30F900F900F908FEF8C
:103780009FEF26C068960C171D0779F062E070E085
:1037900084E690E0ADDB9B878A87FE01319710823B
:1037A000CE01FADB019771F3E1CF8BE293E006DC07
:1037B000019761F087E694E09F938F931F9266D301
:1037C0000F900F900F908FEF9FEF02C080E090E07E
:1037D000DF91CF911F910F9108958F929F92AF9299
:1037E000BF92CF92DF92EF92FF926B017C01490171
:1037F0005A01EDE2F3E080E090E03181332309F1FA
:10380000208121111EC044815581668177814C251C
:103810005D256E257F25482159216A217B21452B75
:10382000462B472B71F49C01220F331F820F931FED
:10383000880F991F880F991F880F991F835D9C4FD0
:1038400007C0019678968A309105B9F680E090E03D
:10385000FF90EF90DF90CF90BF90AF909F908F90B0
:1038600008951F93CF93DF93182F44E650E060E054
:1038700070E08BE293E0BADB019761F08DE494E0B5
:103880009F938F931F9202D30F900F900F9080E021
:1038900090E05AC08091270390E001966AE070E0C2
:1038A0000E94E943FC01EE0FFF1FE80FF91FEE0F26
:1038B000FF1FEE0FFF1FEE0FFF1FE35DFC4F418167
:1038C000411138C0EF0117C0EC01CC0FDD1FC80F4C
:1038D000D91FCC0FDD1FCC0FDD1FCC0FDD1FC35D4B
:1038E000DC4F4981442339F00196BF010E94E9432E
:1038F0002150310949F72981213079F484E394E09A
:103900009F938F931F92C2D28BE293E0A9DB0F901B
:103910000F900F9080E090E017C091E099831F8690
:103920001E861883809327038BE293E099DB8C2F0C
:103930009D2F0AC001966AE070E00E94E94329E0E9
:1039400030E0EAE0F0E0C0CFDF91CF911F91089521
:103950008F929F92AF92BF92CF92DF92EF92FF929F
:10396000CF93DF934B015C0169017A0180E079DF3D
:10397000EC01892B79F08C829D82AE82BF82C88651
:10398000D986EA86FB868ADC688B798B8A8B9B8B4F
:10399000CE015FDECE01DF91CF91FF90EF90DF90FF
:1039A000CF90BF90AF909F908F900895CF93DF936B
:1039B000EC01892B61F484E194E09F938F931F9233
:1039C00065D20F900F900F908EEF9FEF2DC08981E1
:1039D00081110DC080E094E09F938F9385E08F93D9
:1039E00055D20F900F900F9080E090E01DC044E6FC
:1039F00050E060E070E08BE293E0F8DA019761F06C
:103A000086EE93E09F938F931F9240D20F900F907A
:103A10000F908DEF9FEF08C01982CE011ADE8BE266
:103A200093E01EDB80E090E0DF91CF9108956F92EC
:103A30007F928F929F92AF92BF92CF92DF92EF923E
:103A4000FF920F931F93CF93DF93862E142F982E00
:103A5000990C990C990C990C990C990C092D3FD43F
:103A6000C82FC295C07F82958170082B882D8F71D9
:103A7000982F990F092B912F9F73A92ED92FB12C15
:103A8000880C880C880C880C82958F70982A27D413
:103A90008F71880F982A1295110F110F107CA69420
:103AA000A6948A28C0FE0CC08BE993E09F938F9365
:103AB0001F92ECD10F900F900F9080E090E07AC0B1
:103AC000C2FE0CC080E493E09F938F931F92DED1DF
:103AD0000F900F900F9080E090E06CC0C4FE0CC07F
:103AE00089EE92E09F938F931F92D0D10F900F9009
:103AF0000F9080E090E05EC0C6FE05C0BB24B3948A
:103B00006624639401C0612C48EE53E060E070E0ED
:103B100088E293E06BDA019709F045C0A0902A0390
:103B20006894772475F81FC0903410F070922A03BF
:103B300080912A03982F9F73107C192B8295880FF0
:103B4000880F807CDF73D82B96959695C07FC92B04
:103B500020E030EC4FE050E06B2D7D2F8C2F902F2C
:103B60003CDE892B39F090912A039F5F90932A03C2
:103B7000A912DACF88E293E073DA80912A03A816BB
:103B8000A9F0262D312F482D592D6B2D7D2F8C2FEF
:103B9000902FDEDEFC01009761F0C48AD58AE68AA8
:103BA000F78A9F2F07C080E090E004C080E090E09B
:103BB00001C09F2FDF91CF911F910F91FF90EF9048
:103BC000DF90CF90BF90AF909F908F907F906F903D
:103BD0000895FC01958192959695969593708681AE
:103BE0008F70880F880F892B90E00895EF92FF92D5
:103BF0000F931F93CF93DF930F2EFDE2EF2EF3E091
:103C0000FF2EF02DC0E0D0E00BEB12E0F70187852E
:103C10008F9386858F93CE01880F991FFC01EC0F3F
:103C2000FD1FEE0FFF1FEE0FFF1FEE0FFF1FEE5CDD
:103C3000FC4F20812F731F922F932081322F3295BA
:103C400036953695337021812F70220F220F232B4A
:103C50001F922F93FC01EC0FFD1FEE0FFF1FEE0FC5
:103C6000FF1FEE0FFF1FED5CFC4F2081322F3295BE
:103C70003F70218121702295207F232B1F922F934B
:103C8000FC01EC0FFD1FEE0FFF1FEE0FFF1FEE0FED
:103C9000FF1FEC5CFC4F808186958F711F928F9384
:103CA000F70181811F928F93FF92EF92DF93CF9361
:103CB0001F930F930E943D45219698E1E90EF11C58
:103CC000EDB7FEB772960FB6F894FEBF0FBEEDBF0C
:103CD000CA30D10509F09ACFDF91CF911F910F9192
:103CE000FF90EF900895CF92DF92EF92FF920F93A3
:103CF0001F93CF93DF938A019B0101501109210982
:103D00003109452B462B472B39F1C82FD92F4FEFBF
:103D10005FEFBA0189916A017B01C826D701C6010C
:103D20009927AA27BB27FC01EE0FFF1FEE0FFF1FED
:103D3000E451FB4F85919591A591B491452F562F54
:103D4000672F7727482759276A277B2701501109B2
:103D500021093109F8F603C04FEF5FEFBA01CB013B
:103D6000BA016095709580959095DF91CF911F91E4
:103D70000F91FF90EF90DF90CF900895CF93DF9356
:103D8000009719F1EC01662349F0488559854C5F8D
:103D90005F4F60E070E00A96A6DF06C0488559854F
:103DA00060E070E00E969FDFEED0E885F985EC0FBD
:103DB000FD1F66877787808B918B88859985049610
:103DC0009987888780E090E002C08EEF9FEFDF91B7
:103DD000CF910895EF92FF920F931F93CF93DF93AC
:103DE00000D01F92CDB7DEB7009709F43CC0FC01AC
:103DF0004085518544305105C8F18C01662349F056
:103E000060E070E00A966FDF69837A838B839C831E
:103E10000AC04450510960E070E00E9664DF698387
:103E20007A838B839C8369817A818B819C81ABD0DF
:103E300069837A838B839C83F801E084F184C801D1
:103E40008E0D9F1D44E050E0BE016F5F7F4F0A96CC
:103E50000E949444009769F4F4E0EF1AF108F80125
:103E6000F186E08608C08EEF9FEF05C08EEF9FEFD2
:103E700002C08EEF9FEF0F900F900F900F90DF9189
:103E8000CF911F910F91FF90EF900895FF920F93A4
:103E90001F93CF93DF93CDB7DEB71985183008F0A5
:103EA00064C0E12FF0E0E65FFD4F8081882309F4D4
:103EB0005CC0812F90E08830910508F056C0FC016D
:103EC0008827EA55FF4F8F4F0C941E4482E10BC0A8
:103ED00084E109C086E007C083E005C085E003C037
:103EE00087E001C083E1AE01445F5F4FF42E052FF0
:103EF000E0911D04F0911E04309729F06A857B85BE
:103F0000812F199515C061D94F2D502F6A857B855A
:103F100080916C2090916D200E94FE4586E099E092
:103F20009F938F930E943D4580EF4FD90F900F9044
:103F30001630D9F480E090E00E94AD3A9F938F93C1
:103F400089EF98E09F938F930E943D450E949A3A93
:103F50008CEE98E09F938F930E943D450F900F90B9
:103F60000F900F900F900F90FFCFDF91CF911F9187
:103F70000F91FF90089598278927982708959827EB
:103F8000892798270895CF92DF92EF92FF920F939F
:103F90001F93C92EDD24EE24FF24362F222711275C
:103FA00000270C291D292E293F296B017C01CC24D7
:103FB000EE24FF24FE2CED2CDC2CCC240C291D2916
:103FC0002E293F29DC01CB0188279927BB27892F80
:103FD0009A2FAB2FBB27BC01CD01602B712B822BFD
:103FE000932B1F910F91FF90EF90DF90CF9008954A
:103FF000CF92DF92EF92FF920F931F93C92EDD2491
:10400000EE24FF24362F2227112700270C291D29F3
:104010002E293F296B017C01CC24EE24FF24FE2CA9
:10402000ED2CDC2CCC240C291D292E293F29DC0168
:10403000CB0188279927BB27892F9A2FAB2FBB2726
:10404000BC01CD01602B712B822B932B1F910F9103
:10405000FF90EF90DF90CF9008950F931F93CF9331
:10406000DF93C82FD92F162F072F2115310580E197
:104070004807510560F0CA01B9010E94E44220E0FE
:1040800030E040E855E30E9421432DE417C021159C
:1040900084E038074105510560F0CA01B9010E946A
:1040A000E44220E030E040E85AE30E9421432BE460
:1040B00005C0CA01B9010E94E44222E41F922F9375
:1040C0009F938F937F936F9389E099E09F938F9352
:1040D0000F931F93DF93CF930E9494452DB73EB764
:1040E000245F3F4F0FB6F8943EBF0FBE2DBFDF9148
:1040F000CF911F910F9108950F931F93CF93DF934B
:104100008C01C0911F04D0912004209771F04AE0E7
:1041100050E0B801888199810E94B844892B29F028
:1041200009A8DAA9C02D209791F7CE01DF91CF9190
:104130001F910F910895A0911F04B0912004109732
:1041400041F49093200480931F04FC0112AA11AA49
:104150000895A817B907B9F0D196ED91FC91D297BF
:10416000309741F4FD010AC021A932A9211531057A
:1041700029F0F9018E179F07B9F7089592AB81AB2B
:10418000FC0112AA11AA0895AF92BF92CF92DF92BA
:10419000EF92FF920F931F93CF93DF93CDB7DEB7CC
:1041A000E2970FB6F894DEBF0FBECDBF00911F049B
:1041B000109120040115110509F480C0CE0101966B
:1041C0005C017E019AE1E90EF11C0F2EF0E1CF2E89
:1041D000F9E0DF2EF02DF80125A136A147A150A569
:1041E00069E170E0C50139DFF80121A532A543A5D9
:1041F00054A569E170E0C70130DFFF92EF92F8014A
:1042000084A58F9383A58F9382A58F9381A58F9388
:10421000BF92AF9280A58F9387A18F9386A18F9332
:1042200085A18F9384A18F9383A18F9382A18F9374
:1042300081A18F9380A18F93878D8F93868D8F938C
:10424000858D8F93848D8F93838D8F93828D8F93A4
:10425000818D8F93808D8F9387898F9386898F939C
:1042600085898F9384898F9383898F9382898F9394
:1042700081898F9380898F9387858F9386858F938C
:1042800085858F9384858F9383858F9382858F9384
:1042900081858F9381818F9380818F93DF92CF92DD
:1042A0000E943D45F80101A912A90FB6F894DEBF9E
:1042B0000FBECDBF0115110509F08DCFE2960FB6E7
:1042C000F894DEBF0FBECDBFDF91CF911F910F914C
:1042D000FF90EF90DF90CF90BF90AF9008958091C6
:1042E00025040895809123049091240408958091D9
:1042F000210490912204089580911202909113025A
:104300000895CF93DF938093250405DA0097E9F4AD
:1043100053D20097D1F4D6D2EC010097A9F489E4E6
:1043200092E009DF2FEF49E452E065E08091250437
:104330000E9476302FEF49E452E065E080E20E946F
:1043400076308C2F9D2F01C09D2FDF91CF91089546
:10435000CF92DF92EF92FF92CF93DF936B017C01BC
:1043600060FF0CC08FEC9BE09F938F931F928EDDBC
:104370000F900F900F9080E090E050C064FF0CC051
:1043800088E79BE09F938F931F9280DD0F900F90A3
:104390000F9080E090E042C062FF0CC081E29BE0A1
:1043A0009F938F931F9272DD0F900F900F9080E07C
:1043B00090E034C0DC01CB018A7A9E7F892B8A2B66
:1043C0008B2B61F08BE09BE09F938F931F925EDDC0
:1043D0000F900F900F9080E090E020C081E041DAD4
:1043E000EC01892BB1F0D0FE0BC062E070E084E6F6
:1043F00090E00E9478179F878E87892B19F40CC054
:104400001F861E86CC8ADD8AEE8AFF8A8C2F9D2F1E
:1044100005C080E090E002C080E090E0DF91CF91A5
:10442000FF90EF90DF90CF900895CF93DF931F928E
:104430001F92CDB7DEB7009789F0FC01868597857E
:10444000009779F09A01AB01BE016F5F7F4F0E9428
:10445000A717019749F489819A8108C080E090E00C
:1044600005C080E090E002C080E090E00F900F90E7
:10447000DF91CF910895CF93DF931F921F92CDB715
:10448000DEB71A821982009791F0FC012181213058
:1044900089F49A01AB01BE016F5F7F4F84859585DA
:1044A0000E94A717019749F489819A8108C080E08A
:1044B00090E005C080E090E002C080E090E00F90C6
:1044C0000F90DF91CF9108954F925F926F927F92FC
:1044D0008F929F92AF92BF92CF92DF92EF92FF9214
:1044E0000F931F93CF93DF93862E972EA82EB92E6E
:1044F0006A01E901270138014115510561F483EE94
:104500009AE09F938F931F92C1DC0F900F900F90B2
:1045100086EF9FEFCFC0209721F08C819D81892B62
:10452000B1F4BF92AF929F928F928BEC9AE09F93DF
:104530008F931F92ABDC2DB73EB7295F3F4F0FB66D
:10454000F8943EBF0FBE2DBF86EF9FEFB3C08B2DFB
:1045500086958F71082F10E099819F9398819F9382
:10456000FA0191859F9390859F931F926F939B2D46
:1045700092959695969593701F929F93972F9F7300
:104580001F929F93272F22952695269523709A2D6B
:104590009F70990F990F922B1F929F932A2D22950E
:1045A0002F709B2D91709295907F922B1F929F93CD
:1045B0001F928F938CE89AE09F938F9384E08F9360
:1045C00065DCF60182869386A486B58680912504F3
:1045D00090E02DB73EB72D5E3F4F0FB6F8943EBF2B
:1045E0000FBE2DBF0817190761F583FE0BC08DE2C2
:1045F0009AE09F938F9381E08F9348DC0F900F9008
:104600000F904BC080FE10C060E0C601B7DB892B65
:1046100059F088E19AE09F938F9381E08F9336DC85
:104620000F900F900F9039C082FE0BC084EB99E081
:104630009F938F9381E08F9329DC0F900F900F90C1
:104640002CC0F601008511858E819F81009719F09D
:104650008017910710F1EC81FD81A3019201B60151
:10466000CE0119950097C9F449855A856B857C85DB
:104670004F5F5F4F6F4F7F4F49875A876B877C87AC
:104680004DA15EA16FA178A5400F511F611D711D45
:104690004DA35EA36FA378A70DC089899A89AB89C2
:1046A000BC890196A11DB11D898B9A8BAB8BBC8BEC
:1046B00086EF9FEFDF91CF911F910F91FF90EF90C9
:1046C000DF90CF90BF90AF909F908F907F906F9032
:1046D0005F904F9008958F929F92AF92BF92CF922A
:1046E000DF92EF92FF920F931F93CF93DF93EC0132
:1046F0006B0149015A01892B29F0672B19F0898137
:10470000813061F08BE999E09F938F931F92BEDB1C
:104710000F900F900F9080E090E01AC09A859295CC
:104720009F708B8581708295807F892B0E943530A8
:104730009C01688579858A859B8585017401A60120
:10474000C3DE31E020E0892B09F030E0832F922F87
:10475000DF91CF911F910F91FF90EF90DF90CF905D
:10476000BF90AF909F908F90089580329105F0F4A4
:10477000FC01EE0FFF1FE80FF91FEA5DFB4F2081E0
:10478000213059F4FC01EE0FFF1F8E0F9F1FFC011B
:10479000EA5DFB4F8181928108958091860481308A
:1047A00041F48091870490918804089580E090E01E
:1047B000089580E090E0089583E6E6E2F4E0DF010A
:1047C0001D928A95E9F780E090E00895CF93DF93FA
:1047D0009C01892B99F0CB01E90162E070E00E9415
:1047E00078179F878E8721E030E0892B11F020E039
:1047F00030E088279927821B930B02C08EEF9FEF32
:10480000DF91CF9108950F931F93CF93DF9300977C
:1048100009F451C08C01613288F01F9280E28F93BD
:104820008BE59CE09F938F931F9230DB0F900F904E
:104830000F900F900F908EEF9FEF3FC0C62FD0E0EC
:10484000FE01EE0FFF1FEC0FFD1FEA5DFB4F8081A5
:10485000882381F01F926F9381E49CE09F938F9354
:104860001F9214DB0F900F900F900F900F908CEF12
:104870009FEF23C01F926F931F930F9384E29CE0DE
:104880009F938F9382E08F9301DBCE01880F991F56
:10489000C80FD91FCA5DDB4F1A83098381E0888363
:1048A0008DB79EB707960FB6F8949EBF0FBE8DBF0B
:1048B00080E090E002C08EEF9FEFDF91CF911F91DB
:1048C0000F9108958091890490918A04892B61F455
:1048D00064E070E08AE090E00E94781790938A0488
:1048E00080938904892B19F080E090E008958FEF80
:1048F0009FEF08952FEF3FEF40E050E0BC01809123
:10490000890490918A040E94A717019719F480E006
:1049100090E008958DEF9FEF0895CF92DF92EF9290
:10492000FF920F931F93CF93DF9300D01F92CDB7C9
:10493000DEB77C018B016A01009759F489E09DE0A4
:104940009F938F9381E08F93A1DA0F900F900F9038
:1049500089C061157105A1F48FED9CE09F938F9341
:1049600081E08F9393DA0F900F900F90CD2821F470
:10497000C7010E94AA1A76C0C7010E94771A72C0A6
:104980007A8369839C838B834115510581F420E0F0
:1049900030E0A901BE016F5F7F4F80918904909143
:1049A0008A040E947C17019709F043C00BC0BE0126
:1049B0006F5F7F4F8091890490918A040E94A017B5
:1049C0000197E9F4F80185859685A785B089019658
:1049D000A11DB11D85879687A787B08BF70120851C
:1049E0003185F80181A592A5A3A5B4A5820F931FD7
:1049F000A11DB11D81A792A7A3A7B4A733C08BEABD
:104A00009CE09F938F9381E08F9340DAF801818D32
:104A1000928DA38DB48D0196A11DB11D818F928FB2
:104A2000A38FB48FC7010E94771A0F900F900F9039
:104A300019C08BEA9CE09F938F9381E08F9326DAD5
:104A4000F801818D928DA38DB48D0196A11DB11DAC
:104A5000818F928FA38FB48FC7010E94AA1A0F90E3
:104A60000F900F900F900F900F900F90DF91CF91BC
:104A70001F910F91FF90EF90DF90CF9008950F93CB
:104A80001F93CF93DF938A01E9018A8580FF2FC0AE
:104A9000888599858430910568F49F938F938FEA78
:104AA0009DE09F938F931F92F1D90F900F900F90DD
:104AB0000F900F9060E0CE018DD9009749F183E807
:104AC0009DE09F938F931F92E1D9F8018589968984
:104AD000A789B08D0196A11DB11D858B968BA78BE3
:104AE000B08F0F900F900F908AE99FEF11C066FF73
:104AF0000DC083E59DE09F938F9381E08F93C6D98E
:104B00000F900F900F9080E090E002C080E090E066
:104B1000DF91CF911F910F910895CF92DF92EF9285
:104B2000FF920F931F93CF93DF9300D000D0CDB7A8
:104B3000DEB7CE010196DEDE6C01892B09F09CC147
:104B4000EB81FC81FE83ED83A981BA8111968C9162
:104B500011978F938C918F9381858F9380858F93FD
:104B600082851F928F938585829586958695837021
:104B70001F928F9383858F731F928F938385982FB6
:104B8000929596959695937084858F70880F880F6F
:104B9000892B1F928F938485982F92959F7085857E
:104BA00081708295807F892B1F928F938585869552
:104BB0008F711F928F9384E29FE09F938F9384E085
:104BC0008F9364D9ED81FE810485802F82958F704B
:104BD000058501700295007F082B10E080DB90E0D6
:104BE0000FB6F894DEBF0FBECDBF0817190709F442
:104BF0003FC0ED81FE818485982F92959F708585B9
:104C000081708295807F892B8F3191F10E943530A0
:104C1000FC01009741F029813A818217930741F402
:104C20002085211105C08D819E810E94AA1A63C131
:104C30004D815E81DA011A966D917D918D919C91E5
:104C40001D97E12CF12C87019F013EDC009709F4B0
:104C500017C18EE09FE09F938F9381E08F9316D9C9
:104C60008D819E810E94AA1A0F900F900F9043C1D0
:104C7000ED81FE8109811A81828582FF16C087E756
:104C80009EE09F938F931F9201D9F801858D968D99
:104C9000A78DB0A10196A11DB11D858F968FA78FFD
:104CA000B0A30F900F900F90EDC083FF16C08FE15F
:104CB0009EE09F938F931F92E9D8F801858D968D82
:104CC000A78DB0A10196A11DB11D858F968FA78FCD
:104CD000B0A30F900F900F90D5C081FFD8C08EEC7D
:104CE0009DE09F938F931F92D1D8F8018589968973
:104CF000A789B08D0196A11DB11D858B968BA78BC1
:104D0000B08F0F900F900F90BDC0D80154966D9149
:104D10007D918D919C91579770FFCBC02D813E81E5
:104D200049815A81ACDE99232CF48D819E810E94A9
:104D3000AA1AE1C020E030E0A901BE016B5F7F4FFD
:104D4000F801868597850E947C17019709F4D3C0E6
:104D500082EF9EE09F938F931F9298D88D819E81C2
:104D60000E94AA1A0F900F900F90C5C08D819E814E
:104D70000E94AA1AC0C02D813E8149815A81D80162
:104D800054966D917D918D919C91579778DE9923E2
:104D90002CF48D819E810E94AA1AADC0ED81FE8106
:104DA0008585807CF82E9BDA8F71880FF82AED813B
:104DB000FE818585869584FB992790F9F92A53858C
:104DC000452F4F73469546958295807F482B252F1A
:104DD000229526952695237034853F70330F330F27
:104DE000932F922B352F3295330F330F307C392B85
:104DF000228562857385848595855F2D0E94A81C18
:104E00007C01892B71F484ED9EE09F938F931F9218
:104E10003DD88D819E810E94AA1A0F900F900F900D
:104E20006AC0F80186859785D7011F969C938E935B
:104E30001E9784899589A689B789F701848B958BFC
:104E4000A68BB78B13C02D813E8149815A81D70132
:104E500054966D917D918D919C91579710DE992379
:104E60002CF48D819E810E94AA1A45C06D817E819D
:104E7000C7010E940A313FC0CC24CA94DC2C3BC03D
:104E80006C0139C08D819E810E94AA1A34C083852D
:104E9000982F929596959695937084858F70880F2C
:104EA000880F892B90E061DC8C01892B09F02DCFD4
:104EB00011C0ED81FE81628573858485958520E032
:104EC0003FEF4FEF5FE30E94ED1B7C01892B09F060
:104ED000BACF51CFED81FE8162857385848595853A
:104EE00020E03FEF4FEF5FE30E94ED1B7C01892B39
:104EF00009F0A9CF3BCFC60126960FB6F894DEBFC6
:104F00000FBECDBFDF91CF911F910F91FF90EF901A
:104F1000DF90CF900895C0E3DDE06894FF24F1F8BE
:104F200080E090E00E94C63D182F092F80E090E0BD
:104F30000E94AD3A0F931F939F938F93DF93CF936C
:104F4000FF920E94461F6FEF7FEF80E090E0E5DD6B
:104F50008DB79EB707960FB6F8949EBF0FBE8DBF54
:104F6000DFCFEF92FF920F931F930F2EFBE8EF2EF0
:104F7000F4E0FF2EF02D8B0120E030E0AC0167E97A
:104F800072E08BE897E20E943B19892B69F087E376
:104F90009DE09F938F931F920E94461F0F900F904A
:104FA0000F908FEF9FEF02C080E090E01F910F9174
:104FB000FF90EF9008953F924F925F926F927F9291
:104FC0008F929F92AF92BF92CF92DF92EF92FF9219
:104FD0000F931F93CF93DF93382E4A015B01E901B2
:104FE0000E944E192B013C01C02ED12CE12CF12C3A
:104FF0009501840141E0632D82E00E94171D8C0120
:10500000892BE1F1CE010E94F9197C010097C9F1C9
:10501000FC01D187C087209741F03E9680E090E068
:1050200081930196C817D907D9F720E030E0A9018C
:10503000B701C80150DB892B61F1B501A401C8019A
:105040001ADA7C010097E9F0209739F1FC01868596
:10505000811128C03F9680E090E007C0219130E0A8
:10506000AC0155272417350709F50196C817D9074C
:10507000A9F7812C912C540183941BC08FEF9FEFD3
:105080002CC0C8010E94D61C0E944E198FEF9FEFC2
:1050900024C0812C912C54010CC0812C912C5401E2
:1050A000839407C0812C912C540103C0812C912C36
:1050B0005401C7010E94AA1AC8010E94D61C0E946E
:1050C0004E19DC01CB0184199509A609B709892875
:1050D0008A288B2811F48FEF9FEFDF91CF911F91DA
:1050E0000F91FF90EF90DF90CF90BF90AF909F9087
:1050F0008F907F906F905F904F903F900895CF92E8
:10510000DF92EF92FF920F931F93DC01CB016901B5
:105110007A01A801B6010E94A144BC0180E090E0A0
:105120001F910F91FF90EF90DF90CF9008956F92B5
:105130007F928F929F92AF92BF92CF92DF92EF9227
:10514000FF920F931F93CF93DF937C01EB010E949B
:10515000E91D8730910508F03AC2FC018827E25525
:10516000FF4F8F4F0C941E448E85811171C18F8526
:10517000833009F46DC030F4813069F0823009F475
:105180004DC05FC1853009F401C108F4E3C0863029
:1051900009F416C156C1B0D844E150E0BC01CE01BB
:1051A0008E5B9F4F0E94C644FE01EB5AFF4F108258
:1051B0008CE0EBE9F2E0DE01AA5ABF4F01900D92BC
:1051C0008A95E1F7FE01EF59FF4F108289E0E7EA87
:1051D000F2E0DE01AE59BF4F01900D928A95E1F7E2
:1051E000FE01E659FF4F10827DD844E150E0BC013A
:1051F000CE0140960E94C6441BA279D84EE150E0F1
:10520000BC01CE0184960E94C644FE01EF5BFF4FB5
:1052100010828DE590E099878887EEC1CE01429695
:105220000E947C20009751F02989AC0165E08889B3
:105230005DD7892B31F480E090E005C08EEF9FEFC1
:1052400002C08EEF9FEF2FE030E039872887FBC048
:10525000CE0140960E947C208C01009709F473C017
:10526000FC0161857285838594850E94C31F6B8FC5
:105270007C8F8D8F9E8FF8016585768587859089D7
:105280000E94C31F6F8F78A389A39AA3F801618935
:105290007289838994890E94C31F6BA37CA38DA309
:1052A0009EA3F801658976898789908D0E94C31F26
:1052B0006FA378A789A79AA7F801618D728D838D56
:1052C000948D0E94C31F6BA77CA78DA79EA7F80192
:1052D000658D768D878D90A10E94C31F6FA778ABD7
:1052E00089AB9AABF80161A172A183A194A10E943C
:1052F000C31F6BAB7CAB8DAB9EABF80165A176A1F8
:1053000087A190A50E94C31F6FAB78AF89AF9AAFFA
:10531000F80161A572A583A594A50E94C31F6BAF78
:105320007CAF8DAF9EAFF80165A576A587A590A946
:105330000E94C31FFE01FF96608371838283938363
:1053400080E090E002C08EEF9FEF25E330E03987E8
:10535000288779C0688979898A899B890E94C31FB7
:105360009B01AC01688B798B8A8B9B8B0C89093CE8
:1053700008F03FC110E0CE014596BC0180E090E00E
:10538000E0911402F0911502199536C16889798966
:105390008A899B890E94C31F688B798B8A8B9B8B20
:1053A0000C89093C08F025C110E09E012B5E3F4F9F
:1053B00040E050E0E0911402F091150219951CC1F3
:1053C000688979898A899B890E94F81F688B798B03
:1053D0008A8B9B8B6C897D898E899F890E94F81F9F
:1053E0006C8B7D8B8E8B9F8B88899989AA89BB89D1
:1053F000892B8A2B8B2B41F080E090E0892B21F0C8
:10540000CE0140960E94000080E090E0892B21F0C0
:10541000CE0140960E940000688979898A899B891B
:105420000E94C31F688B798B8A8B9B8B6C897D89CB
:105430008E899F890E94C31F6C8B7D8B8E8B9F8B67
:10544000DBC08EEF9FEF2FEF2E87892B09F4C3C0AF
:10545000CE010E94AA1AD3C083E69FE09F938F9348
:1054600082E08F930E94461F0F900F900F90B3C061
:1054700088859985019719F48E85853521F0CE01AF
:105480000E94AA1ABCC00E9459188C010E9472176F
:105490004C010097A1F422E1E0EBF2E0CE010E9680
:1054A000DC0101900D922A95E1F7FC0101900020AA
:1054B000E9F73197E81BF90BF987E8878CC00E9460
:1054C0005418B801C4010E94D5445C01181619068D
:1054D0009CF5C12CD12C612C712C209739F484ECD3
:1054E00090E00E94F919EC01892B31F185010C192A
:1054F0001D09053C110514F004EC10E0198708871C
:10550000B4016C0D7D1DA801CE010E960E94A14430
:10551000C00ED11E20E030E0A901BE01C701DBD8DA
:10552000892B19F4CE010E94AA1AC62DD72DCA14B0
:10553000DB049CF2C0E0D0E0C4010E9475174BC0B0
:105540000E9460180E94C31F6E877F87888B998B8B
:1055500084E090E0998788873EC06E857F85888942
:1055600099890E94F81F6730E0E87E07E7E08E0720
:10557000E0E89E0719F40E94B71807C06A3972451F
:10558000854E914D11F40E94D218CE010E94AA1AA4
:1055900036C00E94231BBC01990F880B990B0E94F7
:1055A000C31F6E877F87888B998B84E090E09987F3
:1055B000888711C00E945E190E94C31F6E877F8773
:1055C000888B998B84E090E09987888704C0CE010E
:1055D0000E94AA1A14C0209791F020E030E0A9019F
:1055E000BE01C70178D8892B51F4CE010E94AA1AB6
:1055F00006C08FEF8E872CCF8FEF8E87ECCFDF9199
:10560000CF911F910F91FF90EF90DF90CF90BF90BF
:10561000AF909F908F907F906F900895CF93DF937E
:10562000EC018A859B85009711F00E94AA1A1B86BF
:105630001A861C86198218821E821F821886198675
:105640001D861E861F86188A1A821B821C821D8256
:1056500080E090E0DF91CF9108952F923F924F929A
:105660005F926F927F928F929F92AF92BF92CF92F2
:10567000DF92EF92FF920F931F93CF93DF93CDB7FB
:10568000DEB760970FB6F894DEBF0FBECDBF7A8746
:10569000698748EE53E060E070E087E096E00E94A2
:1056A000F617019789F48090090690900A06C401C4
:1056B0000196937090930A068093090687E096E01E
:1056C0000E943018992084F482E690E19F938F9392
:1056D00081E08F930E94461F0F900F900F904EEF26
:1056E0005FEF588B4F8719C1A985BA851C969C918D
:1056F0001C9792959F701D968C9181708295807FEA
:10570000892BD3D48F3F59F4E985FA858485982F66
:1057100092959F70858581708295807F892B8F718E
:10572000C82ED12CE12CF12C0B2EB3E1CC0CDD1CBE
:10573000EE1CFF1CBA95D1F7B02DF3E09F22092C87
:10574000000CAA08BB08A985BA8518962D913C9132
:105750001997C9010596969587959695879596957B
:10576000879590E0A0E0B0E0072E7AE0880F991FBF
:10577000AA1FBB1F7A95D1F7702DE985FA8545855B
:1057800046954F7124013501742A84299529A6294B
:10579000B7292C013D014C285D286E287F284B86B7
:1057A0005C866D867E8639012330310520F0689451
:1057B000662461F8712CA985BA851A966D917D9140
:1057C0008D919C911D970E94C31F1B012C01E9859F
:1057D000FA85808591850E94BB1F29823A824B827F
:1057E0005C829E838D838301112729843A84FEE0A5
:1057F0002F0E311CA801B101CE0107960E94A144D1
:1058000026E0260DAE014F5F5F4F6B857C858D8551
:105810009E850E949210988B8F87892B09F470C007
:105820008BE390E19F938F9381E08F930E94461FBB
:105830000F900F900F9045EF5FEF588B4F876DC023
:10584000801B910BFC018930910510F0E8E0F0E03D
:10585000A985BA851D962C9126952F7124013501B5
:10586000722A689462F84C285D286E287F289F0170
:105870003327A801420F531F5C874B87A101400FBC
:10588000511F0796821B930B969587959695879542
:105890009695879590E0A0E0B0E0072E7AE0880F1B
:1058A000991FAA1FBB1F7A95D1F7702DBC01CD019E
:1058B00064297529862997292E2F0E949210892BF9
:1058C000E9F083E190E19F938F9381E08F930E94B1
:1058D000461FE6E1F2E081899289A389B4890196A5
:1058E000A11DB11D818B928BA38BB48B0F900F9058
:1058F0000F9065EF7FEF788B6F870FC00B851C854E
:10590000A985BA8518968D919C9119970817190742
:1059100008F496CFCD010E94AA1A8F8598896096C7
:105920000FB6F894DEBF0FBECDBFDF91CF911F91B0
:105930000F91FF90EF90DF90CF90BF90AF909F902E
:105940008F907F906F905F904F903F902F90089531
:10595000CF93DF93CDB7DEB72D970FB6F894DEBFA8
:105960000FBECDBF0F2EF9E52F2EF5E03F2EF02D07
:105970000F2EFCE9EF2EF1E1FF2EF02D28EE33E0A3
:1059800040E050E0BE016F5F7F4F80910306909131
:1059900004060E94A717019791F109E515E00F2E63
:1059A000F3E0CF2EF6E0DF2EF02D99249394D8016A
:1059B0001C968C918130E9F40E944E19F8014584BF
:1059C000568467847088DC01CB0184199509A60987
:1059D000B709813D9740A105B10558F0FF92EF92BC
:1059E0009F920E94461F802F912F18DE0F900F90DC
:1059F0000F900F5E1F4FC016D106C9F6BFCF89802A
:105A00009A80AB80BC80EFE5F5E080E090E02681F5
:105A10002130D1F54081518162817381482559251A
:105A20006A257B255370687F7F71452B462B472B5A
:105A300059F521E1289F8001299F100D1124075A53
:105A40001A4F0E944E19D8011D966D937D938D9328
:105A50009C935097D501C401072E72E1B695A79586
:105A6000979587957A95D1F7702DAC01BD0141705E
:105A700055276627772780FF72C0413051056105A1
:105A8000710509F41FC1B5C1019671968A3091055F
:105A900009F0BDCFA2FC4AC0F1018485882309F436
:105AA000B6C1E9E5F5E081E090E0258D211120C047
:105AB00021E1289F8001299F100D1124075A1A4FB8
:105AC00081E0D8011C968C931C97F80186829782FE
:105AD000A086B18612961D921D921D921C9215975A
