:100000000C94C5090C94F5090C94F5090C94521044
:100010000C94F5090C94F5090C94F5090C94F50968
:100020000C94F5090C94F5090C94F5090C94F50958
:100030000C94F5090C94F5090C94F5090C94F50948
:100040000C94F5090C94AA340C94F5090C94F50958
:100050000C94F5090C94F5090C94F5090C94F50928
:100060000C94F5090C946A380C94AD380C94F5098D
:100070000C94F5090C94F5090C94F5090C94F50908
:100080000C94F5090C94F5090C94F5090C94F509F8
:100090000C94F5090C94F5090C94F5090C94F509E8
:1000A0000C94F5090C94F5090C94F5090C94F509D8
:1000B0000C94F5090C94F5090C94F5090C94F509C8
:1000C0000C94F5090C94F5090C94F5090C94F509B8
:1000D0000C94F5090C94F5090C94F5090C94F509A8
:1000E0000C94F509901D921D9C1D941D961D981D44
:1000F000901D9A1DAC2D272F332F9A2FA62FC02F7E
:10010000D12FBE30A630A930AC30AF30B230B530D0
:10011000B830AC13DE137F12E813891293129D12CC
:10012000A712D613D613AF12B712BF12C612CD1232
:10013000D412B613F213E712D813EF12F912011307
:100140000B131313D8131D13271331133913431330
:100150004A13BE13FA135F1369137013DA1379137A
:1001600082138C1392139C13A3131E170B170D17D6
:100170000F1711171317151717173E1740174217A8
:100180004417461748174A174C17504350435043DB
:100190007D4385439343504350437D43854371756D
:1001A000657565206661696C0071756575652066A9
:1001B00061696C0044617461202564203D202578CC
:1001C00000444C43203D202575780D0A00496420E9
:1001D0003D202575780D0A00696D706F7373696233
:1001E0006C6520706F7320256409636F756E7420D1
:1001F0003D2025640D0A0043414E20526563203D99
:1002000020256400546F6F204D616E792046726125
:100210006D6573206F722077726F6E67206F7264E6
:1002200065720025732025640A0063616E2074786E
:10023000206572726F7200465245453A2025700063
:10024000465245453A204275666665722025702003
:10025000696E207573652062792025752075736538
:10026000727300465245453A2042756666657220B3
:10027000616C726561647920667265652025700025
:10028000465245453A20496E76616C696420435375
:10029000502062756666657220706F696E74657253
:1002A00020257000417474656D707420746F206631
:1002B000726565206E756C6C20706F696E74657206
:1002C00000436F72727570742043535020627566DC
:1002D000666572004745543A202570202570004F0E
:1002E0007574206F6620627566666572730041746E
:1002F00074656D707420746F20616C6C6F636174D1
:100300006520746F6F206C6172676520626C6F632B
:100310006B202575005B253032752025705D2053DC
:100320003A25752C202575202D3E2025752C20255D
:1003300075202D3E2025752C20736F636B3A202588
:10034000700A00417474656D707420746F2063725C
:1003500065617465205854454120656E63727970FB
:1003600074656420636F6E6E656374696F6E2C20B4
:10037000627574204353502077617320636F6D70F2
:10038000696C656420776974686F7574205854458A
:100390004120737570706F727400417474656D7074
:1003A0007420746F2063726561746520484D414309
:1003B0002061757468656E74696361746564206337
:1003C0006F6E6E656374696F6E2C20627574204366
:1003D00053502077617320636F6D70696C65642082
:1003E000776974686F757420484D41432073757048
:1003F000706F727400417474656D707420746F2036
:100400006372656174652052445020636F6E6E653F
:100410006374696F6E2C206275742043535020778B
:10042000617320636F6D70696C65642077697468AF
:100430006F75742052445020737570706F72740021
:100440004661696C656420746F206C6F636B206318
:100450006F6E6E20617272617900436F6E6E206103
:100460006C726561647920636C6F736564004E55CE
:100470004C4C20506F696E74657220676976656EAA
:1004800020746F206373705F636C6F7365004E6FD1
:10049000206D6F7265206672656520636F6E6E6594
:1004A0006374696F6E73004661696C656420746F74
:1004B000206C6F636B20636F6E6E20617272617966
:1004C000004E6F206D6F7265206D656D6F727920C3
:1004D000666F7220636F6E6E2073656D6170686FFA
:1004E0007265004661696C656420746F2063726593
:1004F00061746520636F6E6E656374696F6E206CE6
:100500006F636B004E6F206D6F7265206D656D6F50
:10051000727920666F722073706F72742073656DCC
:100520006170686F7265005258207175657565203D
:1005300025702066756C6C2077697468202575209D
:100540006974656D73000000000003836BF2F7703F
:100550003BE1F4F350131F979AC71C14F135E8E7F9
:10056000A126EB64CAD4CF58D98ACCDBB27838281C
:10057000E26B3BAB8999D0CF434DD34C28BF27BF0B
:1005800078AC243C135E6FC75E106C4435E298B7BC
:1005900065F19B340E037050C4D773D3AF25872009
:1005A000FF3684A394C4A09F879AA31CEC6857EFDE
:1005B000BC7B546CD789BF081D5DBC8B76AF487877
:1005C00026BC4BFB4D4EDE8EBD20DD0DD6D229FE66
:1005D00086C12A7DED33C11927E7C29A4C153669C9
:1005E0001C0635EA77F411D664AA12550F58E6A610
:1005F0005F4BE52534B90E41FE6D0DC2959FF93173
:10060000C58CFAB2AE7EB149E330B2CA88C246396F
:10061000D8D145BAB323AEDE79F7AD5D120559AE38
:1006200042165A2D29E47E113ABA7D9251488961C9
:10063000015B8AE26AA96186A07D6205CB8F96F68E
:100640009B9C9575F06EBC1D7B41BF9E10B34B6D9E
:1006500040A048EE2B52A38AE186A0098A7454FA7E
:10066000DA675779B1957345A2CB70C6C93984351D
:10067000992A87B6F2D86CD2380C6F5153FE9BA2E0
:1006800003ED9821681FD3DA2551D0594EA324AA2F
:100690001EB027297542CC4DBF96CFCED4643B3DCA
:1006A000847738BEEF851C82FCDB1F019729EBF2B3
:1006B000C73AE871ACC80315661C00960DEEF465E8
:1006C0005DFDF7E6360F6293C6616110AD9395E369
:1006D000FD80966096727D045CA67E8737548A748E
:1006E000674789F70CB5ADCB1FEBAE4874195ABB01
:1006F000240A59384FF8B25C852CB1DFEEDE452C68
:10070000BECD46AFD53F0D5498710ED7F383FA2472
:10071000A390F9A7C86212C302B611406944E5B3B9
:100720003957E63052A5C20C41FBC18F2A09357CEE
:100730007A1A36FF11E8DD9BDB3CDE18B0CE2AEBDF
:10074000E0DD29688B2F783BF6827BB89D708F4B5C
:10075000CD638CC8A69167AC6C45642F07B790DC5D
:1007600057A4935F3C56B7632F08B4E044FA401394
:1007700014E943907F1BA8F4B5CFAB77DE3D5F84CF
:100780008E2E5C07E5DC17FCA892147FC360E08C1A
:100790009373E30FF881086B32550BE859A7FF1BE1
:1007A00009B4FC986246D8A47118DB271AEA2FD442
:1007B0004AF92C57210BC733EBDFC4B0802D3043EF
:1007C000D03E33C0BBCCA6B54BA2A536205051C5F8
:1007D000704352461BB1B922D165BAA1BA974E52A5
:1007E000EA844DD1817669ED92286A6EF9DA9E9D90
:1007F000A9C99D1EC23B767A08EF75F9631D810A6F
:10080000330E828958FCC97215B2CAF17E403E028D
:100810002E533D8145A1D6E58F75D566E487219598
:10082000B4942216DF66062ACC3805A9A7CAF15A65
:10083000F7D9F2D99C2B19BD56FF1A3E3D0DEECDCE
:100840006D1EED4E06ECC4268DC3C7A5E6313356AA
:10085000B62230D5DDD0DBB11704D8327CF62CC1FE
:100860002CE52F4247170B7E544908FD3FBBFC0E79
:100870006FA8FF8D045A14E9CE8E176AA57CE39900
:10088000F56FE01A9E9DABE1D3D3A862B8215C91CD
:10089000E8325F1283C0B4764914B7F522E6430606
:1008A00072F54085190764B90A59673A61AB93C973
:1008B00031B8904A5A4A7B2E909E78ADFB6C8C5E84
:1008C000AB7F8FDDC08D1AA830E3192B5B11EDD8FB
:1008D0000B02EE5B60F0053FAA2406BCC1D6F24FC6
:1008E00091C5F1CCFA37D5F0E969D673829B2280A5
:1008F000D2882103B97ACA6773AEC9E4185C3D1780
:10090000484F3E9423BD756F6EF376EC0501821F50
:100910005512819C3EE06AF8F434697B9FC69D883D
:10092000CFD59E0BA427BA37B779B9B4DC8B4D4726
:100930008C984EC4E76AA5A02DBEA623464C52D083
:10094000165F51537DAD4572726F722052657365AB
:10095000740A0043535020524553455420257300D8
:100960000D0A00252E3166256300252D35732020C4
:100970002074783A202530356C752072783A20251D
:1009800030356C75207478653A202530356C7520CB
:100990007278653A202530356C750D0A20202020AC
:1009A0002020202064726F703A202530356C75202D
:1009B000617574686572723A202530356C752066F1
:1009C00072616D653A202530356C750D0A20202046
:1009D00020202020207478623A20256C752028255C
:1009E0007329207278623A20256C75202825732996
:1009F0000D0A0D0A004661696C656420746F2073EE
:100A0000656E642043414E206672616D6520696E9B
:100A10002054782063616C6C6261636B004661698D
:100A20006C656420746F2073656E642043414E20B2
:100A30006672616D6520696E206373705F74785FA4
:100A400063616E004661696C656420746F20676540
:100A50007420434650206964656E746966696361F9
:100A600074696F6E206E756D62657200436F756C90
:100A700064206E6F7420696E697469616C697A654F
:100A8000204346502069642073656D6170686F7201
:100A90006500526563656976656420756E6B6E6F7F
:100AA000776E20434650206D6573736167652074CF
:100AB00079706500525820627566666572206F769F
:100AC0006572666C6F770043414E206672616D659A
:100AD000206C6F737420696E2043535020706163E3
:100AE0006B6574004661696C656420746F2067658E
:100AF000742062756666657220666F72204353507B
:100B00005F424547494E207061636B657400496ED2
:100B1000636F6D706C657465206672616D650053FE
:100B2000686F727420424547494E206672616D6558
:100B3000207265636569766564004F7574206F6621
:100B4000206F72646572204D4F5245206672616D50
:100B500065207265636569766564004E6F20617615
:100B600061696C61626C65207061636B65742062A1
:100B7000756666657220666F722043414E00434180
:100B80004E2042756666657220656C656D656E7493
:100B90002074696D6564206F7574004661696C65C9
:100BA0006420746F20696E697469616C697A65206C
:100BB00043414E20647269766572004661696C65D6
:100BC0006420746F20696E69742043414E2052582E
:100BD000207461736B004661696C656420746F20DA
:100BE0006372656174652043414E205258207175CF
:100BF00065756500556E6B6E6F776E2043414E20B4
:100C00006D6F6465004661696C656420746F20696E
:100C10006E697469616C697A652043414E2069642C
:100C2000656E74696669636174696F6E206E756D57
:100C300062657200496E76616C69642063616C6CF8
:100C400020746F206373705F73656E640041747409
:100C5000656D707420746F2073656E642058544500
:100C60004120656E63727970746564207061636B96
:100C700065742C2062757420435350207761732073
:100C8000636F6D70696C656420776974686F7574E3
:100C9000205854454120737570706F72742E204433
:100CA000697363617264696E67207061636B6574F8
:100CB00000435243333220617070656E6420666178
:100CC000696C65642100417474656D707420746F83
:100CD0002073656E64207061636B6574207769743E
:100CE0006820484D41432C206275742043535020A6
:100CF00077617320636F6D70696C656420776974C8
:100D0000686F757420484D414320737570706F7221
:100D1000742E2044697363617264696E6720706128
:100D2000636B6574004F55543A20532025752C2071
:100D3000442025752C2044702025752C20537020CC
:100D400025752C2050722025752C20466C2030787B
:100D5000253032582C20537A202575205649413AA7
:100D6000202573004E6F20726F75746520746F209C
:100D7000686F73743A202523303878006373705F8E
:100D800073656E645F6469726563742063616C6C23
:100D900065642077697468204E554C4C20706163FF
:100DA0006B657400496E76616C696420736F636B68
:100DB0006574206F7074696F6E00417474656D7036
:100DC0007420746F2063726561746520736F636B48
:100DD00065742074686174207265717569726573D9
:100DE00020484D41432C2062757420435350207796
:100DF000617320636F6D70696C65642077697468D6
:100E00006F757420484D414320737570706F727414
:100E100000417474656D707420746F206372656135
:100E2000746520736F636B657420746861742072DD
:100E30006571756972657320585445412C2062753F
:100E400074204353502077617320636F6D70696C19
:100E5000656420776974686F757420585445412023
:100E6000737570706F727400417474656D70742066
:100E7000746F2063726561746520736F636B657452
:100E8000207468617420726571756972657320528F
:100E900044502C2062757420435350207761732096
:100EA000636F6D70696C656420776974686F7574C1
:100EB0002052445020737570706F72740042696ED6
:100EC00064696E6720736F636B657420257020748E
:100ED0006F20706F727420257500506F727420251A
:100EE0006420697320616C726561647920696E2089
:100EF000757365004F6E6C7920706F727473206625
:100F0000726F6D20302D25752028616E642043534B
:100F1000505F414E5920666F722064656661756C42
:100F200074292061726520617661696C61626C650B
:100F300020666F7220696E636F6D696E6720706FD7
:100F4000727473004552524F523A20526F75746951
:100F50006E6720696E707574204649464F2069732C
:100F60002046554C4C2E2044726F7070696E67207D
:100F70007061636B65742E006373705F6E657720BC
:100F80007061636B65742063616C6C656420776964
:100F90007468204E554C4C20696E746572666163AE
:100FA00065006373705F6E6577207061636B657455
:100FB0002063616C6C65642077697468204E554CC1
:100FC0004C207061636B65740025732025640A00F2
:100FD0004661696C656420746F207374617274205B
:100FE000726F75746572207461736B00526563650E
:100FF00069766564207061636B65742077697468D5
:101000006F75742043524333322E20416363657001
:1010100074696E67207061636B657400435243337B
:101020003220766572696669636174696F6E2065E6
:1010300072726F72212044697363617264696E67B2
:10104000207061636B657400546F6F2073686F72FA
:1010500074207061636B657420666F722043524325
:1010600033322C20257500526563656976656420EE
:10107000524450207061636B65742C20627574203B
:101080004353502077617320636F6D70696C6564A2
:1010900020776974686F757420524450207375709E
:1010A000706F72742E2044697363617264696E6735
:1010B000207061636B657400526563656976656471
:1010C000207061636B6574207769746820484D41B6
:1010D000432C206275742043535020776173206342
:1010E0006F6D70696C656420776974686F757420C2
:1010F000484D414320737570706F72742E2044699F
:101100007363617264696E67207061636B657400FC
:101110005265636569766564205854454120656E63
:1011200063727970746564207061636B65742C20E0
:10113000627574204353502077617320636F6D7024
:10114000696C656420776974686F757420585445BC
:101150004120737570706F72742E204469736361DF
:101160007264696E67207061636B6574004E6F20F6
:101170006D6F726520636F6E6E656374696F6E73F9
:1011800020617661696C61626C6500436F6E6E2DE3
:101190006C65737320736F636B657420717565750F
:1011A000652066756C6C00526F757465722066619F
:1011B000696C656420746F2073656E6400494E50DD
:1011C0003A20532025752C20442025752C2044706E
:1011D0002025752C2053702025752C205072202539
:1011E000752C20466C203078253032582C20537ACC
:1011F000202575205649413A202573002020202AB9
:101200002020252D3973202025750D0A00253475E1
:101210002020252D3973202025750D0A004E6F647E
:10122000652020496E7465726661636520204164A3
:1012300064726573730D0A004661696C656420749D
:101240006F2073657420726F7574653A20696E76CD
:10125000616C6964206E6F64652069642025750087
:10126000506F73743A20257000576169743A2025D5
:101270007000534552564943453A2050696E6720E5
:101280007265636569766564001B5B25753B257532
:101290006D004661696C656420746F2073687574B5
:1012A000646F776E004661696C656420746F2072AC
:1012B00065626F6F74005761726E696E6720736F3D
:1012C000636B657420636F6E6E656374696F6E2007
:1012D00071756575652066756C6C00436F6E6E6523
:1012E0006374696F6E2062756666657220717565DC
:1012F00075652066756C6C210025732025640A00D5
:101300004572726F722052657365740A00556E657E
:101310007820566563746F720050696E672072653D
:1013200073756C74202564205B6D735D0D0A00502D
:10133000696E67204661696C65640A005350203D00
:10134000203078253034780A0025732025640A007F
:10135000496E74657266616365730D0A00526F753C
:101360007465207461626C650D0A00436F6E6E20B7
:101370007461626C650D0A00536574757020457266
:10138000726F720025640000CC0C11241FBECFEFD9
:10139000D1E2DEBFCDBF00E00CBF13E0A0E0B2E0C1
:1013A000E0EDF5E900E00BBF02C007900D92AE3111
:1013B000B107D9F720E2AEE1B3E001C01D92AF372B
:1013C000B207E1F719E0C5ECD9E000E006C02197CB
:1013D0000109802FFE010E940145C43CD10780E035
:1013E0000807A9F79AD50C94E64A97C68F929F9260
:1013F000AF92BF92CF92DF92EF92FF920F931F9323
:10140000CF93DF936B017C0149015A010FB6F89429
:101410000F920E94D01680EF93E0ACD7D82F6FE0E8
:1014200080EF93E00E94091481110BC081E090E0ED
:10143000D11102C080E090E0CC27DD27C81BD90B7A
:1014400002C0CFEFDFEF9501840141E060E080EF63
:1014500093E00E945C14882311F0CFEFDFEF950139
:10146000840141E061E080EF93E00E945C148823F6
:1014700011F0CFEFDFEF9701860141E060E080EFF0
:1014800093E00E949E14882311F0CFEFDFEF9701C5
:10149000860141E062E080EF93E00E949E14882381
:1014A00011F0CFEFDFEF80EF93E00E945B12882313
:1014B00011F0CFEFDFEF0F900FBECE01DF91CF9194
:1014C0001F910F91FF90EF90DF90CF90BF90AF9062
:1014D0009F908F900895CF92DF92EF92FF920F939B
:1014E0001F93CF93DF93CDB7DEB7CDB6DEB6EDB7A2
:1014F000FEB777970FB6F894FEBF0FBEEDBFEDB6FF
:10150000FEB6F8E0EF0EF11C38EFE3220FB6F894C8
:101510000F92DC01CB01B068F70180839183A28335
:10152000B3832483222309F43FC0A42FB52F389618
:1015300030E0285F3F4F2E0D3F1D8D918193E217C4
:10154000F307D9F731C080EF93E00E94CC168111E8
:1015500016C08FE891E00197F1F700C00000A701E5
:1015600060E080EF93E00E94041501E010E081113B
:1015700002C000E010E011950195110905C001506D
:10158000110909F700E010E00F900FBE01151105D9
:1015900071F08AE292E09F938F931F920E94701DD8
:1015A0000F900F900F9003C008E010E0CCCFC8015F
:1015B0000FB6F894DEBE0FBECDBEDF91CF911F9166
:1015C0000F91FF90EF90DF90CF900895CF93DF932E
:1015D00000D01F921F92CDB7DEB75298E9E6F0E037
:1015E000808180628083EA9A80EF93E00E94A9164E
:1015F00021E029831A820F2EF4EB2F2EF1E03F2EEB
:10160000F02D80EF93E00E94A91680E090E00E9408
:10161000A13E8B839D8380E090E00E94873B3D81CB
:101620003F934B814F939F938F9383E292E09F93DD
:101630008F9382E08F930E94701D80E090E00E9463
:1016400044410FB6F8940F9286E091E0FDD10FB6B9
:10165000F894DEBF0FBECDBF00E010E00F2EF6E025
:10166000FF2EF02D512C12D2892BB1F5452D50E0D3
:101670005C834B83BA0162957295707F7627607F99
:10168000762760587C4F80EF93E00E947516811199
:101690001EC00115110509F462C119C0511015C011
:1016A000072E7AE0B695A795979587957A95D1F705
:1016B000702DF82E56E0581720F007C0511005C0C5
:1016C0000EC009811A81552453945394DAD1F5142C
:1016D00050F680E090E005C080E090E002C081E03C
:1016E00090E00F900FBE012B11F4892B59F084E08C
:1016F00092E09F938F931F920E94701D0F900F9006
:101700000F907FCFC52CD12C1F925F9287EF91E075
:101710009F938F9382E08F930E94701D0F900F9084
:101720000F900F900F901C141D040CF0A5C080E8C2
:1017300093E00F2EF8E88F2EF3E09F2EF02DA12CD2
:10174000B12C9C838B830B811C81F801808191815A
:10175000A281B381072E7AE0B695A79597958795D4
:101760007A95D1F7702DE82FE0954E2E450C451453
:1017700008F44FC0DF92CF921F924F9228ED31E0D4
:101780003F932F931F920E94701DEB81FC818381F8
:101790008F9382818F9381818F9380818F932DECA2
:1017A00031E03F932F931F920E94701DEB81FC81CB
:1017B00084811F928F9321EC31E03F932F931F92EE
:1017C0000E94701DEB81FC8184810FB6F894DEBF0E
:1017D0000FBECDBF8823E9F07401612C712CF70195
:1017E00081917F011F928F937F926F923F922F92F0
:1017F0001F920E94701DFFEF6F1A7F0AF80184810B
:1018000090E00FB6F894DEBF0FBECDBF6816790624
:1018100034F35DE0549DF0011124AF01425E5C4F52
:10182000F80180819181A281B381FA018083918343
:10183000A283B383F8012481FA012483222369F06F
:101840003DE0349DF0011124ED5DFC4FD40180E0BA
:101850009D9191938F5F2813FBCF9FEFA91AB90A2F
:10186000EB81FC817096FC83EB83F0E18F0E911C81
:10187000CA14DB0409F067CF0FB6F8940F921C145A
:101880001D04F4F50EE113E01C821B82760121E0B9
:10189000E21AF1080F2EF6E0BF2EF02D8B819C810D
:1018A000E816F90691F466E872E0C8010E949823F0
:1018B000892BE1F0E9EAF1E0FF93EF93BF920E94F8
:1018C000701D0F900F900F9011C060E070E0C80184
:1018D0000E949823892B51F04EE951E05F934F937A
:1018E000BF920E94701D0F900F900F90EB81FC81B2
:1018F0003196FC83EB83035F1F4FCE16DF0671F634
:101900000F900FBE8EE193E020E833E03C832B8301
:1019100029E733E0FC011082118212821382EB81ED
:10192000FC811082118212821382FC011482EB81ED
:10193000FC811482DC01159638964B815C81405FF6
:101940005F4F5C834B831D9211924B815C81E41746
:10195000F507C9F70D9682179307E1F652CE8B81F2
:101960009C8182959295907F9827807F98278058B8
:101970009C4FFC0180819181A281B381AC01BD01AA
:10198000032E32E176956795579547953A95D1F7AD
:10199000302D40FF83CE92CE80EF93E00AC40895AD
:1019A0008AB1806E8AB981E090E090937506809349
:1019B000740608952091740630917506232BC1F1A9
:1019C0006130710539F06230710531F0672B31F407
:1019D00025E005C026E003C027E001C020E08130FB
:1019E000910581F082309105C1F0892B09F53BB159
:1019F00081E090E002C0880F991F2A95E2F78327C3
:101A00008BB908953BB181E090E002C0880F991F27
:101A10002A95E2F7832B8BB908953BB181E090E0E2
:101A200002C0880F991F2A95E2F7809583238BB90E
:101A30000895E4E6F0E0808180668083E5E6F0E0EA
:101A400080818F63808308959C01F894E5E6F0E03F
:101A50009081977F908310929000E1E9F0E01082EE
:101A60001092950010929400309399002093980062
:101A7000808188608083808184608083C19A78942B
:101A800008951092950010929400089528B321FBB8
:101A9000882780F990E021FF11C0F89410929000FF
:101AA000109291001092950010929400C198E5E672
:101AB000F0E0808188608083789481E00895CF93FE
:101AC000DF93CDB7DEB7A8970FB6F894DEBF0FBE91
:101AD000CDBF60E070E0CB010E94DC245C0160E2DD
:101AE0000E9441276AE070E0C5010E9425270F2E61
:101AF000F9EFCF2EF2E1DF2EF02D6894552451F846
:101B0000CE0101969CA38BA33E0199E0690E711C46
:101B10000F2EFEEF2F2EF02DEBA1EDA3FCA1FEA3C7
:101B200033243394412C83E28FA318A680E090E005
:101B30000E94A13E182F092F80E090E00E94873B71
:101B40000F931F939F938F93DF92CF925F920E9488
:101B5000701D40E157E260E070E0C5010E94492538
:101B60008C010FB6F894DEBF0FBECDBF892BF1F20A
:101B700040E050E0BA01C8010E946E257C01892B2B
:101B800009F462C0C8010E94131C4F9709F057C0A6
:101B9000F70186858130B9F028F0823089F18330F1
:101BA000A1F138C080E0F7018687811109C082E287
:101BB000EDA1FEA1D7011F9601900D928A95E1F744
:101BC0009FA188A52BC088E0F7013F96ADA1BEA1DB
:101BD00001900D928A95E1F7CE0101964C01F40136
:101BE000808191810E94EB1DF401819391934F01BB
:101BF000E615F705A1F7F7011686932D842D0EC083
:101C0000F7011686932D842D09C0F7011686932DB2
:101C1000842D04C0F7012686932D842DF70190872B
:101C2000818720E030E0A901B701C8010E94A42605
:101C3000892B09F09DCFC7010E94C01899CFB70129
:101C4000C8010E948F2D94CFC8010E94FA1A6ECF4E
:101C5000E5E0F1E0808180648083E2E0F1E0808172
:101C600080648083E4E0F1E080818F7B8083E1E029
:101C7000F1E08081806480830895E1E0F1E080817B
:101C80008F7B80830895E1E0F1E080818064808330
:101C90000895E4E0F1E080818F7B80830895E4E0A3
:101CA000F1E08081806480830895E5E0F1E0808147
:101CB00080628083EBE0F1E0808180628083E4E0F9
:101CC000F1E080818F7D8083EAE0F1E080818062B5
:101CD00080830895EAE0F1E080818F7D808308951C
:101CE000EAE0F1E08081806280830895E4E0F1E041
:101CF00080818F7D80830895E4E0F1E080818062BF
:101D0000808308950895089508950895089580E4BE
:101D100080937C0084E880937A0010927B008FE0AF
:101D200080937E000895DC010FB6F8940F92ECE7E3
:101D3000F0E08081807F83608083EAE7F0E080814B
:101D400080648083908196FDFDCFECE7F0E0908188
:101D5000907F92609083EAE7F0E0808180648083E6
:101D6000908196FDFDCF8091780090917900139637
:101D70009C938E931297ECE7F0E09081907F9160B6
:101D80009083EAE7F0E0808180648083908196FD13
:101D9000FDCF809178009091790015969C938E9359
:101DA0001497ECE7F0E08081807F8083EAE7F0E041
:101DB000808180648083908196FDFDCF8091780042
:101DC0009091790017969C938E9316970F900FBE63
:101DD0000895EF92FF920F931F933ADF66DF0F2E65
:101DE000F6E7EF2EF6E0FF2EF02D02E010E020E007
:101DF00030E04EE051E06AEB72E08FE59DE00E943A
:101E0000EC3021E0892B09F420E0822F81951F918D
:101E10000F91FF90EF900895A8959DE088E10FB68F
:101E2000F894A895809360000FBE90936000A895E9
:101E300084E190E00E94AE3C60E070E080E090E0E1
:101E4000B9DDF5CF0F2EF9E4AF2EF3E1BF2EF02D63
:101E500012E00F2EFCE3CF2EF3E1DF2EF02D0F2E3C
:101E6000FFE28F2EF3E19F2EF02D0F2EF9E1EF2EE2
:101E7000F3E1FF2EF02D80E090E00E94A13EC82FFC
:101E8000D92F80E090E00E94873BDF93CF939F9310
:101E90008F93BF92AF921F930E94701D84E690E0D3
:101EA0000E94AE3CEDB7FEB7808191819F938F93E6
:101EB000DF92CF921F930E94701D00E02AE030E075
:101EC00044E650E060E070E081E00E94D62CEC0136
:101ED0008DB79EB70C960FB6F8949EBF0FBE8DBF00
:101EE000CF3F9FEFD90741F49F928F921F920E949C
:101EF000701D0F900F900F90DF93CF93FF92EF9292
:101F00001F930E94701D84E690E00E94AE3C0F90EB
:101F10000F900F900F900F90AECFCF92DF92EF9275
:101F2000FF920F931F93CF93DF931F921F92CDB712
:101F3000DEB783E090E0BFD760E070E083E797E131
:101F40000E94CD459DE088E10FB6F894A895809356
:101F500060000FBE9093600023DD62E370E084E0D8
:101F600090E0CDD76C0186E00E94B624C80ED91E41
:101F70006CE772E080E00E94AA23C80ED91E2FEF02
:101F800042E152E065E080E20E94B82BC80ED91E03
:101F900061E070E084EB90E00E944E2BC80ED91EE9
:101FA00018DFC81AD10887FDD394DF92CF9284E856
:101FB00093E19F938F930E942A46CE0101967C0164
:101FC00001E010E020E030E04CED50E064ED72E024
:101FD00082E29FE00E94EC30C80ED91E0F2EF8EE70
:101FE000EF2EFFE1FF2EF02D03E010E020E030E0C7
:101FF00044EB50E06BED72E086EE9AE00E94EC302C
:102000008C0D9D1D0F900F900F900F90892B81F0DC
:1020100062E070E081E090E0CDDC88E793E19F939F
:102020008F9386E08F930E94701D0F900F900F90FA
:102030008BE693E19F938F930E942A460E94201C77
:102040008DE593E19F938F930E942A460E94EE2B89
:1020500080E593E19F938F930E942A460E94F01E91
:10206000E12CF12C03E020E030E044E650E061EEAA
:1020700072E08CE09FE00E949A390E94493B0F90E9
:102080000F900F900F900F900F9080E090E00F90C6
:102090000F90DF91CF911F910F91FF90EF90DF9004
:1020A000CF9008951F920F920FB60F9211240BB686
:1020B0000F922F933F934F935F936F937F938F93E1
:1020C0009F93AF93BF93EF93FF93CF93DF931F92B1
:1020D000CDB7DEB7D8988091E81F9091E91F0E9494
:1020E000F23A89838981813011F40E94E6330F909E
:1020F000DF91CF91FF91EF91BF91AF919F918F9120
:102100007F916F915F914F913F912F910F900BBEF7
:102110000F900FBE0F901F9018951F920F920FB641
:102120000F9211248DE093E19F938F930E942A4692
:102130000E94743B80E093E19F938F930E942A4614
:102140000F900F900F900F90FFCF81E08093EA1FC8
:102150008091F11F882399F08FB7F8949091F11F27
:10216000913059F49DB39093EF1F2DB39091F01FD0
:10217000909592239DBB8FBF02C08093EF1F80E597
:102180008CBD81E08DBD2C9808952C9A8091F11F13
:10219000882371F09FB7F8948091F11F813029F462
:1021A0008091EF1F8DBB9FBF08958091EF1F8FBF60
:1021B0000895CF93DF93EC01F3D5249ACE01E5DFA8
:1021C000DF91CF9108951F93CF93DF93EC01162FEA
:1021D000BCDF83E08EBD00000DB407FEFDCF8EB5E1
:1021E0001EBD00000DB407FEFDCF8EB51EBC000065
:1021F0000DB407FEFDCF1EB5CE01C7DF812FDF91E5
:10220000CF911F910895EF92FF920F931F93CF9359
:10221000DF93EC01062F7A01122F97DF83E08EBD4A
:1022200000000DB407FEFDCF8EB50EBD00000DB44D
:1022300007FEFDCF8EB5112391F0F7011150412F0C
:1022400050E04F5F5F4F4E0D5F1D1EBC00000DB490
:1022500007FEFDCF8EB58193E417F507B1F7CE01E8
:1022600094DFDF91CF911F910F91FF90EF90089530
:102270000F931F93CF93DF93EC01062F142F65DF8D
:1022800082E08EBD00000DB407FEFDCF8EB50EBD01
:1022900000000DB407FEFDCF8EB51EBD00000DB4CD
:1022A00007FEFDCF8EB5CE0170DFDF91CF911F917C
:1022B0000F910895EF92FF920F931F93CF93DF93A7
:1022C000EC01062F7A01122F40DF82E08EBD000064
:1022D0000DB407FEFDCF8EB50EBD00000DB407FE98
:1022E000FDCF8EB5112391F0F7011150412F50E031
:1022F0004F5F5F4F4E0D5F1D81918EBD00000DB48D
:1023000007FEFDCF8EB5E417F507B1F7CE013DDF2F
:10231000DF91CF911F910F91FF90EF900895FF9261
:102320000F931F93CF93DF93EC01F62E042F122F00
:102330000CDF85E08EBD00000DB407FEFDCF8EB52D
:10234000FEBC00000DB407FEFDCF8EB50EBD000033
:102350000DB407FEFDCF8EB51EBD00000DB407FE07
:10236000FDCF8EB5CE0111DFDF91CF911F910F917F
:10237000FF900895EF92FF920F931F93CF93DF93F7
:10238000CDB7DEB72E970FB6F894DEBF0FBECDBF28
:102390008C01DBDE80EC8EBD00000DB407FEFDCFAE
:1023A0008EB5C801F2DE8FE39CE90197F1F700C01A
:1023B0000000FE0131967F018EE011928A95E9F7C7
:1023C0002EE0A70160E3C80175DF2EE0A70160E4FD
:1023D000C80170DF2EE0A70160E5C8016BDF40E0B7
:1023E00060E6C80145DF40E060E7C80141DF43E047
:1023F0006BE2C8013DDF24E044E660E6C8018FDF00
:1024000020E040E660E7C8018ADF80E02E960FB644
:10241000F894DEBF0FBECDBFDF91CF911F910F911A
:10242000FF90EF9008951F93CF93DF93EC018DDE23
:1024300080EA8EBD00000DB407FEFDCF8EB51EBC38
:1024400000000DB407FEFDCF1EB5CE019EDE812F2C
:10245000DF91CF911F9108950F931F93CF93DF9337
:10246000EC01162F0FB7262F40EE6FE058DF78945F
:1024700080E792E0E9DA0ADB019641F06EE0CE01F6
:10248000A2DE807E1813F7CF91E001C090E00FBF6D
:1024900081E08927DF91CF911F910F91089560E826
:1024A000DBCF089560E6D8CF089560E2D5CF0895D8
:1024B00060E4D2CF089560E0CFCF0895EF92FF920D
:1024C0000F931F93CF93DF93EC01162F042FE7DFB9
:1024D000811198C1013009F46DC008F4E2C00230E6
:1024E00009F038C1812F90E08031910508F05EC17C
:1024F000FC018827E757FF4F8F4F0C94014517E8E1
:102500000F2EFFEBEF2EF02D0F2EF7E0FF2EF02D0C
:102510003FC115E80F2EF2EEEF2EF02D0F2EF7E44F
:10252000FF2EF02D35C117E80F2EFFEBEF2EF02D0B
:102530000F2EF3E0FF2EF02D2BC116E80F2EF4EB3B
:10254000EF2EF02D0F2EF3E0FF2EF02D21C117E816
:102550000F2EFFEBEF2EF02DFF24F39419C116E898
:102560000F2EF4EBEF2EF02DFF24F39411C115E89C
:102570000F2EF1EBEF2EF02DFF24F39409C116E896
:102580000F2EF4EBEF2EF02DF12C02C115E80F2EDB
:10259000F1EBEF2EF02DF12CFBC012E80F2EF0E93D
:1025A000EF2EF02DF12CF4C010E86894EE24E7F83B
:1025B000F12CEEC0812F90E08031910508F0F8C039
:1025C000FC018827E756FF4F8F4F0C94014517E811
:1025D000EE24EA940F2EFFE0FF2EF02DD9C015E86F
:1025E0000F2EF1EFEF2EF02D0F2EFEE4FF2EF02D2B
:1025F000CFC017E8EE24EA940F2EF7E0FF2EF02D5F
:10260000C7C017E80F2EFAEFEF2EF02D0F2EF7E0D0
:10261000FF2EF02DBDC017E8EE24EA940F2EF3E054
:10262000FF2EF02DB5C017E00F2EFEEBEF2EF02D94
:102630000F2EF3E0FF2EF02DABC017E80F2EFAEFB0
:10264000EF2EF02D0F2EF3E0FF2EF02DA1C016E897
:102650000F2EF0EFEF2EF02D0F2EF3E0FF2EF02DCA
:1026600097C017E80F2EFAEFEF2EF02DFF24F3940A
:102670008FC015E80F2EF1EFEF2EF02D0F2EF1E4A5
:10268000FF2EF02D85C016E80F2EF0EFEF2EF02D67
:10269000F12C7EC012E80F2EF0EDEF2EF02DF12C74
:1026A00077C0812F90E0FC013497EC30F10508F001
:1026B00081C08827E755FF4F8F4F0C94014517E8DD
:1026C0000F2EFAEFEF2EF02D0F2EF9E0FF2EF02D4A
:1026D0005FC017E8EE24EA946894FF24F2F858C02B
:1026E00017E80F2EFEEFEF2EF02D6894FF24F2F87E
:1026F0004FC017E80F2EFAEFEF2EF02D6894FF244D
:10270000F2F846C017E80F2EFAEFEF2EF02D0F2E3D
:10271000F3E0FF2EF02D3CC017E8EE24EA94FF24EE
:10272000F39436C016E80F2EFBEFEF2EF02D0F2E90
:10273000F1E4FF2EF02D2CC017E80F2EFAEFEF2E4C
:10274000F02DF12C25C012E80F2EF9EDEF2EF02D13
:10275000F12C1EC080E019C00F2EFFEBEF2EF02DE4
:102760000F2EFFE1FF2EF02D81E00FC0EE24EA9442
:102770000F2EFFE3FF2EF02D81E007C0EE24EA9438
:102780000F2EFBE0FF2EF02D81E08823A9F017E843
:102790004F2D6AE2CE016CDD4E2D69E2CE0168DD7F
:1027A000412F68E2CE0164DD80E02CC081E02AC0C8
:1027B00081E028C081E026C081E024C017E80F2E08
:1027C000FFEBEF2EF02D0F2EFFE0FF2EF02DE0CFD0
:1027D00014E80F2EF4EAEF2EF02D0F2EF7E0FF2E67
:1027E000F02DD6CF17E8EE24EA940F2EFFE1FF2E4E
:1027F000F02DCECF17E8EE24EA940F2EF9E0FF2E4D
:10280000F02DC6CFDF91CF911F910F91FF90EF90E8
:10281000089541E053CE0895CF93DF93EC016F3FCD
:1028200051F420E044E06FE07ADD20E840E868E21F
:10283000CE0175DD0EC0262F43E06FE070DD24E091
:1028400044E06FE0CE016BDD20E040E868E2CE01BD
:1028500066DD80E0DF91CF9108950F931F93FB0118
:102860004423C9F003831283890122273327802F51
:102870008C71880F880F880F902F9370890F886054
:10288000818316950795129502950F7001271F7089
:10289000012700830EC0C801969587959695879568
:1028A0009695879580830295000F007E01831382A1
:1028B00012821F910F9108958F929F92AF92BF92B3
:1028C000CF92DF92EF92FF920F931F93CF93DF93FC
:1028D00000D01F92CDB7DEB77C01D62EC42E4801A2
:1028E0005901DDDD811119C0950184014C2DBE0116
:1028F0006F5F7F4FC701B1DFDD2029F081E0D81283
:102900000BC064E201C060E224E0AE014F5F5F4FA4
:10291000C701D0DC80E001C081E00F900F900F90E4
:102920000F90DF91CF911F910F91FF90EF90DF906B
:10293000CF90BF90AF909F908F9008958F929F926D
:10294000AF92BF92CF92DF92EF92FF920F931F93BD
:10295000CF93DF9300D01F92CDB7DEB76C01F62E78
:10296000E42E480159019BDD81113DC082E0F8163B
:10297000A9F08F1530F0FF2019F181E0F81651F021
:1029800031C084E0F81691F0F81660F085E0F81692
:1029900091F028C06894FF24F2F813C06894FF24D3
:1029A000F3F80FC06894FF24F4F80BC00F2EF4E185
:1029B000FF2EF02D06C00F2EF8E1FF2EF02D01C0E6
:1029C000F12C950184014E2DBE016F5F7F4FC60132
:1029D00044DF24E0AE014F5F5F4F6F2DC6016ADC1C
:1029E00080E001C081E00F900F900F900F90DF9179
:1029F000CF911F910F91FF90EF90DF90CF90BF90FC
:102A0000AF909F908F9008954F925F926F927F92B8
:102A1000AF92BF92CF92DF92EF92FF920F931F93EC
:102A2000CF93DF93CDB7DEB72D970FB6F894DEBF07
:102A30000FBECDBF5C016A01E62EF12CFA010081C8
:102A4000118122813381B901A801442777FD439583
:102A50005527662777272801390144245524662401
:102A6000F0E47F2233232CF08FEF97E0A0E0B0E07A
:102A700004C08FEF9FEFAFEFBFE1082319232A2394
:102A80003B23BE016F5F7F4FC501E7DE4528462827
:102A9000472821F0F6018481806402C0F601848118
:102AA0008D83F6011481412F50E0B601685F7F4F9E
:102AB000CE0106960E948E4525E0210F8701000F6A
:102AC000111F0E0D1F1D0E501D4FAE014F5F5F4FAA
:102AD000F8016181C501EEDB28E048E0F801608182
:102AE000C5011DDC80E02D960FB6F894DEBF0FBE49
:102AF000CDBFDF91CF911F910F91FF90EF90DF90AD
:102B0000CF90BF90AF907F906F905F904F9008955F
:102B10009F92AF92BF92CF92DF92EF92FF920F936C
:102B20001F93CF93DF9300D0CDB7DEB76C01FB01CD
:102B30009481993048F57B01198281E08A8382E093
:102B40008B838E010F5F1F4F5E01F4E0AF0EB11C4F
:102B5000F80191908F01292D30E0F901EE0FFF1F50
:102B60002E0F3F1FF901EE50FD4F6081C6012BDB98
:102B700083FD05C0A701692DC60146DF06C00A1501
:102B80001B0531F784E001C084E00F900F900F9097
:102B9000DF91CF911F910F91FF90EF90DF90CF9039
:102BA000BF90AF909F9008957F928F929F92AF9227
:102BB000BF92CF92DF92EF92FF920F931F93CF932A
:102BC000DF9300D01F921F92CDB7DEB75C014A01A0
:102BD000062F10E0F801EE0FFF1FEE0FFF1FE6516A
:102BE000FD4F25E0AE014F5F5F4F61810CDB8A81B5
:102BF0009981C82ED12CD594C794D594C794D594D7
:102C0000C794D594C794D594C79428E0929FC00CDC
:102C1000D11C11240D2C000CEE08FF0883FF21C0ED
:102C2000CC0CDD1CEE1CFF1CCC0CDD1CEE1CFF1CB8
:102C30008370C80ED11CE11CF11CFE2CED2CDC2C89
:102C4000CC248B81C80ED11CE11CF11CFE2CED2C78
:102C5000DC2CCC248C81C80ED11CE11CF11C6894A6
:102C6000F7F88D818F70782E88E0871550F1F80184
:102C7000EE0FFF1FEE0FFF1FE651FD4F6081C501F4
:102C8000A2DA83FF02C06894F6F8F401C082D18210
:102C9000E282F3827482A401485F5F4F000F111F2C
:102CA000000F111F06511D4F272DF8016281C5012C
:102CB000AADA20E0F80143816CE2C50130DB80E054
:102CC00001C081E00F900F900F900F900F90DF9157
:102CD000CF911F910F91FF90EF90DF90CF90BF9019
:102CE000AF909F908F907F9008950F931F93CF93F5
:102CF000DF93EC018B0197DB80FF05C0A80160E04A
:102D0000CE0152DF08C081FF05C0A80161E0CE01FD
:102D10004BDF01C085E0DF91CF911F910F910895A6
:102D200082DB982F937081E009F480E008956DE2D2
:102D30004ACA0895FCDF982F987F81E009F480E06B
:102D4000089520E040EC6DE2EACA08956CE23BCAC7
:102D5000089540E06CE28CCA08956BE234CA08958D
:102D600020E04CE16CE2DBCA0895CF93DF93EC01E5
:102D7000DEDF882321F0CE01E4DFCE01EADFDF9140
:102D8000CF91089520E040E86CE2C9CA089520E0A0
:102D900040E26CE2C4CA089560E315DA80E0089569
:102DA0009FB7F8948091F21F81110FC0249A209A46
:102DB000289A2C9A219A229A8CB580618CBD8CB568
:102DC00080648CBD8CB583608CBD8091F21F8F5F59
:102DD0008093F21F9FBF08959FB7F8948091F21FD0
:102DE000882329F081508093F21F811105C08CB592
:102DF0008F7B8CBD1092F11F9FBF08952FB7F89461
:102E000090E088309105A8F4FC018827EB54FF4F2F
:102E10008F4F0C94014580E212C081E010C082E027
:102E20000EC084E00CC088E00AC080E408C080E8DE
:102E300006C082E08093F11F80E001C080E19091A4
:102E4000F01F892B8093F01F8091F11F811103C027
:102E500081E08093F11F2FBF08959091F11F923070
:102E600049F12FB7F89490E088309105B8F4FC014F
:102E70008827E354FF4F8F4F0C94014580E10FC02A
:102E800080E20DC081E00BC082E009C084E007C091
:102E900088E005C080E403C080E801C080E0809540
:102EA0009091F01F89238093F01F811102C010922E
:102EB000F11F2FBF08959093C5008093C400E0ECEC
:102EC000F0E080818260808388E08093C10086E0AA
:102ED0008093C2000895E0ECF0E0908195FFFDCF73
:102EE0008093C6000895CF93C82F8A3011F48DE0E7
:102EF000F2DF8C2FF0DF80E090E0CF910895CF9249
:102F0000DF92EF92FF920F931F93CF93DF931F9265
:102F10001F92CDB7DEB79093F4038093F3039B0128
:102F2000225F3F4F3093F2032093F1036B0122E1C4
:102F3000C20ED11C8C9D80018D9D100D9C9D100D8D
:102F40001124C8010E94EE269093F6038093F503A6
:102F5000892B09F452C062E070E08091F3039091F4
:102F6000F4030E9480289093F8038093F703892B41
:102F7000D9F1A80160E070E08091F5039091F6032B
:102F80000E9497458091F3039091F403892BC1F13E
:102F9000E12CF12C00E010E0E091F503F091F60354
:102FA000EE0DFF1DFA83E98311821082E981FA8117
:102FB000F383E28320E030E0A901BE016F5F7F4F21
:102FC0008091F7039091F8030E9484280F5F1F4FB0
:102FD000EC0CFD1C8091F3039091F4030817190782
:102FE000D8F280E090E00EC08091F5039091F60356
:102FF0000E94F1268FEF9FEF05C08FEF9FEF02C079
:1030000080E090E00F900F90DF91CF911F910F9192
:10301000FF90EF90DF90CF900895CF93DF931F92B2
:103020001F92CDB7DEB71A821982AC01425F5F4FA3
:103030002091F1033091F2032417350780F49F9318
:103040008F938EEE92E09F938F931F9249D50F90AE
:103050000F900F900F900F9080E090E058C020E00C
:1030600030E0A901BE016F5F7F4F8091F70390911F
:10307000F8030E94AF28E981FA81309761F48FED5F
:1030800092E09F938F931F922BD50F900F900F90EC
:1030900080E090E03CC083818F9382818F93FF9387
:1030A000EF9384ED92E09F938F9383E08F9318D5F5
:1030B000E981FA810FB6F894DEBF0FBECDBF8281E1
:1030C0009381E817F907D9F081EC92E09F938F93F1
:1030D0001F9206D58091F5039091F6030E94B531B9
:1030E0006091F1037091F2038091F3039091F403E6
:1030F00006DF0F900F900F9080E090E008C0808175
:10310000918101969183808389819A8104960F90A1
:103110000F90DF91CF910895CF93DF9300D0CDB77B
:10312000DEB71982009731F1FC013497FB83EA8303
:1031300022813381E217F307E9F4208131812115DF
:103140003105C1F02230310528F021503109318399
:10315000208310C0FC01349711821082AE014F5FB2
:103160005F4FBE016E5F7F4F8091F7039091F80330
:103170000E94A8280F900F900F90DF91CF91089593
:10318000CF93DF931F921F92CDB7DEB7009751F414
:1031900084EA92E09F938F931F92A2D40F900F9096
:1031A0000F9063C0FC013497FA83E9832281338155
:1031B000E217F30771F09F938F9380E892E09F935B
:1031C0008F931F928DD40F900F900F900F900F90B0
:1031D0004CC0DC0114972D913C912115310571F4FF
:1031E000FF93EF9383E692E09F938F931F9278D49F
:1031F0000F900F900F900F900F9037C02230310535
:10320000B0F021503109DC0114972D933C933F938A
:103210002F93FF93EF9380E492E09F938F931F92FD
:103220005FD40FB6F894DEBF0FBECDBF1EC0DC0169
:1032300014971D921C92FF93EF9387E392E09F9364
:103240008F9383E08F934CD420E030E0A901BE013E
:103250006F5F7F4F8091F7039091F8030E9484285D
:103260000F900F900F900F900F900F900F90DF9195
:10327000CF9108958091F7039091F8030C94D02892
:1032800008950F931F93CF93DF931F921F92CDB793
:10329000DEB78C0105C089819A81009709F070DF43
:1032A00020E030E0A901BE016F5F7F4FF801848507
:1032B00095850E94AF28019771F380E090E00F9010
:1032C0000F90DF91CF911F910F9108950F931F934E
:1032D000CF93DF931F921F92CDB7DEB77A836983B6
:1032E000009741F18C0120E030E0A901BE016F5F41
:1032F0007F4FFC01848595850E9484280197E9F021
:10330000F801848595850E94D0289F938F93F801BA
:1033100085858F9384858F9387E295E09F938F9324
:103320001F92DED30FB6F894DEBF0FBECDBF8FEF76
:103330009FEF05C08EEF9FEF02C080E090E00F90FE
:103340000F90DF91CF911F910F9108950F931F93CD
:10335000CF93DF930E94FF30CB010E9476450E94FD
:1033600073458F719078992324F40197806E9F6F35
:103370000196805E8093FC038AEF93E00E945E2CAE
:10338000019729F4C1E0D4E001EF14E01CC084E00F
:1033900095E09F938F931F92A3D30F900F900F9060
:1033A0008FEF9FEF35C083EE94E09F938F931F9232
:1033B00097D30F900F900F908FEF9FEF29C06896D3
:1033C0000C171D0789F062E070E084E690E00E942F
:1033D00080289B878A87FE0131971082CE010E9448
:1033E0004C2C019761F3DFCF8DEF93E00E945E2CB0
:1033F000019761F081EC94E09F938F931F9270D3BB
:103400000F900F900F908FEF9FEF02C080E090E041
:10341000DF91CF911F910F9108958F929F92AF925C
:10342000BF92CF92DF92EF92FF926B017C01490134
:103430005A01EFEFF3E080E090E03181332309F1AE
:10344000208121111EC044815581668177814C25E0
:103450005D256E257F25482159216A217B21452B39
:10346000462B472B71F49C01220F331F820F931FB1
:10347000880F991F880F991F880F991F81509C4FA3
:1034800007C0019678968A309105B9F680E090E001
:10349000FF90EF90DF90CF90BF90AF909F908F9074
:1034A00008951F93CF93DF93182F44E650E060E018
:1034B00070E08DEF93E00E94762C019761F087EA2F
:1034C00094E09F938F931F920BD30F900F900F90C8
:1034D00080E090E05CC08091F90390E001966AE0A2
:1034E00070E00E94B044FC01EE0FFF1FE80FF91FCF
:1034F000EE0FFF1FEE0FFF1FEE0FFF1FE150FC4FFF
:10350000418141113AC0EF0117C0EC01CC0FDD1F22
:10351000C80FD91FCC0FDD1FCC0FDD1FCC0FDD1F57
:10352000C150DC4F4981442339F00196BF010E940C
:10353000B0442150310949F72981213081F48EE8C6
:1035400094E09F938F931F92CBD28DEF93E00E94D4
:10355000B12C0F900F900F9080E090E018C091E098
:1035600099831F861E8618838093F9038DEF93E05D
:103570000E94B12C8C2F9D2F0AC001966AE070E04A
:103580000E94B04429E030E0EAE0F0E0BECFDF91F5
:10359000CF911F9108958F929F92AF92BF92CF9239
:1035A000DF92EF92FF92CF93DF934B015C016901B1
:1035B0007A0180E076DFEC01892B81F08C829D829C
:1035C000AE82BF82C886D986EA86FB860E94FF301B
:1035D000688B798B8A8B9B8BCE0153DECE01DF917A
:1035E000CF91FF90EF90DF90CF90BF90AF909F90E2
:1035F0008F900895CF93DF93EC01892B61F48EE6D1
:1036000094E09F938F931F926BD20F900F900F9027
:103610008EEF9FEF2FC0898181110DC08AE594E064
:103620009F938F9385E08F935BD20F900F900F90B5
:1036300080E090E01FC044E650E060E070E08DEF75
:1036400093E00E94762C019761F080E494E09F93D0
:103650008F931F9245D20F900F900F908DEF9FEF99
:1036600009C01982CE010DDE8DEF93E00E94B12CCE
:1036700080E090E0DF91CF9108956F927F928F92DA
:103680009F92AF92BF92CF92DF92EF92FF920F93F1
:103690001F93CF93DF93862E142F982E990C990C9D
:1036A000990C990C990C990C092D0E94A424C82FEF
:1036B000C295C07F82958170082B882D8F71982FBD
:1036C000990F092B912F9F73A92ED92FB12C880CFC
:1036D000880C880C880C82958F70982A0E94A424EC
:1036E0008F71880F982A1295110F110F107CA694D4
:1036F000A6948A28C0FE0CC085EF93E09F938F9319
:103700001F92EED10F900F900F9080E090E07CC060
:10371000C2FE0CC08AE993E09F938F931F92E0D181
:103720000F900F900F9080E090E06EC0C4FE0CC030
:1037300083E493E09F938F931F92D2D10F900F90C9
:103740000F9080E090E060C0C6FE05C0BB24B3943B
:103750006624639401C0612C48EE53E060E070E0A1
:103760008AEF93E00E94762C019709F046C0A09062
:10377000FC036894772475F81FC0903410F07092A1
:10378000FC038091FC03982F9F73107C192B82956A
:10379000880F880F807CDF73D82B96959695C07F15
:1037A000C92B20E030EC4FE050E06B2D7D2F8C2FAB
:1037B000902F33DE892B39F09091FC039F5F90931B
:1037C000FC03A912DACF8AEF93E00E94B12C80911A
:1037D000FC03A816A9F0262D312F482D592D6B2D4D
:1037E0007D2F8C2F902FD7DEFC01009761F0C48ACB
:1037F000D58AE68AF78A9F2F07C080E090E004C050
:1038000080E090E001C09F2FDF91CF911F910F9139
:10381000FF90EF90DF90CF90BF90AF909F908F90F0
:103820007F906F900895FC0195819295969596955D
:10383000937086818F70880F880F892B90E0089590
:10384000EF92FF920F931F93CF93DF930F2EFFEF13
:10385000EF2EF3E0FF2EF02DC0E0D0E005E113E005
:10386000F70187858F9386858F93CE01880F991FE7
:10387000FC01EC0FFD1FEE0FFF1FEE0FFF1FEE0F01
:10388000FF1FEC5FFB4F20812F731F922F9320812E
:10389000322F329536953695337021812F70220F55
:1038A000220F232B1F922F93FC01EC0FFD1FEE0F15
:1038B000FF1FEE0FFF1FEE0FFF1FEB5FFB4F20817F
:1038C000322F32953F70218121702295207F232B4A
:1038D0001F922F93FC01EC0FFD1FEE0FFF1FEE0F49
:1038E000FF1FEE0FFF1FEA5FFB4F808186958F71F0
:1038F0001F928F93F70181811F928F93FF92EF9216
:10390000DF93CF931F930F930E942A46219698E14D
:10391000E90EF11CEDB7FEB772960FB6F894FEBF34
:103920000FBEEDBFCA30D10509F09ACFDF91CF911C
:103930001F910F91FF90EF900895CF92DF92EF9239
:10394000FF920F931F93CF93DF938A019B01015046
:10395000110921093109452B462B472B39F1C82F75
:10396000D92F4FEF5FEFBA0189916A017B01C82619
:10397000D701C6019927AA27BB27FC01EE0FFF1F1D
:10398000EE0FFF1FEA5BFA4F85919591A591B491D7
:10399000452F562F672F7727482759276A277B27D8
:1039A0000150110921093109F8F603C04FEF5FEF0B
:1039B000BA01CB01BA016095709580959095DF9121
:1039C000CF911F910F91FF90EF90DF90CF900895CE
:1039D000CF93DF93009719F1EC01662349F04885F6
:1039E00059854C5F5F4F60E070E00A96A6DF06C025
:1039F0004885598560E070E00E969FDFF0D0E8853D
:103A0000F985EC0FFD1F66877787808B918B888502
:103A1000998504969987888780E090E002C08EEFB0
:103A20009FEFDF91CF910895EF92FF920F931F9335
:103A3000CF93DF9300D01F92CDB7DEB7009709F484
:103A40003CC0FC014085518544305105C8F18C01D2
:103A5000662349F060E070E00A966FDF69837A833D
:103A60008B839C830AC04450510960E070E00E963D
:103A700064DF69837A838B839C8369817A818B81FC
:103A80009C81ADD069837A838B839C83F801E08429
:103A9000F184C8018E0D9F1D44E050E0BE016F5FB0
:103AA0007F4F0A960E948145009769F4F4E0EF1A6F
:103AB000F108F801F186E08608C08EEF9FEF05C09F
:103AC0008EEF9FEF02C08EEF9FEF0F900F900F9041
:103AD0000F90DF91CF911F910F91FF90EF9008957C
:103AE000FF920F931F93CF93DF93CDB7DEB7198566
:103AF000183008F066C0E12FF0E0E65FFD4F8081EE
:103B0000882309F45EC0812F90E08830910508F089
:103B100058C0FC018827EE58FF4F8F4F0C94014589
:103B200082E10BC084E109C086E007C083E005C0E4
:103B300085E003C087E001C083E1AE01445F5F4FD1
:103B4000F42E052FE091EF04F091F004309729F066
:103B50006A857B85812F199517C00E9496304F2D5D
:103B6000502F6A857B8580917720909178200E94E4
:103B7000EB4680E699E09F938F930E942A4680EF60
:103B80000E9496300F900F901630D9F480E090E0AC
:103B90000E94873B9F938F9383E599E09F938F9338
:103BA0000E942A460E94743B86E499E09F938F937B
:103BB0000E942A460F900F900F900F900F900F9039
:103BC000FFCFDF91CF911F910F91FF90089598271C
:103BD0008927982708959827892798270895CF92AD
:103BE000DF92EF92FF920F931F93C92EDD24EE24F4
:103BF000FF24362F2227112700270C291D292E29C3
:103C00003F296B017C01CC24EE24FF24FE2CED2CFB
:103C1000DC2CCC240C291D292E293F29DC01CB01C9
:103C200088279927BB27892F9A2FAB2FBB27BC0149
:103C3000CD01602B712B822B932B1F910F91FF9045
:103C4000EF90DF90CF900895CF92DF92EF92FF92A6
:103C50000F931F93C92EDD24EE24FF24362F222735
:103C6000112700270C291D292E293F296B017C01D2
:103C7000CC24EE24FF24FE2CED2CDC2CCC240C29AF
:103C80001D292E293F29DC01CB0188279927BB2735
:103C9000892F9A2FAB2FBB27BC01CD01602B712B35
:103CA000822B932B1F910F91FF90EF90DF90CF907D
:103CB00008950F931F93CF93DF93C82FD92F162FFB
:103CC000072F2115310580E14807510560F0CA0131
:103CD000B9010E94BF4320E030E040E855E30E9474
:103CE000FC432DE417C0211584E038074105510538
:103CF00060F0CA01B9010E94BF4320E030E040E813
:103D00005AE30E94FC432BE405C0CA01B9010E949A
:103D1000BF4322E41F922F939F938F937F936F93C0
:103D200083E699E09F938F930F931F93DF93CF9335
:103D30000E9481462DB73EB7245F3F4F0FB6F894DF
:103D40003EBF0FBE2DBFDF91CF911F910F91089500
:103D50000F931F93CF93DF938C01C091F104D09107
:103D6000F204209771F04AE050E0B801888199810F
:103D70000E94A545892B29F009A8DAA9C02D209712
:103D800091F7CE01DF91CF911F910F910895A091EE
:103D9000F104B091F204109741F49093F2048093EF
:103DA000F104FC0112AA11AA0895A817B907B9F0E5
:103DB000D196ED91FC91D297309741F4FD010AC064
:103DC00021A932A92115310529F0F9018E179F0784
:103DD000B9F7089592AB81ABFC0112AA11AA08951C
:103DE000AF92BF92CF92DF92EF92FF920F931F9309
:103DF000CF93DF93CDB7DEB7E2970FB6F894DEBF6F
:103E00000FBECDBF0091F1041091F2040115110510
:103E100009F480C0CE0101965C017E019AE1E90EB1
:103E2000F11C0F2EFAE6CF2EF9E0DF2EF02DF8016F
:103E300025A136A147A150A569E170E0C50139DF90
:103E4000F80121A532A543A554A569E170E0C70199
:103E500030DFFF92EF92F80184A58F9383A58F93B3
:103E600082A58F9381A58F93BF92AF9280A58F93E8
:103E700087A18F9386A18F9385A18F9384A18F9320
:103E800083A18F9382A18F9381A18F9380A18F9320
:103E9000878D8F93868D8F93858D8F93848D8F9350
:103EA000838D8F93828D8F93818D8F93808D8F9350
:103EB00087898F9386898F9385898F9384898F9340
:103EC00083898F9382898F9381898F9380898F9340
:103ED00087858F9386858F9385858F9384858F9330
:103EE00083858F9382858F9381858F9381818F9333
:103EF00080818F93DF92CF920E942A46F80101A918
:103F000012A90FB6F894DEBF0FBECDBF0115110583
:103F100009F08DCFE2960FB6F894DEBF0FBECDBF8D
:103F2000DF91CF911F910F91FF90EF90DF90CF9095
:103F3000BF90AF900895CF93DF93EC018A859B8566
:103F4000009709F01DD91B861A861C8619821882D3
:103F50001E821F82188619861D861E861F86188A55
:103F60001A821B821C821D8280E090E0DF91CF913B
:103F700008952F923F924F925F926F927F928F920D
:103F80009F92AF92BF92CF92DF92EF92FF920F93E8
:103F90001F93CF93DF93CDB7DEB760970FB6F8943A
:103FA000DEBF0FBECDBF7A87698748EE53E060E081
:103FB00070E081EA95E00E94762C019789F4809068
:103FC000A3059090A405C401019693709093A40555
:103FD0008093A30581EA95E00E94B12C99207CF49E
:103FE00084E49AE09F938F9381E08F9379DD0F9023
:103FF0000F900F904EEF5FEF588B4F8716C1A9853A
:10400000BA851C969C911C9792959F701D968C91D9
:1040100081708295807F892B0E94972B8F3F59F466
:10402000E985FA858485982F92959F7085858170A2
:104030008295807F892B8F71C82ED12CE12CF12C99
:104040000B2EB3E1CC0CDD1CEE1CFF1CBA95D1F796
:10405000B02DF3E09F22092C000CAA08BB08A9850B
:10406000BA8518962D913C911997C9010596969598
:104070008795969587959695879590E0A0E0B0E016
:10408000072E7AE0880F991FAA1FBB1F7A95D1F7D8
:10409000702DE985FA85458546954F7124013501D6
:1040A000742A84299529A629B7292C013D014C2879
:1040B0005D286E287F284B865C866D867E8639015A
:1040C0002330310520F06894662461F8712CA985AD
:1040D000BA851A966D917D918D919C911D977FDD8A
:1040E0001B012C01E985FA858085918570DD298287
:1040F0003A824B825C829E838D83830111272984BF
:104100003A84FEE02F0E311CA801B101CE010796C2
:104110000E948E4526E0260DAE014F5F5F4F6B85F6
:104120007C858D859E850E946B0A988B8F87892B55
:1041300009F46EC08DE19AE09F938F9381E08F9395
:10414000CFDC0F900F900F9045EF5FEF588B4F87AC
:104150006CC0801B910BFC018930910510F0E8E0E8
:10416000F0E0A985BA851D962C9126952F71240122
:104170003501722A689462F84C285D286E287F28E1
:104180009F013327A801420F531F5C874B87A10172
:10419000400F511F0796821B930B96958795969516
:1041A00087959695879590E0A0E0B0E0072E7AE09D
:1041B000880F991FAA1FBB1F7A95D1F7702DBC01DC
:1041C000CD0164297529862997292E2F0E946B0A13
:1041D000892BE1F085EF99E09F938F9381E08F9396
:1041E0007FDCE2E1F2E081899289A389B4890196BA
:1041F000A11DB11D818B928BA38BB48B0F900F905F
:104200000F9065EF7FEF788B6F870FC00B851C8554
:10421000A985BA8518968D919C9119970817190749
:1042200008F497CFCD010E94C0188F8598896096B9
:104230000FB6F894DEBF0FBECDBFDF91CF911F91B7
:104240000F91FF90EF90DF90CF90BF90AF909F9035
:104250008F907F906F905F904F903F902F90089538
:10426000CF93DF93CDB7DEB72D970FB6F894DEBFAF
:104270000FBECDBF0F2EF3EF2F2EF4E03F2EF02D0B
:104280000F2EFEE7EF2EFBE0FF2EF02D28EE33E0A1
:1042900040E050E0BE016F5F7F4F80919D0590919F
:1042A0009E055DD7019789F103EF14E00F2EFDE91C
:1042B000CF2EF5E0DF2EF02D99249394D8011C9693
:1042C0008C918130E1F40E94FF30F80145845684DE
:1042D00067847088DC01CB0184199509A609B709A8
:1042E000813D9740A105B10550F0FF92EF929F925A
:1042F000F7DB802F912F1FDE0F900F900F900F5E36
:104300001F4FC016D106D1F6C1CF89809A80AB80ED
:10431000BC80E9EFF4E080E090E026812130D1F527
:104320004081518162817381482559256A257B2509
:104330005370687F7F71452B462B472B59F521E140
:10434000289F8001299F100D11240D501B4F0E94A2
:10435000FF30D8011D966D937D938D939C9350975C
:10436000D501C401072E72E1B695A795979587955B
:104370007A95D1F7702DAC01BD01417055276627A4
:10438000772780FF70C0413051056105710509F440
:1043900018C1ABC1019671968A30910509F0BDCF65
:1043A000A2FC49C0F1018485882309F4ABC1E3EF85
:1043B000F4E081E090E0258D211120C021E1289FCB
:1043C0008001299F100D11240D501B4F81E0D80151
:1043D0001C968C931C97F80186829782A086B186E2
:1043E00012961D921D921D921C9215970E94FF30ED
:1043F000F801658776878787908B35C0019671961F
:104400008A309105C1F62BE53BE03F932F9381E085
:104410008F9366DBE2E1F2E085899689A789B08D0A
:104420000196A11DB11D858B968BA78BB08F0F9028
:104430000F900F902BCFAAE3BBE0BF93AF9381E027
:104440008F934EDBE2E1F2E081A192A1A3A1B4A19E
:104450000196A11DB11D81A392A3A3A3B4A30F90A4
:104460000F900F9013CF8D818630D0F42FE13BE079
:104470003F932F9381E08F9333DBE2E1F2E081A160
:1044800092A1A3A1B4A10196A11DB11D81A392A3E4
:10449000A3A3B4A3C8014FDD0F900F900F90F6CEE9
:1044A000D8011A968D919C911B97892BC1F0EEE053
:1044B000FBE0FF93EF9381E08F9312DBE2E1F2E008
:1044C00081A192A1A3A1B4A10196A11DB11D81A3B7
:1044D00092A3A3A3B4A30F900F900F9024C082E3E4
:1044E00090E00E940D18D8011B969C938E931A970A
:1044F000892BC9F4E4EEFAE0FF93EF931F92F0DA10
:10450000E2E1F2E081A192A1A3A1B4A10196A11DD3
:10451000B11D81A392A3A3A3B4A3C8010CDD0F9086
:104520000F900F90B3CED8011A96ED91FC911B9786
:104530008E819F81938782878885998595878487D7
:104540001A96CD90DC901B97F60162857385848561
:1045500095857ADBD6011A966D937D938D939C9306
:104560001D97D8011A96ED91FC911B978A859B8522
:10457000918780871A96CD90DC901B97F6018085F5
:10458000918529DBD60119969C938E931897F80193
:1045900011821082D501C401072E7AE0B695A79545
:1045A000979587957A95D1F7702D9927AA27BB27DC
:1045B0000196A11DB11D82839383A483B58326E058
:1045C00001C020E0072E7AE0B694A79497948794D0
:1045D0007A95D1F7702D9924AA24BB24F801828101
:1045E0009381A481B5810197A109B1098816990623
:1045F000AA06BB06C9F027EC3AE03F932F931F921F
:104600006FDAC80198DCE2E1F2E081A192A1A3A1F6
:10461000B4A10196A11DB11D81A392A3A3A3B4A32C
:104620000F900F900F9032CE82829382A482B58237
:10463000808191814D81622F70E00284F385E02DAD
:10464000DC01A40FB11DA61BB70BC084D184CA1610
:10465000DB06C8F4E4EBFAE0FF93EF931F9240DA35
:10466000E2E1F2E081A192A1A3A1B4A10196A11D72
:10467000B11D81A392A3A3A3B4A3C8015CDC0F90D6
:104680000F900F9003CEC22ED12C0E9650E04C19F5
:104690005D09A6E0B0E0AC0FBD1F6A0F7B1F8E0F57
:1046A0009F1F0E948E458D8190E08C199D09F80115
:1046B00020813181820F931F918380830284F3854F
:1046C000E02D208531858217930709F0DFCD40E08A
:1046D00050E062E172E0CF015FD4D8011B961C92DA
:1046E0001E921A97C80127DCD1CD82E99AE09F93E8
:1046F0008F9381E08F93F4D9C8011DDC0F900F9048
:104700000F90C4CD81E0F101848786829782A086D4
:10471000B18612821382148215820E94FF30D10169
:104720001D966D937D938D939C93509781019BCEA5
:10473000AB01BC0180919D0590919E0509D521E0BA
:1047400030E0019711F420E030E088279927821BA0
:10475000930B08958F929F92AF92BF92EF92FF9228
:104760000F931F93CF93DF93182FEB01E3EFF4E048
:104770008DE995E0118210821682178210861186CB
:10478000138612861486158616861786108A12825C
:104790001382148215827196E817F90759F70E945F
:1047A000FF30CB010E9476450E9473459370909331
:1047B000A4058093A30581EA95E00E945E2C0197F1
:1047C00009F48EC08CE69AE09F938F931F9288D94C
:1047D00085E09CE09F938F931F9282D90F900F905A
:1047E0000F900F900F900F908FEF9FEF7CC01130C4
:1047F00061F084EF9BE09F938F931F9271D90F908C
:104800000F900F908EEF9FEF6EC0812C912C540172
:1048100007C00F2E812C912CF8EFAF2EB12CF02D6C
:104820006DE070E080E290E06BD490939E05809301
:104830009D05892B61F486ED9BE09F938F931F92DA
:104840004FD90F900F900F908FEF9FEF4CC00F2E0E
:10485000FFE9EF2EF5E0FF2EF02D03E010E020E061
:1048600030E048EC50E066E872E080E391E20E94BC
:10487000EC30892B61F08BEB9BE09F938F931F9221
:104880002FD90F900F900F908FEF9FEF2CC05CD01F
:104890008F7190E0A0E0B0E0BC01CD01052E53E1A6
:1048A000660F771F881F991F5A95D1F7502D8E01DB
:1048B000A50194010E94F609892B61F08BE99BE028
:1048C0009F938F931F920CD90F900F900F9085EFAD
:1048D0009FEF09C082E192E05ADA80E090E003C0E5
:1048E000111185CF96CFDF91CF911F910F91FF903E
:1048F000EF90BF90AF909F908F9008950F931F936C
:10490000CF93DF938B01FB01C4858C2F82958F7031
:10491000C585C170C295C07FC82BD0E015D090E08E
:10492000C817D90721F0C8010E94C01806C040E08E
:1049300050E065E472E0C8012FD380E090E0DF91A1
:10494000CF911F910F9108958091A90508958091AD
:10495000A7059091A80508958091A5059091A605B9
:10496000089580917802909179020895CF93DF9312
:104970008093A9050E94A6190097D9F45CD20097EC
:10498000C1F4E1D2EC01009799F485E492E0FFD9FB
:104990002FEF45E452E065E08091A905E9D62FEFBD
:1049A00045E452E065E080E2E3D68C2F9D2F01C004
:1049B0009D2FDF91CF910895CF92DF92EF92FF92DA
:1049C000CF93DF936B017C0160FF0CC088E69EE013
:1049D0009F938F931F9284D80F900F900F9080E039
:1049E00090E050C064FF0CC081E19EE09F938F93E4
:1049F0001F9276D80F900F900F9080E090E042C009
:104A000062FF0CC08AEB9DE09F938F931F9268D842
:104A10000F900F900F9080E090E034C0DC01CB014C
:104A20008A7A9E7F892B8A2B8B2B61F084EA9DE00A
:104A30009F938F931F9254D80F900F900F9080E008
:104A400090E020C081E00E94511AEC01892BA9F06E
:104A5000D0FE0AC062E070E084E690E051D39F8708
:104A60008E87892B19F40CC01F861E86CC8ADD8A9E
:104A7000EE8AFF8A8C2F9D2F05C080E090E002C057
:104A800080E090E0DF91CF91FF90EF90DF90CF90AA
:104A90000895CF93DF931F921F92CDB7DEB7009793
:104AA00081F0FC0186859785009771F09A01AB0132
:104AB000BE016F5F7F4F53D3019749F489819A817B
:104AC00008C080E090E005C080E090E002C080E097
:104AD00090E00F900F90DF91CF910895CF93DF93E7
:104AE0001F921F92CDB7DEB71A821982009789F004
:104AF000FC012181213081F49A01AB01BE016F5F7D
:104B00007F4F848595852BD3019749F489819A81BC
:104B100008C080E090E005C080E090E002C080E046
:104B200090E00F900F90DF91CF9108954F925F9298
:104B30006F927F928F929F92AF92BF92CF92DF92AD
:104B4000EF92FF920F931F93CF93DF93862E972EB2
:104B5000A82EB92E6A01E901270138014115510536
:104B600069F48CE79DE09F938F931F920E94701DC4
:104B70000F900F900F9086EF9FEFD5C0209721F0F8
:104B80008C819D81892BB9F4BF92AF929F928F92B5
:104B900084E69DE09F938F931F920E94701D2DB716
:104BA0003EB7295F3F4F0FB6F8943EBF0FBE2DBFF3
:104BB00086EF9FEFB8C08B2D86958F71082F10E080
:104BC00099819F9398819F93FA0191859F939085F6
:104BD0009F931F926F939B2D9295969596959370A8
:104BE0001F929F93972F9F731F929F93272F22951A
:104BF0002695269523709A2D9F70990F990F922BC9
:104C00001F929F932A2D22952F709B2D9170929524
:104C1000907F922B1F929F931F928F9385E29DE02E
:104C20009F938F9384E08F930E94701DF60182867C
:104C30009386A486B5868091A90590E02DB73EB7EE
:104C40002D5E3F4F0FB6F8943EBF0FBE2DBF081725
:104C5000190781F583FE0CC086EC9CE09F938F932F
:104C600081E08F930E94701D0F900F900F904EC0A7
:104C700080FE12C060E0C6010E94E81C892B61F032
:104C800081EB9CE09F938F9381E08F930E94701D36
:104C90000F900F900F903AC082FE0CC08DE49CE004
:104CA0009F938F9381E08F930E94701D0F900F90C0
:104CB0000F902CC0F601008511858E819F81009791
:104CC00019F08017910710F1EC81FD81A301920189
:104CD000B601CE0119950097C9F449855A856B85AF
:104CE0007C854F5F5F4F6F4F7F4F49875A876B8738
:104CF0007C874DA15EA16FA178A5400F511F611D5A
:104D0000711D4DA35EA36FA378A70DC089899A89F1
:104D1000AB89BC890196A11DB11D898B9A8BAB8B88
:104D2000BC8B86EF9FEFDF91CF911F910F91FF908A
:104D3000EF90DF90CF90BF90AF909F908F907F903B
:104D40006F905F904F9008958F929F92AF92BF9215
:104D5000CF92DF92EF92FF920F931F93CF93DF9347
:104D6000EC016B0149015A01892B29F0672B19F0DD
:104D70008981813069F084E39CE09F938F931F9237
:104D80000E94701D0F900F900F9080E090E019C06E
:104D90009A8592959F708B8581708295807F892BF3
:104DA000A6D49C01688579858A859B8585017401D7
:104DB000A601BCDE31E020E0892B09F030E0832F32
:104DC000922FDF91CF911F910F91FF90EF90DF9085
:104DD000CF90BF90AF909F908F9008950C94F53135
:104DE00008950C94B531089580329105F0F4FC01DA
:104DF000EE0FFF1FE80FF91FE655FA4F2081213013
:104E000059F4FC01EE0FFF1F8E0F9F1FFC01E655AA
:104E1000FA4F81819281089580910A06813041F490
:104E200080910B0690910C06089580E090E0089523
:104E300080E090E0089583E6EAEAF5E0DF011D9264
:104E40008A95E9F780E090E00895CF93DF939C0185
:104E5000892B91F0CB01E90162E070E051D19F878D
:104E60008E8721E030E0892B11F020E030E08827A8
:104E70009927821B930B02C08EEF9FEFDF91CF919A
:104E800008950F931F93CF93DF93009709F454C0B5
:104E90008C01613290F01F9280E28F9384EF9EE04C
:104EA0009F938F931F920E94701D0F900F900F90F1
:104EB0000F900F908EEF9FEF41C0C62FD0E0FE0104
:104EC000EE0FFF1FEC0FFD1FE655FA4F8081882380
:104ED00089F01F926F938AED9EE09F938F931F92AC
:104EE0000E94701D0F900F900F900F900F908CEFFD
:104EF0009FEF24C01F926F931F930F938DEB9EE043
:104F00009F938F9382E08F930E94701DCE01880F34
:104F1000991FC80FD91FC655DA4F1A83098381E03C
:104F200088838DB79EB707960FB6F8949EBF0FBEC5
:104F30008DBF80E090E002C08EEF9FEFDF91CF91B8
:104F40001F910F91089580910D0690910E06892B67
:104F500059F464E070E08AE090E0D2D090930E06BD
:104F600080930D06892B19F080E090E008958FEF73
:104F70009FEF08952FEF3FEF40E050E0BC0180919C
:104F80000D0690910E06EBD0019719F480E090E0A9
:104F900008958DEF9FEF0895CF92DF92EF92FF92E9
:104FA0000F931F93CF93DF9300D01F92CDB7DEB73F
:104FB0007C018B016A01009761F482EA9FE09F9374
:104FC0008F9381E08F930E94701D0F900F900F9030
:104FD0008AC061157105A9F488E79FE09F938F93BC
:104FE00081E08F930E94701D0F900F900F90CD283D
:104FF00021F4C7010E94C01876C0C7010E948C1816
:1050000072C07A8369839C838B834115510579F43F
:1050100020E030E0A901BE016F5F7F4F80910D0657
:1050200090910E0671D0019709F043C00AC0BE01ED
:105030006F5F7F4F80910D0690910E0689D001978A
:10504000E9F4F80185859685A785B0890196A11DAB
:10505000B11D85879687A787B08BF701208531859D
:10506000F80181A592A5A3A5B4A5820F931FA11D48
:10507000B11D81A792A7A3A7B4A735C084E49FE080
:105080009F938F9381E08F930E94701DF801818D13
:10509000928DA38DB48D0196A11DB11D818F928F2C
:1050A000A38FB48FC7010E948C180F900F900F90A0
:1050B0001AC084E49FE09F938F9381E08F930E94B6
:1050C000701DF801818D928DA38DB48D0196A11D67
:1050D000B11D818F928FA38FB48FC7010E94C0181A
:1050E0000F900F900F900F900F900F900F90DF91F7
:1050F000CF911F910F91FF90EF90DF90CF90089587
:1051000040E00C94BD3508950F931F93CF93DF9328
:10511000EC018B01CA01B9016F3F2FEF72078105C6
:10512000910541F02AE030E040E050E00E94C344A5
:10513000CA01B90120E0AB01B801CE010E94EB35F4
:10514000082E000C990BDF91CF911F910F910895BC
:1051500020E00E949536082E000C990B08950F93BD
:105160001F93CF93DF93EC018B012F3F8FEF380715
:105170004105510541F0CA01B9012AE030E040E0A3
:1051800050E00E94C344A901B801CE010E94CD366F
:10519000082E000C990BDF91CF911F910F9108956C
:1051A0000E94473890E008950F931F93CF93DF93A9
:1051B0008A01E9018A8580FF32C08885998584301B
:1051C000910570F49F938F9388E490E19F938F9360
:1051D0001F920E94701D0F900F900F900F900F90D4
:1051E00060E0CE010E94141D009759F18CE190E11E
:1051F0009F938F931F920E94701DF8018589968955
:10520000A789B08D0196A11DB11D858B968BA78BAB
:10521000B08F0F900F900F908AE99FEF12C066FF3A
:105220000EC08CEE9FE09F938F9381E08F930E943E
:10523000701D0F900F900F9080E090E002C080E012
:1052400090E0DF91CF911F910F910895CF92DF925F
:10525000EF92FF920F931F93CF93DF9300D000D074
:10526000CDB7DEB7CE01019685DE6C01892B09F042
:10527000A0C1EB81FC81FE83ED83A981BA811196E7
:105280008C9111978F938C918F9381858F938085CB
:105290008F9382851F928F938585829586958695BB
:1052A00083701F928F9383858F731F928F93838553
:1052B000982F929596959695937084858F70880F08
:1052C000880F892B1F928F938485982F92959F70BA
:1052D000858581708295807F892B1F928F9385852C
:1052E00086958F711F928F938DEB91E19F938F9392
:1052F00084E08F930E94701DED81FE810485802FD4
:1053000082958F70058501700295007F082B10E053
:105310001BDB90E00FB6F894DEBF0FBECDBF0817C1
:10532000190709F43FC0ED81FE818485982F92957D
:105330009F70858581708295807F892B8F3191F157
:10534000D6D1FC01009741F029813A818217930759
:1053500041F42085211105C08D819E810E94C018D5
:1053600067C14D815E81DA011A966D917D918D91B3
:105370009C911D97E12CF12C87019F01D7DB0097B1
:1053800009F41BC187EA91E19F938F9381E08F938A
:105390000E94701D8D819E810E94C0180F900F90F9
:1053A0000F9046C1ED81FE8109811A81828582FFBD
:1053B00017C080E191E19F938F931F920E94701D0F
:1053C000F801858D968DA78DB0A10196A11DB11D07
:1053D000858F968FA78FB0A30F900F900F90EFC07F
:1053E00083FF17C088EB90E19F938F931F920E94D9
:1053F000701DF801858D968DA78DB0A10196A11D18
:10540000B11D858F968FA78FB0A30F900F900F902F
:10541000D6C081FFD9C087E690E19F938F931F92FA
:105420000E94701DF80185899689A789B08D019623
:10543000A11DB11D858B968BA78BB08F0F900F9000
:105440000F90BDC0D80154966D917D918D919C9126
:10545000579770FFCBC02D813E8149815A81A4DED0
:1054600099232CF48D819E810E94C018E1C020E018
:1054700030E0A901BE016B5F7F4FF80186859785FB
:1054800043DE019709F4D4C08BE891E19F938F9399
:105490001F920E94701D8D819E810E94C0180F90E6
:1054A0000F900F90C5C08D819E810E94C018C0C012
:1054B0002D813E8149815A81D80154966D917D910B
:1054C0008D919C91579770DE99232CF48D819E814C
:1054D0000E94C018ADC0ED81FE818585807CF82ECC
:1054E00033DA8F71880FF82AED81FE8185858695E4
:1054F00084FB992790F9F92A5385452F4F734695D8
:1055000046958295807F482B252F229526952695B6
:10551000237034853F70330F330F932F922B352F29
:105520003295330F330F307C392B2285628573859A
:10553000848595855F2D0E94CB1A7C01892B79F497
:105540008DE691E19F938F931F920E94701D8D8134
:105550009E810E94C0180F900F900F9069C0F801B3
:1055600086859785D7011F969C938E931E97848975
:105570009589A689B789F701848B958BA68BB78B04
:1055800013C02D813E8149815A81D70154966D9176
:105590007D918D919C91579707DE99232CF48D81F5
:1055A0009E810E94C01844C06D817E81C70148D68B
:1055B0003FC0CC24CA94DC2C3BC06C0139C08D8127
:1055C0009E810E94C01834C08385982F929596952D
:1055D0009695937084858F70880F880F892B90E043
:1055E00003DC8C01892B09F02DCF11C0ED81FE81E8
:1055F000628573858485958520E03FEF4FEF5FE3FB
:105600000E940D1A7C01892B09F0BBCF51CFED818F
:10561000FE81628573858485958520E03FEF4FEF9D
:105620005FE30E940D1A7C01892B09F0AACF3BCFC2
:10563000C60126960FB6F894DEBF0FBECDBFDF9130
:10564000CF911F910F91FF90EF90DF90CF90089531
:10565000C9ECDFE06894FF24F1F880E090E00E945C
:10566000A13E182F092F80E090E00E94873B0F9306
:105670001F939F938F93DF93CF93FF920E94701D90
:105680006FEF7FEF80E090E0E1DD8DB79EB707968A
:105690000FB6F8949EBF0FBE8DBFDFCFEF92FF9283
:1056A0000F931F930F2EFFE0EF2EF6E0FF2EF02D4D
:1056B0008B0120E030E0AC016FE872E088E29BE211
:1056C0008BD5892B69F080ED9FE09F938F931F927C
:1056D0000E94701D0F900F900F908FEF9FEF02C0F0
:1056E00080E090E01F910F91FF90EF90089590E07F
:1056F000FC01EE0FFF1FE80FF91FEF5EF94F20814D
:105700003181232B49F0FC01EE0FFF1F8E0F9F1FED
:10571000FC01EF5EF94F08C080917106909172060E
:10572000009721F0E1E7F6E080819181089590E013
:10573000FC01EE0FFF1FE80FF91FEF5EF94F20810C
:105740003181232B49F0FC01EE0FFF1F8E0F9F1FAD
:10575000FC01EF5EF94F08C08091710690917206CE
:10576000892B21F0E1E7F6E0828108958FEF08951B
:105770000F931F93CF93DF934115510541F1D22F22
:105780008A01C82FCA010E94C71EC13278F48C2F2B
:1057900090E0FC01EE0FFF1FE80FF91FEF5EF94FDD
:1057A00011830083D28380E090E013C01F92CF93D7
:1057B00088E392E19F938F931F920E94701D0F9038
:1057C0000F900F900F900F908EEF9FEF02C08EEF13
:1057D0009FEFDF91CF911F910F910895EF92FF926C
:1057E0000F931F93CF93DF938DE192E19F938F935C
:1057F0000E942A4601E116E00F900F90C0E0D0E031
:105800000F2EFDE0EF2EF2E1FF2EF02DD801ED91ED
:10581000FC9111973097D9F012968C918F3F11F02F
:1058200090E001C0CE019F938F9381818F938081FF
:105830008F93DF93CF93FF92EF920E942A46ADB7EA
:10584000BEB718960FB6F894BEBF0FBEADBF219677
:105850000D5F1F4FC032D105C9F6809173061F92AC
:105860008F93E0917106F091720681818F93808110
:105870008F938CEF91E19F938F930E942A460F9014
:105880000F900F900F900F900F90DF91CF911F917D
:105890000F91FF90EF900895CF93DF93EC0181E09B
:1058A0000E947D369983888321E030E0892B11F4B2
:1058B00020E030E0C901DF91CF910895CF93DF93CD
:1058C000EC0143E060E081E00E94BD35998388836C
:1058D000009739F020E040E050E060E070E00E9486
:1058E000EB3581E090E0DF91CF910895CF92DF9288
:1058F000EF92FF92CF93DF93EC016A017B01DF937C
:10590000CF9389E692E19F938F9387E08F930E94D4
:10591000701D0F900F900F900F900F908FEFC81683
:10592000D806E104F10451F0C701B6012AE030E0E5
:1059300040E050E00E94C34469017A01B6018881C9
:1059400099810E94563721E030E0813011F020E04B
:1059500030E0C901DF91CF91FF90EF90DF90CF90C1
:105960000895CF93DF93EC01DF93CF9380E692E12C
:105970009F938F9387E08F930E94701D20E040E0FB
:1059800050E060E070E0888199810E94EB3521E071
:1059900030E00F900F900F900F900F90813011F02A
:1059A00020E030E0C901DF91CF9108953F924F92FE
:1059B0005F926F927F928F929F92AF92BF92CF929F
:1059C000DF92EF92FF920F931F93CF93DF93382EC6
:1059D0004A015B01E90113D42B013C01C02ED12CFB
:1059E000E12CF12C9501840141E0632D82E00E94BD
:1059F0003D1B8C01892BE1F1CE010E940D187C0129
:105A00000097C9F1FC01D187C087209741F03E96ED
:105A100080E090E081930196C817D907D9F720E07C
:105A200030E0A901B701C8018FD9892B59F1B5011F
:105A3000A401C80153D87C010097E9F0209731F107
:105A4000FC018685811127C03F9680E090E007C069
:105A5000219130E0AC0155272417350701F5019657
:105A6000C817D907A9F7812C912C540183941AC027
:105A70008FEF9FEF2AC0C8010E94FA1AC0D38FEFA0
:105A80009FEF23C0812C912C54010CC0812C912CB0
:105A90005401839407C0812C912C540103C0812CA4
:105AA000912C5401C7010E94C018C8010E94FA1A23
:105AB000A6D3DC01CB0184199509A609B709892869
:105AC0008A288B2811F48FEF9FEFDF91CF911F91E0
:105AD0000F91FF90EF90DF90CF90BF90AF909F908D
