:100000000C9471090C94A1090C94A1090C941F0E75
:100010000C94A1090C94A1090C94A1090C94A109B8
:100020000C94A1090C94A1090C94A1090C94A109A8
:100030000C94A1090C94A1090C94A1090C94A10998
:100040000C94A1090C94BF310C94A1090C94A10942
:100050000C94A1090C94A1090C94A1090C94A10978
:100060000C94A1090C947F350C94C2350C94A10911
:100070000C94A1090C94A1090C94A1090C94A10958
:100080000C94A1090C94A1090C94A1090C94A10948
:100090000C94A1090C94A1090C94A1090C94A10938
:1000A0000C94A1090C94A1090C94A1090C94A10928
:1000B0000C94A1090C94A1090C94A1090C94A10918
:1000C0000C94A1090C94A1090C94A1090C94A10908
:1000D0000C94A1090C94A1090C94A1090C94A109F8
:1000E0000C94A109E01AE21AEC1AE41AE61AE81ACA
:1000F000E01AEA1AC22A3D2C492CAF2CBB2CD52C75
:10010000E62CD32DBB2DBE2DC12DC42DC72DCA2D40
:10011000CD2D7911AB114C10B511561060106A102D
:100120007410A311A3117C1084108C1093109A10DA
:10013000A1108311BF11B410A511BC10C610CE10B0
:10014000D810E010A511EA10F410FE1006111011DD
:1001500017118B11C7112C1136113D11A711461122
:100160004F1159115F1169117011EB14D814DA1481
:10017000DC14DE14E014E214E4140B150D150F1555
:1001800011151315151517151915654065406540AE
:1001900092409A40A8406540654092409A407175EF
:1001A000657565206661696C0071756575652066A9
:1001B00061696C0043414E20526563203D202564F7
:1001C00000546F6F204D616E79204672616D6573CA
:1001D00000444C43203D2025640025732025640AFB
:1001E0000063616E207478206572726F72004652EF
:1001F00045453A20257000465245453A20427566ED
:1002000066657220257020696E207573652062799D
:1002100020257520757365727300465245453A2056
:1002200042756666657220616C72656164792066EC
:1002300072656520257000465245453A20496E7624
:10024000616C696420435350206275666665722054
:10025000706F696E74657220257000417474656DED
:10026000707420746F2066726565206E756C6C20EA
:10027000706F696E74657200436F7272757074206E
:1002800043535020627566666572004745543A20B4
:100290002570202570004F7574206F66206275668A
:1002A0006665727300417474656D707420746F209C
:1002B000616C6C6F6361746520746F6F206C617228
:1002C000676520626C6F636B2025750041747465EF
:1002D0006D707420746F206372656174652058546A
:1002E000454120656E6372797074656420636F6E3A
:1002F0006E656374696F6E2C206275742043535071
:100300002077617320636F6D70696C656420776915
:1003100074686F7574205854454120737570706F00
:10032000727400417474656D707420746F20637210
:100330006561746520484D41432061757468656E40
:100340007469636174656420636F6E6E656374695C
:100350006F6E2C2062757420435350207761732098
:10036000636F6D70696C656420776974686F75740C
:1003700020484D414320737570706F727400417452
:1003800074656D707420746F20637265617465208C
:1003900052445020636F6E6E656374696F6E2C20DB
:1003A000627574204353502077617320636F6D70C2
:1003B000696C656420776974686F75742052445065
:1003C00020737570706F7274004661696C6564208B
:1003D000746F206C6F636B20636F6E6E206172723E
:1003E000617900436F6E6E20616C72656164792083
:1003F000636C6F736564004E554C4C20506F696E92
:1004000074657220676976656E20746F20637370FF
:100410005F636C6F7365004E6F206D6F7265206651
:1004200072656520636F6E6E656374696F6E7300CD
:100430004661696C656420746F206C6F636B206328
:100440006F6E6E206172726179004E6F206D6F72F7
:1004500065206D656D6F727920666F7220636F6EB7
:100460006E2073656D6170686F7265004661696CBE
:10047000656420746F2063726561746520636F6EBC
:100480006E656374696F6E206C6F636B004E6F20D6
:100490006D6F7265206D656D6F727920666F722069
:1004A00073706F72742073656D6170686F72650030
:1004B00052582071756575652025702066756C6CC5
:1004C0002077697468202575206974656D73000054
:1004D00000000003836BF2F7703BE1F4F350131F4D
:1004E000979AC71C14F135E8E7A126EB64CAD4CF6C
:1004F00058D98ACCDBB2783828E26B3BAB8999D0EB
:10050000CF434DD34C28BF27BF78AC243C135E6F3C
:10051000C75E106C4435E298B765F19B340E0370EA
:1005200050C4D773D3AF258720FF3684A394C4A0CB
:100530009F879AA31CEC6857EFBC7B546CD789BF8C
:10054000081D5DBC8B76AF487826BC4BFB4D4EDE5C
:100550008EBD20DD0DD6D229FE86C12A7DED33C1A8
:100560001927E7C29A4C1536691C0635EA77F4114B
:10057000D664AA12550F58E6A65F4BE52534B90E8E
:1005800041FE6D0DC2959FF931C58CFAB2AE7EB1B8
:1005900049E330B2CA88C24639D8D145BAB323AE8E
:1005A000DE79F7AD5D120559AE42165A2D29E47E6B
:1005B000113ABA7D9251488961015B8AE26AA96168
:1005C00086A07D6205CB8F96F69B9C9575F06EBCE0
:1005D0001D7B41BF9E10B34B6D40A048EE2B52A334
:1005E0008AE186A0098A7454FADA675779B195735B
:1005F00045A2CB70C6C9398435992A87B6F2D86C22
:10060000D2380C6F5153FE9BA203ED9821681FD383
:10061000DA2551D0594EA324AA1EB027297542CC01
:100620004DBF96CFCED4643B3D847738BEEF851C5A
:1006300082FCDB1F019729EBF2C73AE871ACC803D3
:1006400015661C00960DEEF4655DFDF7E6360F624B
:1006500093C6616110AD9395E3FD80966096727DBF
:10066000045CA67E8737548A74674789F70CB5AD5A
:10067000CB1FEBAE4874195ABB240A59384FF8B255
:100680005C852CB1DFEEDE452CBECD46AFD53F0DEF
:100690005498710ED7F383FA24A390F9A7C8621275
:1006A000C302B611406944E5B33957E63052A5C2DA
:1006B0000C41FBC18F2A09357C7A1A36FF11E8DD1F
:1006C0009BDB3CDE18B0CE2AEBE0DD29688B2F786F
:1006D0003BF6827BB89D708F4BCD638CC8A691672B
:1006E000AC6C45642F07B790DC57A4935F3C56B7BA
:1006F000632F08B4E044FA401314E943907F1BA829
:10070000F4B5CFAB77DE3D5F848E2E5C07E5DC175A
:10071000FCA892147FC360E08C9373E30FF8810808
:100720006B32550BE859A7FF1B09B4FC986246D8F9
:10073000A47118DB271AEA2FD44AF92C57210BC7CA
:1007400033EBDFC4B0802D3043D03E33C0BBCCA6EA
:10075000B54BA2A536205051C5704352461BB1B9C6
:1007600022D165BAA1BA974E52EA844DD1817669F9
:10077000ED92286A6EF9DA9E9DA9C99D1EC23B764C
:100780007A08EF75F9631D810A330E828958FCC916
:100790007215B2CAF17E403E022E533D8145A1D66C
:1007A000E58F75D566E4872195B4942216DF660639
:1007B0002ACC3805A9A7CAF15AF7D9F2D99C2B1926
:1007C000BD56FF1A3E3D0DEECD6D1EED4E06ECC43E
:1007D000268DC3C7A5E6313356B62230D5DDD0DB32
:1007E000B11704D8327CF62CC12CE52F4247170BE9
:1007F0007E544908FD3FBBFC0E6FA8FF8D045A14C0
:10080000E9CE8E176AA57CE399F56FE01A9E9DAB41
:10081000E1D3D3A862B8215C91E8325F1283C0B4FF
:10082000764914B7F522E6430672F5408519076448
:10083000B90A59673A61AB93C931B8904A5A4A7BB1
:100840002E909E78ADFB6C8C5EAB7F8FDDC08D1AD9
:10085000A830E3192B5B11EDD80B02EE5B60F005BD
:100860003FAA2406BCC1D6F24F91C5F1CCFA37D5C8
:10087000F0E969D673829B2280D2882103B97ACAB3
:100880006773AEC9E4185C3D17484F3E9423BD75AD
:100890006F6EF376EC0501821F5512819C3EE06A73
:1008A000F8F434697B9FC69D88CFD59E0BA427BAE8
:1008B00037B779B9B4DC8B4D478C984EC4E76AA53D
:1008C000A02DBEA623464C52D0165F51537DAD4598
:1008D00072726F722052657365740A004353502020
:1008E0005245534554202573000D0A00252E3166CC
:1008F000256300252D357320202074783A2025307B
:10090000356C752072783A202530356C75207478F6
:10091000653A202530356C75207278653A2025308F
:10092000356C750D0A202020202020202064726F55
:10093000703A202530356C75206175746865727267
:100940003A202530356C75206672616D653A202538
:1009500030356C750D0A202020202020202074784E
:10096000623A20256C752028257329207278623A16
:1009700020256C7520282573290D0A0D0A00466173
:10098000696C656420746F2073656E642043414E0A
:10099000206672616D6520696E2054782063616CF9
:1009A0006C6261636B004661696C656420746F20E2
:1009B00073656E642043414E206672616D652069E7
:1009C0006E206373705F74785F63616E0046616967
:1009D0006C656420746F20676574204346502069FD
:1009E00064656E74696669636174696F6E206E75A3
:1009F0006D62657200436F756C64206E6F74206960
:100A00006E697469616C697A652043465020696437
:100A10002073656D6170686F72650052656365690A
:100A200076656420756E6B6E6F776E20434650203E
:100A30006D65737361676520747970650052582025
:100A4000627566666572206F766572666C6F770098
:100A500043414E206672616D65206C6F737420692E
:100A60006E20435350207061636B6574004661696A
:100A70006C656420746F20676574206275666665B6
:100A80007220666F72204353505F424547494E20A3
:100A90007061636B657400496E636F6D706C657433
:100AA00065206672616D650053686F7274204245FF
:100AB00047494E206672616D65207265636569768F
:100AC0006564004F7574206F66206F7264657220D4
:100AD0004D4F5245206672616D6520726563656990
:100AE000766564004E6F20617661696C61626C6549
:100AF000207061636B65742062756666657220663E
:100B00006F722043414E0043414E20427566666538
:100B10007220656C656D656E742074696D65642006
:100B20006F75740025732025640A004661696C6541
:100B30006420746F20696E697469616C697A6520DC
:100B400043414E20647269766572004661696C6546
:100B50006420746F20696E69742043414E2052589E
:100B6000207461736B004661696C656420746F204A
:100B70006372656174652043414E2052582071753F
:100B800065756500556E6B6E6F776E2043414E2024
:100B90006D6F6465004661696C656420746F2069DF
:100BA0006E697469616C697A652043414E2069649D
:100BB000656E74696669636174696F6E206E756DC8
:100BC00062657200496E76616C69642063616C6C69
:100BD00020746F206373705F73656E64004174747A
:100BE000656D707420746F2073656E642058544571
:100BF0004120656E63727970746564207061636B07
:100C000065742C20627574204353502077617320E3
:100C1000636F6D70696C656420776974686F757453
:100C2000205854454120737570706F72742E2044A3
:100C3000697363617264696E67207061636B657468
:100C400000435243333220617070656E64206661E8
:100C5000696C65642100417474656D707420746FF3
:100C60002073656E64207061636B657420776974AE
:100C70006820484D41432C20627574204353502016
:100C800077617320636F6D70696C65642077697438
:100C9000686F757420484D414320737570706F7292
:100CA000742E2044697363617264696E6720706199
:100CB000636B6574004F55543A20532025752C20E2
:100CC000442025752C2044702025752C205370203D
:100CD00025752C2050722025752C20466C203078EC
:100CE000253032582C20537A202575205649413A18
:100CF000202573004E6F20726F75746520746F200D
:100D0000686F73743A202523303878006373705FFE
:100D100073656E645F6469726563742063616C6C93
:100D200065642077697468204E554C4C207061636F
:100D30006B657400496E76616C696420736F636BD8
:100D40006574206F7074696F6E00417474656D70A6
:100D50007420746F2063726561746520736F636BB8
:100D60006574207468617420726571756972657349
:100D700020484D41432C2062757420435350207706
:100D8000617320636F6D70696C6564207769746846
:100D90006F757420484D414320737570706F727485
:100DA00000417474656D707420746F2063726561A6
:100DB000746520736F636B6574207468617420724E
:100DC0006571756972657320585445412C206275B0
:100DD00074204353502077617320636F6D70696C8A
:100DE000656420776974686F757420585445412094
:100DF000737570706F727400417474656D707420D7
:100E0000746F2063726561746520736F636B6574C2
:100E100020746861742072657175697265732052FF
:100E200044502C2062757420435350207761732006
:100E3000636F6D70696C656420776974686F757431
:100E40002052445020737570706F72740042696E46
:100E500064696E6720736F636B65742025702074FE
:100E60006F20706F727420257500506F727420258A
:100E70006420697320616C726561647920696E20F9
:100E8000757365004F6E6C7920706F727473206695
:100E9000726F6D20302D25752028616E64204353BC
:100EA000505F414E5920666F722064656661756CB3
:100EB00074292061726520617661696C61626C657C
:100EC00020666F7220696E636F6D696E6720706F48
:100ED000727473004552524F523A20526F757469C2
:100EE0006E6720696E707574204649464F2069739D
:100EF0002046554C4C2E2044726F7070696E6720EE
:100F00007061636B65742E006373705F6E6577202C
:100F10007061636B65742063616C6C6564207769D4
:100F20007468204E554C4C20696E7465726661631E
:100F300065006373705F6E6577207061636B6574C5
:100F40002063616C6C65642077697468204E554C31
:100F50004C207061636B65740025732025640A0062
:100F60004661696C656420746F20737461727420CB
:100F7000726F75746572207461736B00526563657E
:100F800069766564207061636B6574207769746845
:100F90006F75742043524333322E20416363657072
:100FA00074696E67207061636B65740043524333EC
:100FB0003220766572696669636174696F6E206557
:100FC00072726F72212044697363617264696E6723
:100FD000207061636B657400546F6F2073686F726B
:100FE00074207061636B657420666F722043524396
:100FF00033322C202575005265636569766564205F
:10100000524450207061636B65742C2062757420AB
:101010004353502077617320636F6D70696C656412
:1010200020776974686F757420524450207375700E
:10103000706F72742E2044697363617264696E67A5
:10104000207061636B6574005265636569766564E1
:10105000207061636B6574207769746820484D4126
:10106000432C2062757420435350207761732063B2
:101070006F6D70696C656420776974686F75742032
:10108000484D414320737570706F72742E2044690F
:101090007363617264696E67207061636B6574006D
:1010A0005265636569766564205854454120656ED4
:1010B00063727970746564207061636B65742C2051
:1010C000627574204353502077617320636F6D7095
:1010D000696C656420776974686F7574205854452D
:1010E0004120737570706F72742E20446973636150
:1010F0007264696E67207061636B6574004E6F2067
:101100006D6F726520636F6E6E656374696F6E7369
:1011100020617661696C61626C6500436F6E6E2D53
:101120006C65737320736F636B657420717565757F
:10113000652066756C6C00526F757465722066610F
:10114000696C656420746F2073656E6400494E504D
:101150003A20532025752C20442025752C204470DE
:101160002025752C2053702025752C2050722025A9
:10117000752C20466C203078253032582C20537A3C
:10118000202575205649413A202573004661696C37
:10119000656420746F2073657420726F7574653A8E
:1011A00020696E76616C6964206E6F646520696485
:1011B00020257500506F73743A20257000576169BF
:1011C000743A20257000534552564943453A205001
:1011D000696E67207265636569766564001B5B25CF
:1011E000753B25756D004661696C656420746F20E0
:1011F00073687574646F776E004661696C6564200E
:10120000746F207265626F6F74005761726E696EE1
:101210006720736F636B657420636F6E6E656374B4
:10122000696F6E2071756575652066756C6C00431D
:101230006F6E6E656374696F6E2062756666657247
:101240002071756575652066756C6C21004572723C
:101250006F722052657365740A00556E657820566A
:101260006563746F720050696E6720726573756C88
:1012700074202564205B6D735D0D0A0050696E67F4
:10128000204661696C65640A005350203D20307827
:10129000253034780A0025732025640A00506163E4
:1012A0006B6574207265636569766564206F6E2076
:1012B0004D595F504F52543A2025730D0A00257343
:1012C0002025640A00496E74657266616365730D5A
:1012D0000A004572726F722052657365740A0000CD
:1012E000F20B11241FBECFEFD1E2DEBFCDBF00E075
:1012F0000CBF13E0A0E0B2E0EAEFFFE800E00BBFB4
:1013000002C007900D92AE31B107D9F720E2AEE1ED
:10131000B3E001C01D92AD37B207E1F719E0C1E7B4
:10132000D9E000E006C021970109802FFE010E944C
:101330001642C037D10780E00807A9F7CDD30C9437
:10134000FB47B8C48F929F92AF92BF92CF92DF9229
:10135000EF92FF920F931F93CF93DF936B017C016A
:1013600049015A010FB6F8940F920E949D1480EF24
:1013700093E0CDD5D82F6FE080EF93E00E94D61197
:1013800081110BC081E090E0D11102C080E090E0BB
:10139000CC27DD27C81BD90B02C0CFEFDFEF9501AB
:1013A000840141E060E080EF93E00E9429128823ED
:1013B00011F0CFEFDFEF9501840141E061E080EFB4
:1013C00093E00E942912882311F0CFEFDFEF9701FD
:1013D000860141E060E080EF93E00E946B12882379
:1013E00011F0CFEFDFEF9701860141E062E080EF7F
:1013F00093E00E946B12882311F0CFEFDFEF80EFB4
:1014000093E026D6882311F0CFEFDFEF0F900FBEC9
:10141000CE01DF91CF911F910F91FF90EF90DF9060
:10142000CF90BF90AF909F908F900895CF92DF9212
:10143000EF92FF920F931F93CF93DF93CDB7DEB759
:10144000CDB6DEB6EDB7FEB777970FB6F894FEBF10
:101450000FBEEDBFEDB6FEB6F8E0EF0EF11C38EFB3
:10146000E3220FB6F8940F92DC01CB01B068F701CC
:1014700080839183A283B3832483222309F43FC012
:10148000A42FB52F389630E0285F3F4F2E0D3F1D1B
:101490008D918193E217F307D9F731C080EF93E084
:1014A0000E949914811116C08FE891E00197F1F71D
:1014B00000C00000A70160E080EF93E00E94D1121D
:1014C00001E010E0811102C000E010E011950195EB
:1014D000110905C00150110909F700E010E00F9053
:1014E0000FBE0115110571F081EE91E09F938F936E
:1014F0001F920E94C01A0F900F900F9003C008E037
:1015000010E0CCCFC8010FB6F894DEBE0FBECDBE42
:10151000DF91CF911F910F91FF90EF90DF90CF90CF
:1015200008955298E9E6F0E0808180628083EA9A2B
:1015300080EF93E00E9476140F2EFAED2F2EF1E04B
:101540003F2EF02D6894882481F80F2EF6E09F2E10
:10155000F02D0F2EF9E7CF2EF3E0DF2EF02D80EFE8
:1015600093E00E94761480E090E00E94B63BC82F82
:10157000D92F80E090E00E949C38DF93CF939F9317
:101580008F933F922F928F920E94C01A80E090E03A
:101590000E94593E0FB6F8940F928EE390E07AD1F4
:1015A0008DB79EB707960FB6F8949EBF0FBE8DBF3E
:1015B000A12CB12CE12CF12C092D10E08DD1892B1F
:1015C00061F5C12FD0E0BE0162957295707F7627DC
:1015D000607F762760587C4F80EF93E00E94421432
:1015E000811119C0E114F10409F4DFC014C0111114
:1015F00010C0072E7AE0B695A795979587957A95AE
:10160000D1F7702D082F873020F0EE24E394F12CD1
:1016100011E01F5F5CD1011788F60F900FBEBF92DB
:10162000AF92A1EDB1E0BF93AF938F920E94C01A29
:101630000F900F900F900F900F90EF2859F081ECC2
:1016400091E09F938F931F920E94C01A0F900F906A
:101650000F9085CFC12FD0E01F921F93E4EBF1E0F4
:10166000FF93EF938F920E94C01A0F900F900F90EC
:101670000F900F901C161D06E4F520E833E080E182
:10168000189FA001112440585C4F7DE0D9014D9076
:101690005D906D907C90D301C201072E7AE0B695E3
:1016A000A795979587957A95D1F7702D8095810F9D
:1016B000789FF0011124E25EFC4F408251826282E9
:1016C0007382D90114966C9114976483662361F038
:1016D0001896789FF0011124ED5DFC4F80E09D91FC
:1016E00091938F5F6813FBCF205F3F4F241735071F
:1016F00069F60FB6F8940F921C161D06B4F50EE1AC
:1017000013E0A12CB12C7E01B1E0EB1AF108EA1430
:10171000FB0491F466E872E0C8010E940C21892B59
:10172000E1F0E9EAF1E0FF93EF939F920E94C01A83
:101730000F900F900F9011C060E070E0C8010E9400
:101740000C21892B51F08EE991E09F938F939F920A
:101750000E94C01A0F900F900F90BFEFAB1ABB0AF8
:10176000035F1F4FCA15DB0591F60F900FBE8EE188
:1017700093E0C0E8D3E0FC01108211821282138250
:10178000188219821A821B8214821C82DC0115962F
:10179000FE01389660961D921192EC17FD07D9F75D
:1017A0000D968C159D0539F7DACEC295D295D07F6E
:1017B000DC27C07FDC27C058DC4F8C81A80EB11C11
:1017C00088819981AA81BB81AC01BD01032E32E1E0
:1017D00076956795579547953A95D1F7302D40FF07
:1017E00008CF05CF80EF93E0B1C208958AB1806E33
:1017F0008AB981E090E0909375068093740608950D
:101800002091740630917506232BC1F1613071056A
:1018100039F06230710531F0672B31F425E005C0F5
:1018200026E003C027E001C020E08130910581F06F
:1018300082309105C1F0892B09F53BB181E090E040
:1018400002C0880F991F2A95E2F783278BB9089564
:101850003BB181E090E002C0880F991F2A95E2F722
:10186000832B8BB908953BB181E090E002C0880FD3
:10187000991F2A95E2F7809583238BB90895E4E6B2
:10188000F0E0808180668083E5E6F0E080818F6310
:10189000808308959C01F894E5E6F0E09081977FBD
:1018A000908310929000E1E9F0E010821092950090
:1018B0001092940030939900209398008081886062
:1018C0008083808184608083C19A78940895109287
:1018D000950010929400089528B321FB882780F981
:1018E00090E021FF11C0F8941092900010929100A6
:1018F0001092950010929400C198E5E6F0E0808186
:1019000088608083789481E00895A8959DE088E1BF
:101910000FB6F894A895809360000FBE9093600076
:10192000A89584E190E00E94C33960E070E080E017
:1019300090E066DFF5CF60E070E0CB010E945022BE
:101940007C0160E20E94B5246AE070E0C7010E9459
:1019500099240EEB12E16894992491F80F2EFDE979
:10196000CF2EF2E1DF2EF02D80E090E00E94B63B1A
:10197000C82FD92F80E090E00E949C38DF93CF934E
:101980009F938F931F930F939F920E94C01A40E1E1
:1019900057E260E070E0C7010E94BD22EC018DB704
:1019A0009EB707960FB6F8949EBF0FBE8DBF2097C7
:1019B000D9F244E650E060E070E0CE010E94E222FD
:1019C0005C01892BD1F0CE010E94E0190A9781F4C5
:1019D000C5010E969F938F93DF92CF920E943F4353
:1019E000C5010E948D160F900F900F900F90E1CFC0
:1019F000B501CE010E94A52ADCCFCE010E94C718F6
:101A0000B3CF0F2EF6E9AF2EF2E1BF2EF02D12E08C
:101A10000F2EF9E8CF2EF2E1DF2EF02D0F2EFCE78E
:101A20008F2EF2E19F2EF02D0F2EF6E6EF2EF2E133
:101A3000FF2EF02D80E090E00E94B63BC82FD92FFA
:101A400080E090E00E949C38DF93CF939F938F9328
:101A5000BF92AF921F930E94C01A84E690E00E944A
:101A6000C339EDB7FEB7808191819F938F93DF9249
:101A7000CF921F930E94C01A00E02AE030E044E6B3
:101A800050E060E070E081E00E94EC29EC018DB74D
:101A90009EB70C960FB6F8949EBF0FBE8DBFCF3F7A
:101AA0009FEFD90741F49F928F921F920E94C01A14
:101AB0000F900F900F90DF93CF93FF92EF921F93B1
:101AC0000E94C01A84E690E00E94C3390F900F90E4
:101AD0000F900F900F90AECFCF92DF92EF92FF92C8
:101AE0000F931F93CF93DF9300D01F92CDB7DEB734
:101AF0009DE088E10FB6F894A895809360000FBE32
:101B00009093600073DE60E070E080E495E10E94F5
:101B1000E24283E090E09CD762E370E084E090E0F2
:101B2000BBD76C0186E00E942A22C80ED91E6CE742
:101B300072E080E00E941E21C80ED91E2FEF42E104
:101B400052E065E080E20E942C29C80ED91E61E0B7
:101B500070E084EB90E00E94C228C80ED91ECE012E
:101B600001967C0102E010E020E030E04CED50E016
:101B70006DEC72E08BE99CE00E94012EC80ED91E2C
:101B8000CE0103967C0101E010E020E030E04CED56
:101B900050E064ED72E081E09DE00E94012EC80EED
:101BA000D91E0F2EF6EEEF2EFFE1FF2EF02D03E0F3
:101BB00010E020E030E044EB50E06BED72E081E9B2
:101BC0009AE00E94012E8C0D9D1D892B81F062E010
:101BD00070E081E090E014DE0E94893882ED92E1AD
:101BE0009F938F930E943F430F900F90FFCF85EC00
:101BF00092E19F938F930E943F430E94401CE12CEF
:101C0000F12C03E020E030E044E650E061EE72E0C9
:101C100085E89CE00E94AF360E945E3880E090E04C
:101C20000F900F900F900F900F900F90DF91CF912A
:101C30001F910F91FF90EF90DF90CF9008951F922A
:101C40000F920FB60F9211240BB60F922F933F9362
:101C50004F935F936F937F938F939F93AF93BF93B4
:101C6000EF93FF93CF93DF931F92CDB7DEB7D89852
:101C70008091E61F9091E71F0E9407388983898130
:101C8000813011F40E94FB300F90DF91CF91FF91D2
:101C9000EF91BF91AF919F918F917F916F915F91E4
:101CA0004F913F912F910F900BBE0F900FBE0F9051
:101CB0001F9018951F920F920FB60F9211248AE56C
:101CC00092E19F938F930E943F430E9489388DE455
:101CD00092E19F938F930E943F430F900F900F903C
:101CE0000F90FFCF81E08093E81F8091EF1F882342
:101CF00099F08FB7F8949091EF1F913059F49DB3FC
:101D00009093ED1F2DB39091EE1F909592239DBB64
:101D10008FBF02C08093ED1F80E58CBD81E08DBD3B
:101D20002C9808952C9A8091EF1F882371F09FB70B
:101D3000F8948091EF1F813029F48091ED1F8DBBC5
:101D40009FBF08958091ED1F8FBF0895CF93DF93BC
:101D5000EC01F3D5249ACE01E5DFDF91CF91089510
:101D60001F93CF93DF93EC01162FBCDF83E08EBD72
:101D700000000DB407FEFDCF8EB51EBD00000DB4F2
:101D800007FEFDCF8EB51EBC00000DB407FEFDCFD3
:101D90001EB5CE01C7DF812FDF91CF911F9108952E
:101DA000EF92FF920F931F93CF93DF93EC01062FD7
:101DB0007A01122F97DF83E08EBD00000DB407FE7D
:101DC000FDCF8EB50EBD00000DB407FEFDCF8EB564
:101DD000112391F0F7011150412F50E04F5F5F4FF9
:101DE0004E0D5F1D1EBC00000DB407FEFDCF8EB56D
:101DF0008193E417F507B1F7CE0194DFDF91CF911E
:101E00001F910F91FF90EF9008950F931F93CF9321
:101E1000DF93EC01062F142F65DF82E08EBD0000FA
:101E20000DB407FEFDCF8EB50EBD00000DB407FE4C
:101E3000FDCF8EB51EBD00000DB407FEFDCF8EB5E3
:101E4000CE0170DFDF91CF911F910F910895EF9236
:101E5000FF920F931F93CF93DF93EC01062F7A012C
:101E6000122F40DF82E08EBD00000DB407FEFDCFD3
:101E70008EB50EBD00000DB407FEFDCF8EB511234B
:101E800091F0F7011150412F50E04F5F5F4F4E0D21
:101E90005F1D81918EBD00000DB407FEFDCF8EB594
:101EA000E417F507B1F7CE013DDFDF91CF911F9128
:101EB0000F91FF90EF900895FF920F931F93CF9390
:101EC000DF93EC01F62E042F122F0CDF85E08EBD80
:101ED00000000DB407FEFDCF8EB5FEBC00000DB4B2
:101EE00007FEFDCF8EB50EBD00000DB407FEFDCF81
:101EF0008EB51EBD00000DB407FEFDCF8EB5CE0120
:101F000011DFDF91CF911F910F91FF900895EF9214
:101F1000FF920F931F93CF93DF93CDB7DEB72E972A
:101F20000FB6F894DEBF0FBECDBF8C01DBDE80ECB8
:101F30008EBD00000DB407FEFDCF8EB5C801F2DEE8
:101F40008FE39CE90197F1F700C00000FE01319694
:101F50007F018EE011928A95E9F72EE0A70160E3F8
:101F6000C80175DF2EE0A70160E4C80170DF2EE034
:101F7000A70160E5C8016BDF40E060E6C80145DF0E
:101F800040E060E7C80141DF43E06BE2C8013DDFAC
:101F900024E044E660E6C8018FDF20E040E660E729
:101FA000C8018ADF80E02E960FB6F894DEBF0FBE20
:101FB000CDBFDF91CF911F910F91FF90EF900895CA
:101FC0001F93CF93DF93EC018DDE80EA8EBD00007E
:101FD0000DB407FEFDCF8EB51EBC00000DB407FE8C
:101FE000FDCF1EB5CE019EDE812FDF91CF911F91D7
:101FF00008950F931F93CF93DF93EC01162F0FB724
:10200000262F40EE6FE058DF789480E792E042DCC4
:1020100063DC019641F06EE0CE01A2DE807E1813F3
:10202000F7CF91E001C090E00FBF81E08927DF91F9
:10203000CF911F910F91089560E8DBCF089560E67E
:10204000D8CF089560E2D5CF089560E4D2CF089547
:1020500060E0CFCF0895EF92FF920F931F93CF933D
:10206000DF93EC01162F042FE7DF811198C10130B7
:1020700009F46DC008F4E2C0023009F038C1812FC4
:1020800090E08031910508F05EC1FC018827E75798
:10209000FF4F8F4F0C94164217E80F2EFFEBEF2ED9
:1020A000F02D0F2EF7E0FF2EF02D3FC115E80F2E7B
:1020B000F2EEEF2EF02D0F2EF7E4FF2EF02D35C1AE
:1020C00017E80F2EFFEBEF2EF02D0F2EF3E0FF2E73
:1020D000F02D2BC116E80F2EF4EBEF2EF02D0F2E66
:1020E000F3E0FF2EF02D21C117E80F2EFFEBEF2EAE
:1020F000F02DFF24F39419C116E80F2EF4EBEF2E08
:10210000F02DFF24F39411C115E80F2EF1EBEF2E03
:10211000F02DFF24F39409C116E80F2EF4EBEF2EF7
:10212000F02DF12C02C115E80F2EF1EBEF2EF02D62
:10213000F12CFBC012E80F2EF0E9EF2EF02DF12C60
:10214000F4C010E86894EE24E7F8F12CEEC0812F7B
:1021500090E08031910508F0F8C0FC018827E7562F
:10216000FF4F8F4F0C94164217E8EE24EA940F2E7F
:10217000FFE0FF2EF02DD9C015E80F2EF1EFEF2E66
:10218000F02D0F2EFEE4FF2EF02DCFC017E8EE2429
:10219000EA940F2EF7E0FF2EF02DC7C017E80F2EA0
:1021A000FAEFEF2EF02D0F2EF7E0FF2EF02DBDC031
:1021B00017E8EE24EA940F2EF3E0FF2EF02DB5C0C1
:1021C00017E00F2EFEEBEF2EF02D0F2EF3E0FF2E7B
:1021D000F02DABC017E80F2EFAEFEF2EF02D0F2EDB
:1021E000F3E0FF2EF02DA1C016E80F2EF0EFEF2E3A
:1021F000F02D0F2EF3E0FF2EF02D97C017E80F2ED5
:10220000FAEFEF2EF02DFF24F3948FC015E80F2E78
:10221000F1EFEF2EF02D0F2EF1E4FF2EF02D85C003
:1022200016E80F2EF0EFEF2EF02DF12C7EC012E805
:102230000F2EF0EDEF2EF02DF12C77C0812F90E0D6
:10224000FC013497EC30F10508F081C08827E75590
:10225000FF4F8F4F0C94164217E80F2EFAEFEF2E18
:10226000F02D0F2EF9E0FF2EF02D5FC017E8EE24C1
:10227000EA946894FF24F2F858C017E80F2EFEEF96
:10228000EF2EF02D6894FF24F2F84FC017E80F2EC0
:10229000FAEFEF2EF02D6894FF24F2F846C017E80D
:1022A0000F2EFAEFEF2EF02D0F2EF3E0FF2EF02D74
:1022B0003CC017E8EE24EA94FF24F39436C016E8F5
:1022C0000F2EFBEFEF2EF02D0F2EF1E4FF2EF02D51
:1022D0002CC017E80F2EFAEFEF2EF02DF12C25C0B1
:1022E00012E80F2EF9EDEF2EF02DF12C1EC080E03C
:1022F00019C00F2EFFEBEF2EF02D0F2EFFE1FF2E5A
:10230000F02D81E00FC0EE24EA940F2EFFE3FF2EA4
:10231000F02D81E007C0EE24EA940F2EFBE0FF2EA3
:10232000F02D81E08823A9F017E84F2D6AE2CE0155
:102330006CDD4E2D69E2CE0168DD412F68E2CE01F1
:1023400064DD80E02CC081E02AC081E028C081E00B
:1023500026C081E024C017E80F2EFFEBEF2EF02DF2
:102360000F2EFFE0FF2EF02DE0CF14E80F2EF4EA41
:10237000EF2EF02D0F2EF7E0FF2EF02DD6CF17E821
:10238000EE24EA940F2EFFE1FF2EF02DCECF17E8BA
:10239000EE24EA940F2EF9E0FF2EF02DC6CFDF9148
:1023A000CF911F910F91FF90EF90089541E053CE90
:1023B0000895CF93DF93EC016F3F51F420E044E0A8
:1023C0006FE07ADD20E840E868E2CE0175DD0EC0FE
:1023D000262F43E06FE070DD24E044E06FE0CE01A3
:1023E0006BDD20E040E868E2CE0166DD80E0DF9151
:1023F000CF9108950F931F93FB014423C9F00383EA
:102400001283890122273327802F8C71880F880F30
:10241000880F902F9370890F886081831695079598
:10242000129502950F7001271F70012700830EC0BF
:10243000C8019695879596958795969587958083FB
:102440000295000F007E0183138212821F910F916B
:1024500008958F929F92AF92BF92CF92DF92EF92A8
:10246000FF920F931F93CF93DF9300D01F92CDB7AE
:10247000DEB77C01D62EC42E48015901DDDD811165
:1024800019C0950184014C2DBE016F5F7F4FC701BC
:10249000B1DFDD2029F081E0D8120BC064E201C079
:1024A00060E224E0AE014F5F5F4FC701D0DC80E007
:1024B00001C081E00F900F900F900F90DF91CF91AE
:1024C0001F910F91FF90EF90DF90CF90BF90AF9052
:1024D0009F908F9008958F929F92AF92BF92CF92CC
:1024E000DF92EF92FF920F931F93CF93DF9300D071
:1024F0001F92CDB7DEB76C01F62EE42E48015901CC
:102500009BDD81113DC082E0F816A9F08F1530F0F7
:10251000FF2019F181E0F81651F031C084E0F8167F
:1025200091F0F81660F085E0F81691F028C06894F4
:10253000FF24F2F813C06894FF24F3F80FC06894E6
:10254000FF24F4F80BC00F2EF4E1FF2EF02D06C08F
:102550000F2EF8E1FF2EF02D01C0F12C9501840122
:102560004E2DBE016F5F7F4FC60144DF24E0AE01F8
:102570004F5F5F4F6F2DC6016ADC80E001C081E0D4
:102580000F900F900F900F90DF91CF911F910F91AF
:10259000FF90EF90DF90CF90BF90AF909F908F9083
:1025A00008954F925F926F927F92AF92BF92CF92B7
:1025B000DF92EF92FF920F931F93CF93DF93CDB7EC
:1025C000DEB72D970FB6F894DEBF0FBECDBF5C010E
:1025D0006A01E62EF12CFA010081118122813381FA
:1025E000B901A801442777FD43955527662777272A
:1025F00028013901442455246624F0E47F22332342
:102600002CF08FEF97E0A0E0B0E004C08FEF9FEFD9
:10261000AFEFBFE1082319232A233B23BE016F5FDD
:102620007F4FC501E7DE45284628472821F0F601FF
:102630008481806402C0F60184818D83F601148157
:10264000412F50E0B601685F7F4FCE0106960E9491
:10265000A34225E0210F8701000F111F0E0D1F1D42
:102660000E501D4FAE014F5F5F4FF8016181C501F4
:10267000EEDB28E048E0F8016081C5011DDC80E068
:102680002D960FB6F894DEBF0FBECDBFDF91CF9170
:102690001F910F91FF90EF90DF90CF90BF90AF9080
:1026A0007F906F905F904F9008959F92AF92BF92EE
:1026B000CF92DF92EF92FF920F931F93CF93DF930E
:1026C00000D0CDB7DEB76C01FB019481993048F59D
:1026D0007B01198281E08A8382E08B838E010F5F08
:1026E0001F4F5E01F4E0AF0EB11CF80191908F0115
:1026F000292D30E0F901EE0FFF1F2E0F3F1FF901CA
:10270000EE50FD4F6081C6012BDB83FD05C0A701A4
:10271000692DC60146DF06C00A151B0531F784E0A6
:1027200001C084E00F900F900F90DF91CF911F9127
:102730000F91FF90EF90DF90CF90BF90AF909F9060
:1027400008957F928F929F92AF92BF92CF92DF9225
:10275000EF92FF920F931F93CF93DF9300D01F92BE
:102760001F92CDB7DEB75C014A01062F10E0F801D9
:10277000EE0FFF1FEE0FFF1FE651FD4F25E0AE01EC
:102780004F5F5F4F61810CDB8A819981C82ED12C0C
:10279000D594C794D594C794D594C794D594C79429
:1027A000D594C79428E0929FC00CD11C11240D2C05
:1027B000000CEE08FF0883FF21C0CC0CDD1CEE1CD2
:1027C000FF1CCC0CDD1CEE1CFF1C8370C80ED11C42
:1027D000E11CF11CFE2CED2CDC2CCC248B81C80ED2
:1027E000D11CE11CF11CFE2CED2CDC2CCC248C81AA
:1027F000C80ED11CE11CF11C6894F7F88D818F7014
:10280000782E88E0871550F1F801EE0FFF1FEE0FCC
:10281000FF1FE651FD4F6081C501A2DA83FF02C0B0
:102820006894F6F8F401C082D182E282F382748265
:10283000A401485F5F4F000F111F000F111F0651C9
:102840001D4F272DF8016281C501AADA20E0F801A9
:1028500043816CE2C50130DB80E001C081E00F9074
:102860000F900F900F900F90DF91CF911F910F91CC
:10287000FF90EF90DF90CF90BF90AF909F908F90A0
:102880007F9008950F931F93CF93DF93EC018B01FB
:1028900097DB80FF05C0A80160E0CE0152DF08C0D1
:1028A00081FF05C0A80161E0CE014BDF01C085E0DA
:1028B000DF91CF911F910F91089582DB982F937034
:1028C00081E009F480E008956DE24ACA0895FCDFD2
:1028D000982F987F81E009F480E0089520E040EC93
:1028E0006DE2EACA08956CE23BCA089540E06CE2EA
:1028F0008CCA08956BE234CA089520E04CE16CE282
:10290000DBCA0895CF93DF93EC01DEDF882321F04B
:10291000CE01E4DFCE01EADFDF91CF91089520E020
:1029200040E86CE2C9CA089520E040E26CE2C4CA03
:10293000089560E315DA80E008959FB7F8948091D8
:10294000F01F81110FC0249A209A289A2C9A219A5C
:10295000229A8CB580618CBD8CB580648CBD8CB5A1
:1029600083608CBD8091F01F8F5F8093F01F9FBFAD
:1029700008959FB7F8948091F01F882329F0815023
:102980008093F01F811105C08CB58F7B8CBD109298
:10299000EF1F9FBF08952FB7F89490E088309105FE
:1029A000A8F4FC018827EB54FF4F8F4F0C9416427C
:1029B00080E212C081E010C082E00EC084E00CC052
:1029C00088E00AC080E408C080E806C082E0809306
:1029D000EF1F80E001C080E19091EE1F892B809372
:1029E000EE1F8091EF1F811103C081E08093EF1FE4
:1029F0002FBF08959091EF1F923049F12FB7F894AF
:102A000090E088309105B8F4FC018827E354FF4F2B
:102A10008F4F0C94164280E10FC080E20DC081E020
:102A20000BC082E009C084E007C088E005C080E4F4
:102A300003C080E801C080E080959091EE1F89235B
:102A40008093EE1F811102C01092EF1F2FBF0895D7
:102A50009093C5008093C400E0ECF0E08081826038
:102A6000808388E08093C10086E08093C20008954F
:102A7000E0ECF0E0908195FFFDCF8093C6000895D3
:102A8000CF93C82F8A3011F48DE0F2DF8C2FF0DF66
:102A900080E090E0CF910895CF92DF92EF92FF9285
:102AA0000F931F93CF93DF931F921F92CDB7DEB783
:102AB0009093F4038093F3039B01225F3F4F309385
:102AC000F2032093F1036B0122E1C20ED11C8C9D15
:102AD00080018D9D100D9C9D100D1124C8010E9438
:102AE00062249093F6038093F503892B09F452C076
:102AF00062E070E08091F3039091F4030E94F4256A
:102B00009093F8038093F703892BD9F1A80160E033
:102B100070E08091F5039091F6030E94AC428091A1
:102B2000F3039091F403892BC1F1E12CF12C00E027
:102B300010E0E091F503F091F603EE0DFF1DFA832E
:102B4000E98311821082E981FA81F383E28320E034
:102B500030E0A901BE016F5F7F4F8091F703909134
:102B6000F8030E94F8250F5F1F4FEC0CFD1C8091AD
:102B7000F3039091F40308171907D8F280E090E06E
:102B80000EC08091F5039091F6030E9465248FEFAB
:102B90009FEF05C08FEF9FEF02C080E090E00F90A5
:102BA0000F90DF91CF911F910F91FF90EF90DF90E9
:102BB000CF900895CF93DF931F921F92CDB7DEB7CA
:102BC0001A821982AC01425F5F4F2091F10330916C
:102BD000F2032417350780F49F938F9385EA92E0E0
:102BE0009F938F931F92CCD40F900F900F900F90C4
:102BF0000F9080E090E058C020E030E0A901BE01D5
:102C00006F5F7F4F8091F7039091F8030E94232616
:102C1000E981FA81309761F486E992E09F938F937E
:102C20001F92AED40F900F900F9080E090E03CC0C8
:102C300083818F9382818F93FF93EF938BE892E050
:102C40009F938F9383E08F939BD4E981FA810FB692
:102C5000F894DEBF0FBECDBF82819381E817F907DC
:102C6000D9F088E792E09F938F931F9289D4809147
:102C7000F5039091F6030E94CA2E6091F1037091C2
:102C8000F2038091F3039091F40306DF0F900F900D
:102C90000F9080E090E008C080819181019691833F
:102CA000808389819A8104960F900F90DF91CF9154
:102CB0000895CF93DF9300D0CDB7DEB71982009788
:102CC00031F1FC013497FB83EA8322813381E217DF
:102CD000F307E9F42081318121153105C1F022305B
:102CE000310528F0215031093183208310C0FC01C7
:102CF000349711821082AE014F5F5F4FBE016E5F4D
:102D00007F4F8091F7039091F8030E941C260F904B
:102D10000F900F90DF91CF910895CF93DF931F9283
:102D20001F92CDB7DEB7009751F48BE592E09F93E9
:102D30008F931F9225D40F900F900F9063C0FC01CA
:102D40003497FA83E98322813381E217F30771F024
:102D50009F938F9387E392E09F938F931F9210D45A
:102D60000F900F900F900F900F904CC0DC011497B4
:102D70002D913C912115310571F4FF93EF938AE178
:102D800092E09F938F931F92FBD30F900F900F9021
:102D90000F900F9037C022303105B0F0215031092B
:102DA000DC0114972D933C933F932F93FF93EF9364
:102DB00087EF91E09F938F931F92E2D30FB6F89421
:102DC000DEBF0FBECDBF1EC0DC0114971D921C924A
:102DD000FF93EF938EEE91E09F938F9383E08F9319
:102DE000CFD320E030E0A901BE016F5F7F4F80911B
:102DF000F7039091F8030E94F8250F900F900F9021
:102E00000F900F900F900F90DF91CF9108958091C8
:102E1000F7039091F8030C94442608950F931F93A1
:102E2000CF93DF931F921F92CDB7DEB78C0105C001
:102E300089819A81009709F070DF20E030E0A901D4
:102E4000BE016F5F7F4FF801848595850E94232620
:102E5000019771F380E090E00F900F90DF91CF9198
:102E60001F910F9108950F931F93CF93DF931F929C
:102E70001F92CDB7DEB77A836983009741F18C0149
:102E800020E030E0A901BE016F5F7F4FFC01848527
:102E900095850E94F8250197E9F0F80184859585CC
:102EA0000E9444269F938F93F80185858F93848594
:102EB0008F9380EB94E09F938F931F9261D30FB613
:102EC000F894DEBF0FBECDBF8FEF9FEF05C08EEF32
:102ED0009FEF02C080E090E00F900F90DF91CF91C4
:102EE0001F910F9108950F931F93CF93DF930E942B
:102EF000142ECB010E948B420E9488428F719078E1
:102F0000992324F40197806E9F6F0196805E8093D1
:102F1000FC038AEF93E00E947429019729F4C1E031
:102F2000D4E001EF14E01CC08DE894E09F938F93F0
:102F30001F9226D30F900F900F908FEF9FEF35C009
:102F40008CE694E09F938F931F921AD30F900F906B
:102F50000F908FEF9FEF29C068960C171D0789F01F
:102F600062E070E084E690E00E94F4259B878A8707
:102F7000FE0131971082CE010E946229019761F310
:102F8000DFCF8DEF93E00E947429019761F08AE40E
:102F900094E09F938F931F92F3D20F900F900F9016
:102FA0008FEF9FEF02C080E090E0DF91CF911F9103
:102FB0000F9108958F929F92AF92BF92CF92DF921E
:102FC000EF92FF926B017C0149015A01EFEFF3E0B0
:102FD00080E090E03181332309F1208121111EC06E
:102FE00044815581668177814C255D256E257F253D
:102FF000482159216A217B21452B462B472B71F40F
:103000009C01220F331F820F931F880F991F880F77
:10301000991F880F991F81509C4F07C00196789681
:103020008A309105B9F680E090E0FF90EF90DF9054
:10303000CF90BF90AF909F908F9008951F93CF93A4
:10304000DF93182F44E650E060E070E08DEF93E0EE
:103050000E948C29019761F080E394E09F938F9305
:103060001F928ED20F900F900F9080E090E05CC086
:103070008091F90390E001966AE070E00E94C541FA
:10308000FC01EE0FFF1FE80FF91FEE0FFF1FEE0F01
:10309000FF1FEE0FFF1FE150FC4F418141113AC06D
:1030A000EF0117C0EC01CC0FDD1FC80FD91FCC0FEB
:1030B000DD1FCC0FDD1FCC0FDD1FC150DC4F498160
:1030C000442339F00196BF010E94C54121503109C6
:1030D00049F72981213081F487E194E09F938F9310
:1030E0001F924ED28DEF93E00E94C7290F900F9050
:1030F0000F9080E090E018C091E099831F861E86B3
:1031000018838093F9038DEF93E00E94C7298C2FD9
:103110009D2F0AC001966AE070E00E94C54129E037
:1031200030E0EAE0F0E0BECFDF91CF911F9108954B
:103130008F929F92AF92BF92CF92DF92EF92FF92C7
:10314000CF93DF934B015C0169017A0180E076DF68
:10315000EC01892B81F08C829D82AE82BF82C88671
:10316000D986EA86FB860E94142E688B798B8A8B1F
:103170009B8BCE0153DECE01DF91CF91FF90EF907C
:10318000DF90CF90BF90AF909F908F900895CF9396
:10319000DF93EC01892B61F487EF93E09F938F938A
:1031A0001F92EED10F900F900F908EEF9FEF2FC0D8
:1031B000898181110DC083EE93E09F938F9385E009
:1031C0008F93DED10F900F900F9080E090E01FC0A2
:1031D00044E650E060E070E08DEF93E00E948C29BF
:1031E000019761F089EC93E09F938F931F92C8D170
:1031F0000F900F900F908DEF9FEF09C01982CE01B5
:103200000DDE8DEF93E00E94C72980E090E0DF9112
:10321000CF9108956F927F928F929F92AF92BF92BB
:10322000CF92DF92EF92FF920F931F93CF93DF9392
:10323000862E142F982E990C990C990C990C990C98
:10324000990C092D0E941822C82FC295C07F829523
:103250008170082B882D8F71982F990F092B912F32
:103260009F73A92ED92FB12C880C880C880C880C40
:1032700082958F70982A0E9418228F71880F982A41
:103280001295110F110F107CA694A6948A28C0FEE7
:103290000CC08EE793E09F938F931F9271D10F9094
:1032A0000F900F9080E090E07CC0C2FE0CC083E2E3
:1032B00093E09F938F931F9263D10F900F900F9085
:1032C00080E090E06EC0C4FE0CC08CEC92E09F9356
:1032D0008F931F9255D10F900F900F9080E090E048
:1032E00060C0C6FE05C0BB24B3946624639401C0CD
:1032F000612C48EE53E060E070E08AEF93E00E94BA
:103300008C29019709F046C0A090FC0368947724AB
:1033100075F81FC0903410F07092FC038091FC038C
:10332000982F9F73107C192B8295880F880F807CB3
:10333000DF73D82B96959695C07FC92B20E030EC93
:103340004FE050E06B2D7D2F8C2F902F33DE892B9B
:1033500039F09091FC039F5F9093FC03A912DACFA0
:103360008AEF93E00E94C7298091FC03A816A9F078
:10337000262D312F482D592D6B2D7D2F8C2F902FE1
:10338000D7DEFC01009761F0C48AD58AE68AF78A05
:103390009F2F07C080E090E004C080E090E001C073
:1033A0009F2FDF91CF911F910F91FF90EF90DF90B2
:1033B000CF90BF90AF909F908F907F906F90089527
:1033C000FC019581929596959695937086818F7064
:1033D000880F880F892B90E00895CF92DF92EF92AB
:1033E000FF920F931F93CF93DF938A019B010150AC
:1033F000110921093109452B462B472B39F1C82FDB
:10340000D92F4FEF5FEFBA0189916A017B01C8267E
:10341000D701C6019927AA27BB27FC01EE0FFF1F82
:10342000EE0FFF1FE153FB4F85919591A591B4914C
:10343000452F562F672F7727482759276A277B273D
:103440000150110921093109F8F603C04FEF5FEF70
:10345000BA01CB01BA016095709580959095DF9186
:10346000CF911F910F91FF90EF90DF90CF90089533
:10347000CF93DF93009719F1EC01662349F048855B
:1034800059854C5F5F4F60E070E00A96A6DF06C08A
:103490004885598560E070E00E969FDFF0D0E885A2
:1034A000F985EC0FFD1F66877787808B918B888568
:1034B000998504969987888780E090E002C08EEF16
:1034C0009FEFDF91CF910895EF92FF920F931F939B
:1034D000CF93DF9300D01F92CDB7DEB7009709F4EA
:1034E0003CC0FC014085518544305105C8F18C0138
:1034F000662349F060E070E00A966FDF69837A83A3
:103500008B839C830AC04450510960E070E00E96A2
:1035100064DF69837A838B839C8369817A818B8161
:103520009C81ADD069837A838B839C83F801E0848E
:10353000F184C8018E0D9F1D44E050E0BE016F5F15
:103540007F4F0A960E949642009769F4F4E0EF1AC2
:10355000F108F801F186E08608C08EEF9FEF05C004
:103560008EEF9FEF02C08EEF9FEF0F900F900F90A6
:103570000F90DF91CF911F910F91FF90EF900895E1
:10358000FF920F931F93CF93DF93CDB7DEB71985CB
:10359000183008F066C0E12FF0E0E65FFD4F808153
:1035A000882309F45EC0812F90E08830910508F0EF
:1035B00058C0FC018827EE58FF4F8F4F0C941642DD
:1035C00082E10BC084E109C086E007C083E005C04A
:1035D00085E003C087E001C083E1AE01445F5F4F37
:1035E000F42E052FE091EF04F091F004309729F0CC
:1035F0006A857B85812F199517C00E94AB2D4F2DB1
:10360000502F6A857B8580917520909176200E944D
:10361000004489EE98E09F938F930E943F4380EF90
:103620000E94AB2D0F900F901630D9F480E090E0FF
:103630000E949C389F938F938CED98E09F938F937B
:103640000E943F430E9489388FEC98E09F938F93AC
:103650000E943F430F900F900F900F900F900F908C
:10366000FFCFDF91CF911F910F91FF900895982781
:103670008927982708959827892798270895CF9212
:10368000DF92EF92FF920F931F93C92EDD24EE2459
:10369000FF24362F2227112700270C291D292E2928
:1036A0003F296B017C01CC24EE24FF24FE2CED2C61
:1036B000DC2CCC240C291D292E293F29DC01CB012F
:1036C00088279927BB27892F9A2FAB2FBB27BC01AF
:1036D000CD01602B712B822B932B1F910F91FF90AB
:1036E000EF90DF90CF900895CF92DF92EF92FF920C
:1036F0000F931F93C92EDD24EE24FF24362F22279B
:10370000112700270C291D292E293F296B017C0137
:10371000CC24EE24FF24FE2CED2CDC2CCC240C2914
:103720001D292E293F29DC01CB0188279927BB279A
:10373000892F9A2FAB2FBB27BC01CD01602B712B9A
:10374000822B932B1F910F91FF90EF90DF90CF90E2
:1037500008950F931F93CF93DF93C82FD92F162F60
:10376000072F2115310580E14807510560F0CA0196
:10377000B9010E94D44020E030E040E855E30E94C7
:1037800011412DE417C0211584E03807410551058A
:1037900060F0CA01B9010E94D44020E030E040E866
:1037A0005AE30E9411412BE405C0CA01B9010E94ED
:1037B000D44022E41F922F939F938F937F936F9314
:1037C0008CEE98E09F938F930F931F93DF93CF938B
:1037D0000E9496432DB73EB7245F3F4F0FB6F89433
:1037E0003EBF0FBE2DBFDF91CF911F910F91089566
:1037F0000F931F93CF93DF938C01C091F104D0916D
:10380000F204209771F04AE050E0B8018881998174
:103810000E94BA42892B29F009A8DAA9C02D209765
:1038200091F7CE01DF91CF911F910F910895A09153
:10383000F104B091F204109741F49093F204809354
:10384000F104FC0112AA11AA0895A817B907B9F04A
:10385000D196ED91FC91D297309741F4FD010AC0C9
:1038600021A932A92115310529F0F9018E179F07E9
:10387000B9F7089592AB81ABFC0112AA11AA089581
:10388000AF92BF92CF92DF92EF92FF920F931F936E
:10389000CF93DF93CDB7DEB7E2970FB6F894DEBFD4
:1038A0000FBECDBF0091F1041091F2040115110576
:1038B00009F480C0CE0101965C017E019AE1E90E17
:1038C000F11C0F2EF3EFCF2EF8E0DF2EF02DF801D4
:1038D00025A136A147A150A569E170E0C50139DFF6
:1038E000F80121A532A543A554A569E170E0C701FF
:1038F00030DFFF92EF92F80184A58F9383A58F9319
:1039000082A58F9381A58F93BF92AF9280A58F934D
:1039100087A18F9386A18F9385A18F9384A18F9385
:1039200083A18F9382A18F9381A18F9380A18F9385
:10393000878D8F93868D8F93858D8F93848D8F93B5
:10394000838D8F93828D8F93818D8F93808D8F93B5
:1039500087898F9386898F9385898F9384898F93A5
:1039600083898F9382898F9381898F9380898F93A5
:1039700087858F9386858F9385858F9384858F9395
:1039800083858F9382858F9381858F9381818F9398
:1039900080818F93DF92CF920E943F43F80101A96B
:1039A00012A90FB6F894DEBF0FBECDBF01151105E9
:1039B00009F08DCFE2960FB6F894DEBF0FBECDBFF3
:1039C000DF91CF911F910F91FF90EF90DF90CF90FB
:1039D000BF90AF900895CF93DF93EC018A859B85CC
:1039E000009709F09AD91B861A861C8619821882BC
:1039F0001E821F82188619861D861E861F86188ABB
:103A00001A821B821C821D8280E090E0DF91CF91A0
:103A100008952F923F924F925F926F927F928F9272
:103A20009F92AF92BF92CF92DF92EF92FF920F934D
:103A30001F93CF93DF93CDB7DEB760970FB6F8949F
:103A4000DEBF0FBECDBF7A87698748EE53E060E0E6
:103A500070E081EA95E00E948C29019789F48090BA
:103A6000A3059090A405C401019693709093A405BA
:103A70008093A30581EA95E00E94C72999207CF4F0
:103A80008DEC99E09F938F9381E08F9379DD0F9078
:103A90000F900F904EEF5FEF588B4F8715C1A985A0
:103AA000BA851C969C911C9792959F701D968C913F
:103AB00081708295807F892B0E940B298F3F59F45A
:103AC000E985FA858485982F92959F708585817008
:103AD0008295807F892B8F71C82ED12CE12CF12CFF
:103AE0000B2EB3E1CC0CDD1CEE1CFF1CBA95D1F7FC
:103AF000B02DF3E09F22092C000CAA08BB08A98571
:103B0000BA8518962D913C911997C90105969695FD
:103B10008795969587959695879590E0A0E0B0E07B
:103B2000072E7AE0880F991FAA1FBB1F7A95D1F73D
:103B3000702DE985FA85458546954F71240135013B
:103B4000742A84299529A629B7292C013D014C28DE
:103B50005D286E287F284B865C866D867E863901BF
:103B60002330310520F06894662461F8712CA98512
:103B7000BA851A966D917D918D919C911D977FDDEF
:103B80001B012C01E985FA858085918570DD2982EC
:103B90003A824B825C829E838D8383011127298424
:103BA0003A84FEE02F0E311CA801B101CE01079628
:103BB0000E94A34226E0260DAE014F5F5F4F6B854A
:103BC0007C858D859E850E94160A988B8F87892B10
:103BD00009F46EC086EA99E09F938F9381E08F93FA
:103BE000CFDC0F900F900F9045EF5FEF588B4F8712
:103BF0006BC0801B910BFC018930910510F0E8E04F
:103C0000F0E0A985BA851D962C9126952F71240187
:103C10003501722A689462F84C285D286E287F2846
:103C20009F013327A801420F531F5C874B87A101D7
:103C3000400F511F0796821B930B9695879596957B
:103C400087959695879590E0A0E0B0E0072E7AE002
:103C5000880F991FAA1FBB1F7A95D1F7702DBC0141
:103C6000CD0164297529862997292E2F0E94160ACD
:103C7000892BE1F08EE799E09F938F9381E08F93FA
:103C80007FDCE2E1F2E081899289A389B48901961F
:103C9000A11DB11D818B928BA38BB48B0F900F90C4
:103CA0000F9065EF7FEF788B6F870EC00B851C85BB
:103CB000A985BA8518968D919C91199708171907AF
:103CC00008F497CFCD0129D88F85988960960FB6D3
:103CD000F894DEBF0FBECDBFDF91CF911F910F9142
:103CE000FF90EF90DF90CF90BF90AF909F908F901C
:103CF0007F906F905F904F903F902F900895CF935B
:103D0000DF93CDB7DEB72D970FB6F894DEBF0FBEA9
:103D1000CDBF0F2EF4E2EF2EFBE0FF2EF02D0F2E85
:103D2000F0E58F2EFAE09F2EF02D0F2EF7E92F2EC3
:103D3000FAE03F2EF02D0F2EF7E0CF2EFBE0DF2E26
:103D4000F02D80E090E00E94B63B182F092F80E014
:103D500090E00E949C380F931F939F938F93FF9244
:103D6000EF9282E08F930CDC28EE33E040E050E0ED
:103D7000BE016F5F7F4F80919D0590919E0563D737
:103D80000FB6F894DEBF0FBECDBF019789F103EFE8
:103D900014E00F2EFDE9AF2EF5E0BF2EF02D5524D7
:103DA0005394D8011C968C918130E1F40E94142E1A
:103DB000F8012585368547855089DC01CB01821BBA
:103DC000930BA40BB50B813D9740A105B10550F0B5
:103DD000DF92CF925F92D4DB802F912FFCDD0F908A
:103DE0000F900F900F5E1F4FA016B106D1F6A9CF0E
:103DF00049805A806B807C80E9EFF4E080E090E0BD
:103E000026812130D1F54081518162817381442521
:103E10005525662577255370687F7F71452B462B86
:103E2000472B59F521E1289F8001299F100D11246E
:103E30000D501B4F0E94142ED8011D966D937D933B
:103E40008D939C935097D301C201072E72E1B695D2
:103E5000A795979587957A95D1F7702DAC01BD01FF
:103E6000417055276627772780FF6DC04130510587
:103E70006105710509F411C1A2C1019671968A30DC
:103E8000910509F0BDCF62FC46C08091FF048823F4
:103E900009F4A2C1E3EFF4E081E090E0258D211167
:103EA0001DC021E1289F8001299F100D11240D5074
:103EB0001B4F81E0F80184874682578260867186B5
:103EC00012821382148215820E94142ED8011D962C
:103ED0006D937D938D939C93509735C00196719609
:103EE0008A309105D9F684EE9AE09F938F9381E012
:103EF0008F9346DBE2E1F2E085899689A789B08D50
:103F00000196A11DB11D858B968BA78BB08F0F904D
:103F10000F900F9016CFE3ECFAE0FF93EF9381E060
:103F20008F932EDBE2E1F2E081A192A1A3A1B4A1E3
:103F30000196A11DB11D81A392A3A3A3B4A30F90C9
:103F40000F900F90FECE8D818630D0F488EA9AE0F3
:103F50009F938F9381E08F9313DBE2E1F2E081A1E5
:103F600092A1A3A1B4A10196A11DB11D81A392A309
:103F7000A3A3B4A3C8012FDD0F900F900F90E1CE43
:103F8000F80182859385892BB1F03F922F9281E0D1
:103F90008F93F6DAE2E1F2E081A192A1A3A1B4A1AC
:103FA0000196A11DB11D81A392A3A3A3B4A30F9059
:103FB0000F900F9024C082E390E00E94DA15D801A0
:103FC0001B969C938E931A97892BC9F4EDE6FAE021
:103FD000FF93EF931F92D4DAE2E1F2E081A192A184
:103FE000A3A1B4A10196A11DB11D81A392A3A3A376
:103FF000B4A3C801F0DC0F900F900F90A2CED801AF
:104000001A96ED91FC911B978E819F8193878287F1
:1040100088859985958784871A96AD90BC901B9763
:10402000F50162857385848595855EDBD5011A96D9
:104030006D937D938D939C931D97D8011A96ED9166
:10404000FC911B978A859B85918780871A96AD90F6
:10405000BC901B97F501808591850DDBD5011996E4
:104060009C938E931897F80111821082D301C2019C
:10407000072E7AE0B695A795979587957A95D1F70B
:10408000702D9927AA27BB270196A11DB11D8283F8
:104090009383A483B58326E001C020E0032E3AE099
:1040A00076946794579447943A95D1F7302D5524D8
:1040B00066247724F80182819381A481B5810197D8
:1040C000A109B109481659066A067B06B9F09F9204
:1040D0008F921F9255DAC8017EDCE2E1F2E081A105
:1040E00092A1A3A1B4A10196A11DB11D81A392A388
:1040F000A3A3B4A30F900F900F9023CE42825382BC
:1041000064827582808191814D81622F70E002848A
:10411000F385E02DDC01A40FB11DA61BB70BA08415
:10412000B184AA16BB06C8F4EDE3FAE0FF93EF935F
:104130001F9226DAE2E1F2E081A192A1A3A1B4A14B
:104140000196A11DB11D81A392A3A3A3B4A3C8018D
:1041500042DC0F900F900F90F4CDA22EB12C0E9652
:1041600050E04A195B09A6E0B0E0AC0FBD1F6A0F32
:104170007B1F8E0F9F1F0E94A3428D8190E08A19A2
:104180009B09F80120813181820F931F91838083E5
:104190000284F385E02D208531858217930709F08D
:1041A000D0CD40E050E062E172E0CF0169D4D801A7
:1041B0001B961C921E921A97C8010DDCC2CD8BE192
:1041C0009AE09F938F9381E08F93DAD9C80103DC43
:1041D0000F900F900F90B5CD81E08093FF04409237
:1041E000F9045092FA046092FB047092FC0410925D
:1041F000F5041092F6041092F7041092F8040E944D
:10420000142E60930005709301058093020590932E
:10421000030503EF14E097CEAB01BC0180919D052F
:1042200090919E0509D521E030E0019711F420E03E
:1042300030E088279927821B930B08958F929F92D5
:10424000AF92BF92EF92FF920F931F93CF93DF93A2
:10425000182FEB01E3EFF4E08DE995E01182108275
:10426000168217821086118613861286148615868A
:1042700016861786108A128213821482158271960E
:10428000E817F90759F70E94142ECB010E948B42C0
:104290000E94884293709093A4058093A30581EABD
:1042A00095E00E947429019709F48EC085EF99E08A
:1042B0009F938F931F9264D985E99BE09F938F937F
:1042C0001F925ED90F900F900F900F900F900F904C
:1042D0008FEF9FEF7CC0113061F084E89BE09F93EB
:1042E0008F931F924DD90F900F900F908EEF9FEFED
:1042F0006EC0812C912C540107C00F2E812C912C63
:10430000F8EFAF2EB12CF02D6DE070E080E290E080
:104310006BD490939E0580939D05892B61F486E66E
:104320009BE09F938F931F922BD90F900F900F902C
:104330008FEF9FEF4CC00F2EFFE9EF2EF5E0FF2E21
:10434000F02D03E010E020E030E048EC50E066E8BB
:1043500072E08FE79EE10E94012E892B61F08BE4D1
:104360009BE09F938F931F920BD90F900F900F900C
:104370008FEF9FEF2CC05CD08F7190E0A0E0B0E099
:10438000BC01CD01052E53E1660F771F881F991FD1
:104390005A95D1F7502D8E01A50194010E94A209D2
:1043A000892B61F08BE29BE09F938F931F92E8D85B
:1043B0000F900F900F9085EF9FEF09C082E192E080
:1043C00036DA80E090E003C0111185CF96CFDF91FF
:1043D000CF911F910F91FF90EF90BF90AF909F9062
:1043E0008F9008950F931F93CF93DF938B01FB0161
:1043F000C4858C2F82958F70C585C170C295C07F92
:10440000C82BD0E015D090E0C817D90721F0C8011B
:104410000E948D1606C040E050E065E472E0C801DD
:104420002FD380E090E0DF91CF911F910F910895FD
:104430008091A90508958091A7059091A8050895F8
:104440008091A5059091A60508958091780290919C
:1044500079020895CF93DF938093A9050E94731783
:104460000097D9F45CD20097C1F4E1D2EC01009737
:1044700099F485E492E0DBD92FEF45E452E065E062
:104480008091A905E9D62FEF45E452E065E080E28E
:10449000E3D68C2F9D2F01C09D2FDF91CF910895E2
:1044A000CF92DF92EF92FF92CF93DF936B017C016B
:1044B00060FF0CC088EF9DE09F938F931F9260D8A0
:1044C0000F900F900F9080E090E050C064FF0CC000
:1044D00081EA9DE09F938F931F9252D80F900F9087
:1044E0000F9080E090E042C062FF0CC08AE49DE043
:1044F0009F938F931F9244D80F900F900F9080E05E
:1045000090E034C0DC01CB018A7A9E7F892B8A2B14
:104510008B2B61F084E39DE09F938F931F9230D8A3
:104520000F900F900F9080E090E020C081E00E94FB
:104530001E18EC01892BA9F0D0FE0AC062E070E0E1
:1045400084E690E051D39F878E87892B19F40CC0A5
:104550001F861E86CC8ADD8AEE8AFF8A8C2F9D2FCD
:1045600005C080E090E002C080E090E0DF91CF9154
:10457000FF90EF90DF90CF900895CF93DF931F923D
:104580001F92CDB7DEB7009781F0FC018685978535
:10459000009771F09A01AB01BE016F5F7F4F53D35B
:1045A000019749F489819A8108C080E090E005C0B4
:1045B00080E090E002C080E090E00F900F90DF91EB
:1045C000CF910895CF93DF931F921F92CDB7DEB79F
:1045D0001A821982009789F0FC012181213081F42F
:1045E0009A01AB01BE016F5F7F4F848595852BD308
:1045F000019749F489819A8108C080E090E005C064
:1046000080E090E002C080E090E00F900F90DF919A
:10461000CF9108954F925F926F927F928F929F9267
:10462000AF92BF92CF92DF92EF92FF920F931F93C0
:10463000CF93DF93862E972EA82EB92E6A01E9011B
:10464000270138014115510569F48CE09DE09F93E5
:104650008F931F920E94C01A0F900F900F9086EFB9
:104660009FEFD5C0209721F08C819D81892BB9F4D3
:10467000BF92AF929F928F9284EF9CE09F938F9313
:104680001F920E94C01A2DB73EB7295F3F4F0FB649
:10469000F8943EBF0FBE2DBF86EF9FEFB8C08B2DA5
:1046A00086958F71082F10E099819F9398819F9331
:1046B000FA0191859F9390859F931F926F939B2DF5
:1046C00092959695969593701F929F93972F9F73AF
:1046D0001F929F93272F22952695269523709A2D1A
:1046E0009F70990F990F922B1F929F932A2D2295BD
:1046F0002F709B2D91709295907F922B1F929F937C
:104700001F928F9385EB9CE09F938F9384E08F9310
:104710000E94C01AF60182869386A486B58680918F
:10472000A90590E02DB73EB72D5E3F4F0FB6F89428
:104730003EBF0FBE2DBF0817190781F583FE0CC0C1
:1047400086E59CE09F938F9381E08F930E94C01A2F
:104750000F900F900F904EC080FE12C060E0C60117
:104760000E94381A892B61F081E49CE09F938F931B
:1047700081E08F930E94C01A0F900F900F903AC063
:1047800082FE0CC08DED9BE09F938F9381E08F9311
:104790000E94C01A0F900F900F902CC0F601008558
:1047A00011858E819F81009719F08017910710F174
:1047B000EC81FD81A3019201B601CE01199500970C
:1047C000C9F449855A856B857C854F5F5F4F6F4F74
:1047D0007F4F49875A876B877C874DA15EA16FA168
:1047E00078A5400F511F611D711D4DA35EA36FA3DE
:1047F00078A70DC089899A89AB89BC890196A11DCA
:10480000B11D898B9A8BAB8BBC8B86EF9FEFDF91B1
:10481000CF911F910F91FF90EF90DF90CF90BF90BD
:10482000AF909F908F907F906F905F904F90089582
:104830008F929F92AF92BF92CF92DF92EF92FF92B0
:104840000F931F93CF93DF93EC016B0149015A0142
:10485000892B29F0672B19F08981813069F084EC6C
:104860009BE09F938F931F920E94C01A0F900F900E
:104870000F9080E090E019C09A8592959F708B858B
:1048800081708295807F892BA6D49C01688579856B
:104890008A859B8585017401A601BCDE31E020E09C
:1048A000892B09F030E0832F922FDF91CF911F9158
:1048B0000F91FF90EF90DF90CF90BF90AF909F90BF
:1048C0008F9008950C940A2F08950C94CA2E089581
:1048D00080329105F0F4FC01EE0FFF1FE80FF91F85
:1048E000E655FA4F2081213059F4FC01EE0FFF1FED
:1048F0008E0F9F1FFC01E655FA4F8181928108952A
:1049000080910A06813041F480910B0690910C064B
:10491000089580E090E0089580E090E0089583E6B7
:10492000EAEAF5E0DF011D928A95E9F780E090E080
:104930000895CF93DF939C01892B91F0CB01E9017E
:1049400062E070E051D19F878E8721E030E0892BB3
:1049500011F020E030E088279927821B930B02C0DA
:104960008EEF9FEFDF91CF9108950F931F93CF9319
:10497000DF93009709F454C08C01613290F01F92CC
:1049800080E28F9384E89EE09F938F931F920E9412
:10499000C01A0F900F900F900F900F908EEF9FEF17
:1049A00041C0C62FD0E0FE01EE0FFF1FEC0FFD1F30
:1049B000E655FA4F8081882389F01F926F938AE62B
:1049C0009EE09F938F931F920E94C01A0F900F90AA
:1049D0000F900F900F908CEF9FEF24C01F926F935A
:1049E0001F930F938DE49EE09F938F9382E08F93AC
:1049F0000E94C01ACE01880F991FC80FD91FC65533
:104A0000DA4F1A83098381E088838DB79EB70796B2
:104A10000FB6F8949EBF0FBE8DBF80E090E002C03D
:104A20008EEF9FEFDF91CF911F910F9108958091AD
:104A30000D0690910E06892B59F464E070E08AE02F
:104A400090E0D2D090930E0680930D06892B19F03A
:104A500080E090E008958FEF9FEF08952FEF3FEFF4
:104A600040E050E0BC0180910D0690910E06EBD025
:104A7000019719F480E090E008958DEF9FEF08957D
:104A8000CF92DF92EF92FF920F931F93CF93DF931A
:104A900000D01F92CDB7DEB77C018B016A01009771
:104AA00061F482E39FE09F938F9381E08F930E9454
:104AB000C01A0F900F900F908AC061157105A9F46C
:104AC00088E09FE09F938F9381E08F930E94C01AAC
:104AD0000F900F900F90CD2821F4C7010E948D16E2
:104AE00076C0C7010E94591672C07A8369839C837D
:104AF0008B834115510579F420E030E0A901BE0116
:104B00006F5F7F4F80910D0690910E0671D00197D7
:104B100009F043C00AC0BE016F5F7F4F80910D0650
:104B200090910E0689D00197E9F4F8018585968564
:104B3000A785B0890196A11DB11D85879687A78796
:104B4000B08BF70120853185F80181A592A5A3A539
:104B5000B4A5820F931FA11DB11D81A792A7A3A782
:104B6000B4A735C084ED9EE09F938F9381E08F932F
:104B70000E94C01AF801818D928DA38DB48D01968B
:104B8000A11DB11D818F928FA38FB48FC7010E9489
:104B900059160F900F900F901AC084ED9EE09F93CE
:104BA0008F9381E08F930E94C01AF801818D928DBE
:104BB000A38DB48D0196A11DB11D818F928FA38FFE
:104BC000B48FC7010E948D160F900F900F900F9019
:104BD0000F900F900F90DF91CF911F910F91FF9049
:104BE000EF90DF90CF90089540E00C94D23208957A
:104BF0000F931F93CF93DF93EC018B01CA01B9018F
:104C00006F3F2FEF72078105910541F02AE030E0F8
:104C100040E050E00E94D841CA01B90120E0AB0158
:104C2000B801CE010E940033082E000C990BDF91D1
:104C3000CF911F910F91089520E00E94AA33082E72
:104C4000000C990B08950F931F93CF93DF93EC0102
:104C50008B012F3F8FEF38074105510541F0CA0105
:104C6000B9012AE030E040E050E00E94D841A901BB
:104C7000B801CE010E94E233082E000C990BDF919F
:104C8000CF911F910F9108950E945C3590E0089597
:104C90000F931F93CF93DF938A01E9018A8580FFE9
:104CA00032C0888599858430910570F49F938F93E5
:104CB00088ED9FE09F938F931F920E94C01A0F90E0
:104CC0000F900F900F900F9060E0CE010E94641A39
:104CD000009759F18CEA9FE09F938F931F920E9457
:104CE000C01AF80185899689A789B08D0196A11D02
:104CF000B11D858B968BA78BB08F0F900F900F9067
:104D00008AE99FEF12C066FF0EC08CE79FE09F9379
:104D10008F9381E08F930E94C01A0F900F900F9095
:104D200080E090E002C080E090E0DF91CF911F91A1
:104D30000F910895CF92DF92EF92FF920F931F93FE
:104D4000CF93DF9300D000D0CDB7DEB7CE01019670
:104D500085DE6C01892B09F0A0C1EB81FC81FE830B
:104D6000ED83A981BA8111968C9111978F938C91C3
:104D70008F9381858F9380858F9382851F928F93E8
:104D8000858582958695869583701F928F938385FE
:104D90008F731F928F938385982F929596959695F2
:104DA000937084858F70880F880F892B1F928F9343
:104DB0008485982F92959F70858581708295807FDC
:104DC000892B1F928F93858586958F711F928F9364
:104DD0008DE491E19F938F9384E08F930E94C01A9A
:104DE000ED81FE810485802F82958F70058501708D
:104DF0000295007F082B10E01BDB90E00FB6F894C3
:104E0000DEBF0FBECDBF0817190709F43FC0ED8103
:104E1000FE818485982F92959F70858581708295FB
:104E2000807F892B8F3191F1D6D1FC01009741F021
:104E300029813A818217930741F42085211105C009
:104E40008D819E810E948D1667C14D815E81DA0140
:104E50001A966D917D918D919C911D97E12CF12C6D
:104E600087019F01D7DB009709F41BC187E391E11C
:104E70009F938F9381E08F930E94C01A8D819E81B2
:104E80000E948D160F900F900F9046C1ED81FE810C
:104E900009811A81828582FF17C080EA90E19F9381
:104EA0008F931F920E94C01AF801858D968DA78D51
:104EB000B0A10196A11DB11D858F968FA78FB0A3BC
:104EC0000F900F900F90EFC083FF17C088E490E120
:104ED0009F938F931F920E94C01AF801858D968D23
:104EE000A78DB0A10196A11DB11D858F968FA78FAB
:104EF000B0A30F900F900F90D6C081FFD9C087EF5D
:104F00009FE09F938F931F920E94C01AF80185899A
:104F10009689A789B08D0196A11DB11D858B968BB1
:104F2000A78BB08F0F900F900F90BDC0D8015496F3
:104F30006D917D918D919C91579770FFCBC02D8184
:104F40003E8149815A81A4DE99232CF48D819E8172
:104F50000E948D16E1C020E030E0A901BE016B5F28
:104F60007F4FF8018685978543DE019709F4D4C009
:104F70008BE191E19F938F931F920E94C01A8D81C4
:104F80009E810E948D160F900F900F90C5C08D814D
:104F90009E810E948D16C0C02D813E8149815A811B
:104FA000D80154966D917D918D919C91579770DEAB
:104FB00099232CF48D819E810E948D16ADC0ED81C8
:104FC000FE818585807CF82E33DA8F71880FF82A70
:104FD000ED81FE818585869584FB992790F9F92AD4
:104FE0005385452F4F73469546958295807F482B74
:104FF000252F229526952695237034853F70330FF3
:10500000330F932F922B352F3295330F330F307C84
:10501000392B228562857385848595855F2D0E9455
:1050200098187C01892B79F48DEF90E19F938F93F1
:105030001F920E94C01A8D819E810E948D160F9032
:105040000F900F9069C0F80186859785D7011F964C
:105050009C938E931E9784899589A689B789F701B9
:10506000848B958BA68BB78B13C02D813E81498194
:105070005A81D70154966D917D918D919C9157974E
:1050800007DE99232CF48D819E810E948D1644C0E9
:105090006D817E81C701E9D53FC0CC24CA94DC2C48
:1050A0003BC06C0139C08D819E810E948D1634C039
:1050B0008385982F929596959695937084858F7099
:1050C000880F880F892B90E003DC8C01892B09F075
:1050D0002DCF11C0ED81FE81628573858485958514
:1050E00020E03FEF4FEF5FE30E94DA177C01892B4E
:1050F00009F0BBCF51CFED81FE8162857385848538
:10510000958520E03FEF4FEF5FE30E94DA177C01C7
:10511000892B09F0AACF3BCFC60126960FB6F8948B
:10512000DEBF0FBECDBFDF91CF911F910F91FF90DA
:10513000EF90DF90CF900895C9E5DFE06894FF24F9
:10514000F1F880E090E00E94B63B182F092F80E034
:1051500090E00E949C380F931F939F938F93DF934F
:10516000CF93FF920E94C01A6FEF7FEF80E090E034
:10517000E1DD8DB79EB707960FB6F8949EBF0FBEC0
:105180008DBFDFCFEF92FF920F931F930F2EFFE0A3
:10519000EF2EF6E0FF2EF02D8B0120E030E0AC0189
:1051A0006FE872E08CE998E22CD5892B69F080E6F3
:1051B0009FE09F938F931F920E94C01A0F900F90B1
:1051C0000F908FEF9FEF02C080E090E01F910F9152
:1051D000FF90EF90089590E0FC01EE0FFF1FE80FA5
:1051E000F91FEF5EF94F20813181232B49F0FC013B
:1051F000EE0FFF1F8E0F9F1FFC01EF5EF94F08C0DF
:105200008091710690917206009721F0E1E7F6E037
:1052100080819181089590E0FC01EE0FFF1FE80F5F
:10522000F91FEF5EF94F20813181232B49F0FC01FA
:10523000EE0FFF1F8E0F9F1FFC01EF5EF94F08C09E
:105240008091710690917206892B21F0E1E7F6E0DA
:10525000828108958FEF08950F931F93CF93DF936B
:105260004115510541F1D22F8A01C82FCA010E9470
:10527000171CC13278F48C2F90E0FC01EE0FFF1F59
:10528000E80FF91FEF5EF94F11830083D28380E0AE
:1052900090E013C01F92CF938CE891E19F938F937E
:1052A0001F920E94C01A0F900F900F900F900F90B6
:1052B0008EEF9FEF02C08EEF9FEFDF91CF911F9196
:1052C0000F910895CF93DF93EC0181E00E94923318
:1052D0009983888321E030E0892B11F420E030E0CD
:1052E000C901DF91CF910895CF93DF93EC0143E0A3
:1052F00060E081E00E94D23299838883009739F080
:1053000020E040E050E060E070E00E94003381E087
:1053100090E0DF91CF910895CF92DF92EF92FF92CC
:10532000CF93DF93EC016A017B01DF93CF938DEB89
:1053300091E19F938F9387E08F930E94C01A0F9003
:105340000F900F900F900F908FEFC816D806E104C2
:10535000F10451F0C701B6012AE030E040E050E02E
:105360000E94D84169017A01B601888199810E9421
:105370006B3421E030E0813011F020E030E0C901F1
:10538000DF91CF91FF90EF90DF90CF900895CF9372
:10539000DF93EC01DF93CF9384EB91E19F938F93A5
:1053A00087E08F930E94C01A20E040E050E060E068
:1053B00070E0888199810E94003321E030E00F90F5
:1053C0000F900F900F900F90813011F020E030E09F
:1053D000C901DF91CF9108953F924F925F926F92F2
:1053E0007F928F929F92AF92BF92CF92DF92EF9275
:1053F000FF920F931F93CF93DF93382E4A015B01E7
:10540000E90112D42B013C01C02ED12CE12CF12C4E
:105410009501840141E0632D82E00E940A198C010C
:10542000892BE1F1CE010E94DA157C010097C9F1C8
:10543000FC01D187C087209741F03E9680E090E044
:1054400081930196C817D907D9F720E030E0A90168
:10545000B701C801EDD9892B59F1B501A401C801E3
:10546000B1D87C010097E9F0209731F1FC018685E5
:10547000811127C03F9680E090E007C0219130E085
:10548000AC0155272417350701F50196C817D90730
:10549000A9F7812C912C540183941AC08FEF9FEFB0
:1054A0002AC0C8010E94C718BFD38FEF9FEF23C047
:1054B000812C912C54010CC0812C912C540183948B
:1054C00007C0812C912C540103C0812C912C5401D4
:1054D000C7010E948D16C8010E94C718A5D3DC0120
:1054E000CB0184199509A609B70989288A288B2830
:1054F00011F48FEF9FEFDF91CF911F910F91FF90EC
:10550000EF90DF90CF90BF90AF909F908F907F9063
:105510006F905F904F903F900895CF92DF92EF92FF
:10552000FF920F931F93DC01CB0169017A01A8015F
:10553000B6010E94A342BC0180E090E01F910F9150
:10554000FF90EF90DF90CF9008956F927F928F92AF
:105550009F92AF92BF92CF92DF92EF92FF920F9302
:105560001F93CF93DF937C01EB010E94E0198730FA
:10557000910508F037C2FC018827E658FF4F8F4F8E
:105580000C9416428E85811174C18F85833009F485
:1055900070C030F4813069F0823009F450C062C1CB
:1055A000853009F404C108F4E6C0863009F419C155
:1055B00059C10E94252244E150E0BC01CE018E5B1E
:1055C0009F4F0E94C842FE01EB5AFF4F10828CE0B1
:1055D000E3E9F2E0DE01AA5ABF4F01900D928A95ED
:1055E000E1F7FE01EF59FF4F108289E0EFE9F2E0A9
:1055F000DE01AE59BF4F01900D928A95E1F7FE0191
:10560000E659FF4F10820E941B2244E150E0BC018A
:10561000CE0140960E94C8421BA20E9420224EE169
:1056200050E0BC01CE0184960E94C842FE01EF5BAF
:10563000FF4F10828DE590E099878887E9C1CE0100
:1056400042960E94F81B009751F02989AC0165E051
:10565000888902DE892B31F480E090E005C08EEF6E
:105660009FEF02C08EEF9FEF2FE030E03987288751
:10567000FBC0CE0140960E94F81B8C01009709F4F4
:1056800073C0FC0161857285838594850E943F1BF0
:105690006B8F7C8F8D8F9E8FF801658576858785D2
:1056A00090890E943F1B6F8F78A389A39AA3F8016A
:1056B00061897289838994890E943F1B6BA37CA3B3
:1056C0008DA39EA3F801658976898789908D0E94B4
:1056D0003F1B6FA378A789A79AA7F801618D728DE8
:1056E000838D948D0E943F1B6BA77CA78DA79EA7DF
:1056F000F801658D768D878D90A10E943F1B6FA765
:1057000078AB89AB9AABF80161A172A183A194A196
:105710000E943F1B6BAB7CAB8DAB9EABF80165A1D0
:1057200076A187A190A50E943F1B6FAB78AF89AF90
:105730009AAFF80161A572A583A594A50E943F1BAD
:105740006BAF7CAF8DAF9EAFF80165A576A587A541
:1057500090A90E943F1BFE01FF96608371838283A4
:10576000938380E090E002C08EEF9FEF25E330E06E
:105770003987288779C0688979898A899B890E94B5
:105780003F1B9B01AC01688B798B8A8B9B8B0C89AF
:10579000093C08F03AC110E0CE014596BC0180E01A
:1057A00090E0E0917A02F0917B02199531C168890D
:1057B00079898A899B890E943F1B688B798B8A8BA8
:1057C0009B8B0C89093C08F020C110E09E012B5EE8
:1057D0003F4F40E050E0E0917A02F0917B02199552
:1057E00017C1688979898A899B890E94741B688B93
:1057F000798B8A8B9B8B6C897D898E899F890E948E
:10580000741B6C8B7D8B8E8B9F8B88899989AA8961
:10581000BB89892B8A2B8B2B41F080E090E0892B70
:1058200021F0CE0140960E94000080E090E0892B9C
:1058300021F0CE0140960E940000688979898A890A
:105840009B890E943F1B688B798B8A8B9B8B6C8911
:105850007D898E899F890E943F1B6C8B7D8B8E8BEF
:105860009F8BD6C08EEF9FEF2FEF2E87892B09F4E9
:10587000BDC0CE010E948D16CEC086EC91E19F93F3
:105880008F9382E08F930E94C01A0F900F900F9019
:10589000ADC088859985019719F48E85853521F0ED
:1058A000CE010E948D16B7C0CAD08C010BD84C0116
:1058B0000097A1F422E1E8EAF2E0CE010E96DC01C5
:1058C00001900D922A95E1F7FC0101900020E9F783
:1058D0003197E81BF90BF987E88788C0ABD0B8018E
:1058E000C4010E94D7425C0118161906A4F5C12C08
:1058F000D12C612C712C209739F484EC90E00E941B
:10590000DA15EC01892B39F185010C191D09053CCB
:10591000110514F004EC10E019870887B4016C0D30
:105920007D1DA801CE010E960E94A342C00ED11E7D
:1059300020E030E0A901BE01C7010E941824892B94
:1059400019F4CE010E948D16C62DD72DCA14DB0482
:1059500094F2C0E0D0E0C4010E94652447C076D034
:105960000E943F1B6E877F87888B998B84E090E035
:10597000998788873BC06E857F85888999890E9431
:10598000741B6730E0E87E07E7E08E07E0E89E07DB
:1059900011F4B1D006C06A397245854E914D09F4B3
:1059A000C6D0CE010E948D1636C00E940717BC01DA
:1059B000990F880B990B0E943F1B6E877F87888BFE
:1059C000998B84E090E09987888710C03DD10E9430
:1059D0003F1B6E877F87888B998B84E090E0998747
:1059E000888704C0CE010E948D1615C0209799F0BB
:1059F00020E030E0A901BE01C7010E941824892BD4
:105A000051F4CE010E948D1606C08FEF8E8731CFE4
:105A10008FEF8E87EBCFDF91CF911F910F91FF908A
:105A2000EF90DF90CF90BF90AF909F908F907F903E
:105A30006F9008950E94E33C80E090E008950E94FA
:105A4000993828E2829FC001112408954F925F92F5
:105A50006F927F928F929F92AF92BF92CF92DF927E
:105A6000EF92FF920F2EF0E1CF2EF7E2DF2EE12C26
:105A7000F12CF02D44244A94542C3201812C912C89
:105A80005401C601880D991DC5D1009759F4240110
:105A900035014C0C5D1C6E1C7F1CF694E794D7946A
:105AA000C79414C08C0C9D1CAE1CBF1CB701A60172
:105AB000480D591D6A1D7B1D441555056605770562
:105AC00020F0F694E794D794C79464D180E2C81686
:105AD000D104E104F104A8F6C501B401FF90EF90F0
