:100000000C9460090C9491090C9491090C94242689
:100010000C9491090C9491090C9491090C949109F8
:100020000C9491090C9491090C9491090C949109E8
:100030000C9491090C9491090C9491090C949109D8
:100040000C9491090C94042C0C9491090C94910932
:100050000C9491090C9491090C9491090C949109B8
:100060000C9491090C94742F0C94B72F0C94910953
:100070000C9491090C9491090C9491090C94910998
:100080000C9491090C9491090C9491090C94910988
:100090000C9491090C9491090C9491090C94910978
:1000A0000C9491090C9491090C9491090C94910968
:1000B0000C9491090C9491090C9491090C94910958
:1000C0000C9491090C9491090C9491090C94910948
:1000D0000C9491090C9491090C9491090C94910938
:1000E0000C9491090E1F7E208A20E720E920002130
:1000F00011217028E5277428E827EB27EF27F2273E
:10010000F5276E286E28F827FB27FE2701280428EC
:100110000728782817281A286E281E28222825281C
:1001200028282B286E285B282E28312834283728A9
:100130003A287C284A284D28512854286E285828C7
:100140005B285F28632867286B28BC39BC39BC3919
:10015000F839E439F239BC39BC39F839E439717508
:10016000657565206661696C0071756575652066E9
:1001700061696C0043414E20526563203D20256437
:100180000025732025640A0063616E207478206561
:1001900072726F7200465245453A202570004652F1
:1001A00045453A2042756666657220257020696E65
:1001B00020757365206279202575207573657273CB
:1001C00000465245453A2042756666657220616C6C
:1001D00072656164792066726565202570004652FB
:1001E00045453A20496E76616C696420435350203E
:1001F00062756666657220706F696E74657220251F
:100200007000417474656D707420746F206672653F
:1002100065206E756C6C20706F696E74657200433A
:100220006F727275707420435350206275666665F4
:1002300072004745543A202570202570004F757490
:10024000206F66206275666665727300417474651E
:100250006D707420746F20616C6C6F6361746520C5
:10026000746F6F206C6172676520626C6F636B20C6
:100270002575005B253032752025705D20533A25A9
:10028000752C202575202D3E2025752C20257520C8
:100290002D3E2025752C20736F636B3A2025700A44
:1002A00000417474656D707420746F2063726561B1
:1002B0007465205854454120656E63727970746589
:1002C0006420636F6E6E656374696F6E2C20627557
:1002D00074204353502077617320636F6D70696C95
:1002E000656420776974686F75742058544541209F
:1002F000737570706F727400417474656D707420E2
:10030000746F2063726561746520484D41432061BC
:10031000757468656E7469636174656420636F6E7B
:100320006E656374696F6E2C206275742043535040
:100330002077617320636F6D70696C6564207769E5
:1003400074686F757420484D414320737570706FE9
:10035000727400417474656D707420746F206372E0
:10036000656174652052445020636F6E6E656374DE
:10037000696F6E2C2062757420435350207761732F
:1003800020636F6D70696C656420776974686F7540
:10039000742052445020737570706F7274004661FF
:1003A000696C656420746F206C6F636B20636F6E83
:1003B0006E20617272617900436F6E6E20616C72A3
:1003C0006561647920636C6F736564004E554C4CB5
:1003D00020506F696E74657220676976656E20744F
:1003E0006F206373705F636C6F7365004E6F206D79
:1003F0006F7265206672656520636F6E6E656374EB
:10040000696F6E73004661696C656420746F206C5F
:100410006F636B20636F6E6E206172726179004E44
:100420006F206D6F7265206D656D6F727920666FDC
:100430007220636F6E6E2073656D6170686F726598
:10044000004661696C656420746F20637265617435
:100450006520636F6E6E656374696F6E206C6F6389
:100460006B004E6F206D6F7265206D656D6F7279D8
:1004700020666F722073706F72742073656D617087
:10048000686F72650052582071756575652025701A
:100490002066756C6C2077697468202575206974F6
:1004A000656D73000000000003836BF2F7703BE1A1
:1004B000F4F350131F979AC71C14F135E8E7A126EF
:1004C000EB64CAD4CF58D98ACCDBB2783828E26B37
:1004D0003BAB8999D0CF434DD34C28BF27BF78ACD5
:1004E000243C135E6FC75E106C4435E298B765F12B
:1004F0009B340E037050C4D773D3AF258720FF36CB
:1005000084A394C4A09F879AA31CEC6857EFBC7B7C
:10051000546CD789BF081D5DBC8B76AF487826BC6C
:100520004BFB4D4EDE8EBD20DD0DD6D229FE86C1A1
:100530002A7DED33C11927E7C29A4C1536691C068E
:1005400035EA77F411D664AA12550F58E6A65F4B28
:10055000E52534B90E41FE6D0DC2959FF931C58C6C
:10056000FAB2AE7EB149E330B2CA88C24639D8D1B8
:1005700045BAB323AEDE79F7AD5D120559AE42162A
:100580005A2D29E47E113ABA7D9251488961015B66
:100590008AE26AA96186A07D6205CB8F96F69B9C54
:1005A0009575F06EBC1D7B41BF9E10B34B6D40A096
:1005B00048EE2B52A38AE186A0098A7454FADA67BE
:1005C0005779B1957345A2CB70C6C9398435992A3C
:1005D00087B6F2D86CD2380C6F5153FE9BA203ED54
:1005E0009821681FD3DA2551D0594EA324AA1EB0F2
:1005F00027297542CC4DBF96CFCED4643B3D84773E
:1006000038BEEF851C82FCDB1F019729EBF2C73A4D
:10061000E871ACC80315661C00960DEEF4655DFD2F
:10062000F7E6360F6293C6616110AD9395E3FD80E6
:10063000966096727D045CA67E8737548A746747FD
:1006400089F70CB5ADCB1FEBAE4874195ABB240A21
:1006500059384FF8B25C852CB1DFEEDE452CBECDAB
:1006600046AFD53F0D5498710ED7F383FA24A3906B
:10067000F9A7C86212C302B611406944E5B33957FD
:10068000E63052A5C20C41FBC18F2A09357C7A1A8B
:1006900036FF11E8DD9BDB3CDE18B0CE2AEBE0DD57
:1006A00029688B2F783BF6827BB89D708F4BCD638A
:1006B0008CC8A69167AC6C45642F07B790DC57A433
:1006C000935F3C56B7632F08B4E044FA401314E933
:1006D00043907F1BA8F4B5CFAB77DE3D5F848E2EB1
:1006E0005C07E5DC17FCA892147FC360E08C937371
:1006F000E30FF881086B32550BE859A7FF1B09B4CB
:10070000FC986246D8A47118DB271AEA2FD44AF95C
:100710002C57210BC733EBDFC4B0802D3043D03EC4
:1007200033C0BBCCA6B54BA2A536205051C57043F3
:1007300052461BB1B922D165BAA1BA974E52EA848A
:100740004DD1817669ED92286A6EF9DA9E9DA9C92C
:100750009D1EC23B767A08EF75F9631D810A330E40
:10076000828958FCC97215B2CAF17E403E022E53EE
:100770003D8145A1D6E58F75D566E4872195B49472
:100780002216DF66062ACC3805A9A7CAF15AF7D97E
:10079000F2D99C2B19BD56FF1A3E3D0DEECD6D1EB4
:1007A000ED4E06ECC4268DC3C7A5E6313356B622FE
:1007B00030D5DDD0DBB11704D8327CF62CC12CE566
:1007C0002F4247170B7E544908FD3FBBFC0E6FA814
:1007D000FF8D045A14E9CE8E176AA57CE399F56F54
:1007E000E01A9E9DABE1D3D3A862B8215C91E832B8
:1007F0005F1283C0B4764914B7F522E6430672F55A
:100800004085190764B90A59673A61AB93C931B891
:10081000904A5A4A7B2E909E78ADFB6C8C5EAB7FE3
:100820008FDDC08D1AA830E3192B5B11EDD80B02B8
:10083000EE5B60F0053FAA2406BCC1D6F24F91C51D
:10084000F1CCFA37D5F0E969D673829B2280D28841
:100850002103B97ACA6773AEC9E4185C3D17484FE3
:100860003E9423BD756F6EF376EC0501821F551221
:10087000819C3EE06AF8F434697B9FC69D88CFD5A1
:100880009E0BA427BA37B779B9B4DC8B4D478C9847
:100890004EC4E76AA5A02DBEA623464C52D0165FD3
:1008A00051537DAD0D0A00252E3166256300252D9F
:1008B000357320202074783A202530356C752072ED
:1008C000783A202530356C75207478653A202530CB
:1008D000356C75207278653A202530356C750D0AB7
:1008E000202020202020202064726F703A202530A4
:1008F000356C7520617574686572723A20253035E3
:100900006C75206672616D653A202530356C750D09
:100910000A20202020202020207478623A20256C94
:10092000752028257329207278623A20256C75205D
:10093000282573290D0A0D0A004661696C6564203B
:10094000746F2073656E642043414E206672616D42
:100950006520696E2054782063616C6C6261636B02
:10096000004661696C656420746F2073656E642055
:1009700043414E206672616D6520696E206373701D
:100980005F74785F63616E004661696C65642074B2
:100990006F2067657420434650206964656E7469F2
:1009A0006669636174696F6E206E756D6265720051
:1009B000436F756C64206E6F7420696E6974696131
:1009C0006C697A65204346502069642073656D61C7
:1009D00070686F7265005258206275666665722095
:1009E0006F766572666C6F770043414E2066726168
:1009F0006D65206C6F737420696E204353502070B6
:100A000061636B6574004661696C656420746F2076
:100A10006765742062756666657220666F72204332
:100A200053505F424547494E207061636B657400C7
:100A3000496E636F6D706C657465206672616D657B
:100A40000053686F727420424547494E20667261B8
:100A50006D65207265636569766564004F75742005
:100A60006F66206F72646572204D4F52452066722A
:100A7000616D65207265636569766564004E6F20FF
:100A8000617661696C61626C65207061636B65742D
:100A90002062756666657220666F722043414E0063
:100AA00043414E2042756666657220656C656D65D2
:100AB0006E742074696D6564206F757400257320F1
:100AC00025640A004661696C656420746F20696E54
:100AD000697469616C697A652043414E206472696A
:100AE000766572004661696C656420746F20696E7A
:100AF00069742043414E205258207461736B004644
:100B000061696C656420746F20637265617465202F
:100B100043414E20525820717565756500556E6BC6
:100B20006E6F776E2043414E206D6F6465004661A5
:100B3000696C656420746F20696E697469616C69A1
:100B40007A652043414E206964656E746966696305
:100B50006174696F6E206E756D62657200496E76A4
:100B6000616C69642063616C6C20746F20637370C6
:100B70005F73656E6400417474656D707420746F8A
:100B80002073656E64205854454120656E63727908
:100B900070746564207061636B65742C2062757479
:100BA000204353502077617320636F6D70696C65CB
:100BB0006420776974686F757420585445412073B8
:100BC0007570706F72742E2044697363617264690A
:100BD0006E67207061636B6574004352433332204B
:100BE000617070656E64206661696C6564210041A6
:100BF0007474656D707420746F2073656E642070FA
:100C000061636B6574207769746820484D41432C9B
:100C100020627574204353502077617320636F6D99
:100C200070696C656420776974686F757420484DCD
:100C3000414320737570706F72742E204469736322
:100C4000617264696E67207061636B6574004F55F3
:100C5000543A20532025752C20442025752C2044FF
:100C6000702025752C2053702025752C2050722063
:100C700025752C20466C203078253032582C205396
:100C80007A202575205649413A202573004E6F2061
:100C9000726F75746520746F20686F73743A2025C5
:100CA00023303878006373705F73656E645F6469C6
:100CB000726563742063616C6C6564207769746825
:100CC000204E554C4C207061636B657400496E7604
:100CD000616C696420736F636B6574206F707469F5
:100CE0006F6E00417474656D707420746F20637250
:100CF0006561746520736F636B65742074686174DB
:100D000020726571756972657320484D41432C20CE
:100D1000627574204353502077617320636F6D7048
:100D2000696C656420776974686F757420484D41FB
:100D30004320737570706F727400417474656D70C8
:100D40007420746F2063726561746520736F636BC8
:100D50006574207468617420726571756972657359
:100D600020585445412C20627574204353502077FD
:100D7000617320636F6D70696C6564207769746856
:100D80006F7574205854454120737570706F72747C
:100D900000417474656D707420746F2063726561B6
:100DA000746520736F636B6574207468617420725E
:100DB00065717569726573205244502C2062757498
:100DC000204353502077617320636F6D70696C65A9
:100DD0006420776974686F7574205244502073756D
:100DE00070706F72740042696E64696E6720736F11
:100DF000636B657420257020746F20706F7274208F
:100E0000257500506F727420256420697320616C11
:100E1000726561647920696E20757365004F6E6C30
:100E20007920706F7274732066726F6D20302D257B
:100E3000752028616E64204353505F414E592066EF
:100E40006F722064656661756C742920617265201B
:100E5000617661696C61626C6520666F7220696E93
:100E6000636F6D696E6720706F72747300455252C4
:100E70004F523A20526F7574696E6720696E7075B3
:100E800074204649464F2069732046554C4C2E200D
:100E900044726F7070696E67207061636B65742E49
:100EA000006373705F6E6577207061636B6574209B
:100EB00063616C6C65642077697468204E554C4C96
:100EC00020696E74657266616365006373705F6E3E
:100ED0006577207061636B65742063616C6C656419
:100EE0002077697468204E554C4C207061636B65A7
:100EF000740025732025640A004661696C656420CE
:100F0000746F20737461727420726F7574657220CF
:100F10007461736B00526563656976656420706106
:100F2000636B657420776974686F757420435243EE
:100F300033322E20416363657074696E672070617F
:100F4000636B657400435243333220766572696681
:100F500069636174696F6E206572726F72212044DB
:100F6000697363617264696E67207061636B657435
:100F700000546F6F2073686F7274207061636B65CB
:100F80007420666F722043524333322C2025750043
:100F900052656365697665642052445020706163D0
:100FA0006B65742C206275742043535020776173F5
:100FB00020636F6D70696C656420776974686F7504
:100FC000742052445020737570706F72742E2044D8
:100FD000697363617264696E67207061636B6574C5
:100FE000005265636569766564207061636B657442
:100FF000207769746820484D41432C206275742025
:101000004353502077617320636F6D70696C656422
:1010100020776974686F757420484D41432073755B
:1010200070706F72742E2044697363617264696EAC
:1010300067207061636B65740052656365697665EE
:1010400064205854454120656E63727970746564FC
:10105000207061636B65742C20627574204353505B
:101060002077617320636F6D70696C6564207769A8
:1010700074686F7574205854454120737570706F93
:1010800072742E2044697363617264696E672070A4
:1010900061636B6574004E6F206D6F726520636FC6
:1010A0006E6E656374696F6E7320617661696C61E1
:1010B000626C6500436F6E6E2D6C65737320736F89
:1010C000636B65742071756575652066756C6C0061
:1010D000526F75746572206661696C656420746F07
:1010E0002073656E6400494E503A20532025752CBC
:1010F00020442025752C2044702025752C20537009
:101100002025752C2050722025752C20466C20300F
:1011100078253032582C20537A20257520564941A5
:101120003A202573002020202A2020252D397320E5
:101130002025750D0A002534752020252D397320B2
:101140002025750D0A004E6F64652020496E746578
:1011500072666163652020416464726573730D0A71
:10116000004661696C656420746F20736574207239
:101170006F7574653A20696E76616C6964206E6F74
:10118000646520696420257500506F73743A2025CA
:101190007000576169743A202570005345525649D2
:1011A00043453A2050696E672072656365697665CC
:1011B00064001B5B25753B25756D004661696C6598
:1011C0006420746F2073687574646F776E00466175
:1011D000696C656420746F207265626F6F7400576C
:1011E00061726E696E6720736F636B657420636FE5
:1011F0006E6E656374696F6E2071756575652066C6
:10120000756C6C00436F6E6E656374696F6E2062FF
:1012100075666665722071756575652066756C6C9E
:101220002100556E657820566563746F72005069B1
:101230006E6720726573756C74202564205B6D7316
:101240005D0D0A0050696E67204661696C65640A2D
:10125000005350203D203078253034780A00257323
:101260002025640A005061636B65742072656365B4
:1012700069766564206F6E204D595F504F52543A25
:101280002025730D0A0025732025640A004C45446F
:1012900020696E697400496E746572666163657376
:1012A0000D0A00526F757465207461626C650D0AD9
:1012B00000436F6E6E207461626C650D0A00D50B81
:1012C00011241FBECFEFD1E2DEBFCDBF00E00CBFC7
:1012D00013E0A0E0B2E0EAEFF1E800E00BBF02C0EB
:1012E00007900D92A032B107D9F720E2A0E2B3E057
:1012F00001C01D92A539B207E1F719E0C0E6D9E0B7
:1013000000E006C021970109802FFE010E94533B97
:10131000CF35D10780E00807A9F70E9481250C94FA
:10132000FB400C945E269093C5008093C400E0ECD3
:10133000F0E080818260808388E08093C10086E055
:101340008093C20008959091C00095FFFCCF8093D8
:10135000C60008950F931F93CF93DF93FC018B0179
:101360008491EF012196882321F0EDDFFE01849125
:10137000F9CF012B41F08DE0E6DF8AE0DF91CF91DC
:101380001F910F91E0CFDF91CF911F910F910895A1
:10139000CF93C82F8A3011F48DE0D5DF8C2FD3DFA7
:1013A00080E090E0CF9108958F929F92AF92BF928C
:1013B000CF92DF92EF92FF920F931F93CF93DF9321
:1013C0006B017C0149015A010FB6F8940F920E94FB
:1013D000FD2F88E094E00E943B27182F6FE088E003
:1013E00094E00E94902881110AC0C1E0D0E0111160
:1013F00002C0C0E0D0E0D195C195D10902C0CFEFC5
:10140000DFEF9501840141E060E088E094E00E9414
:10141000BD28882311F0CFEFDFEF9501840141E073
:1014200061E088E094E00E94BD28882311F0CFEFAE
:10143000DFEF9701860141E060E088E094E00E94E0
:10144000FF28882311F0CFEFDFEF9701860141E0FD
:1014500062E088E094E00E94FF28882311F0CFEF3B
:10146000DFEF88E094E00E94C527882311F0CFEFDA
:10147000DFEF0F900FBECE01DF91CF911F910F9143
:10148000FF90EF90DF90CF90BF90AF909F908F90A4
:101490000895CF92DF92EF92FF920F931F93CF9315
:1014A000DF93CDB7DEB7EDB6FEB6EDB7FEB77797F3
:1014B0000FB6F894FEBF0FBEEDBF0DB71EB7085FA5
:1014C0001F4F087F0FB6F8940F92DC01CB01B06874
:1014D000F80180839183A283B3832483D801189673
:1014E000FA0130E0CF01841B950B821793071CF49F
:1014F00081918D93F7CF88E0C82ED12C88E094E0BD
:101500000E948C2A811114C0F1E2FA95F1F70000D3
:10151000A80160E088E094E00E945C2901E010E00E
:10152000811102C000E010E011950195110906C07B
:1015300081E0C81AD10811F700E010E00F900FBE4B
:101540000115110549F088E891E09F938F931F9250
:1015500055D60F900F900F90C8010FB6F894FEBEAD
:101560000FBEEDBEDF91CF911F910F91FF90EF90D5
:10157000DF90CF90089552988091690080628093A7
:101580006900EA9AF4E72F2EF1E03F2EAEE54A2EED
:10159000A1E05A2EB9E66B2EB1E07B2E88E094E0F4
:1015A0000E94892A80E090E00E945436EC0180E09D
:1015B00090E00E948E32DF93CF939F938F9361E8E8
:1015C00071E07F936F9392E09F9318D680E090E054
:1015D0000E9436340FB6F8940F9282EA90E00E948F
:1015E0009A22ADB7BEB717960FB6F894BEBF0FBE1E
:1015F000ADBFD7E0C0E00E94BC22892B61F5B0E10D
:10160000CB9F8001112408571C4FB80188E094E05B
:101610000E946D2A81111DC0F80180819181A281F3
:10162000B381AC01BD01E2E1769567955795479589
:10163000EA95D1F740FF02C0C11108C03AE0B69563
:10164000A795979587953A95D1F7D82FCF5F0E94A8
:10165000B722DC1780F60F900FBE8C2E912C1F92B4
:10166000CF933F922F92F2E0FF93C8D508E813E0A2
:101670000F900F900F900F900F90F80140E050E006
:1016800048155905E4F5C080D180E280F380D70188
:10169000C6012AE0B695A795979587952A95D1F723
:1016A00080958C0F2DE0289FD0011124A05EBC4FA7
:1016B000CD92DD92ED92FC921397D4811496DC9337
:1016C0006DE0869FC001112420E030E02D1798F4D2
:1016D000D901A80FB91FBD01605E7C4F7B01BF011E
:1016E000620F731FDB0118966C91D70115966C93EE
:1016F0002F5F3F4FEBCF4F5F5F4F7096C1CF0FB65D
:10170000F8940F92C0E2D3E07E01C12CD12C540199
:10171000B1E0AB1AB108C814D90414F5CA14DB043B
:1017200051F465E872E0C7010E940A16892B89F01E
:101730007F926F9209C060E070E0C7010E940A16B4
:10174000892B39F05F924F921F9258D50F900F90CE
:101750000F90EFEFCE1ADE0AFDE0EF0EF11CDBCFAB
:101760000F900FBE188219821A821B82D8011D9217
:101770001D921D921C9213971C8214961C9280E05D
:1017800090E0FE01E80FF91F1582F801E80FF91F3C
:101790001086019688309105A1F72D96005F1F4FA6
:1017A000B3E0C838DB07F1F6F9CE88E094E00C949A
:1017B000A326CF92DF92EF92FF920F931F93CF93C6
:1017C000DF931F921F92CDB7DEB790930C048093E6
:1017D0000B049B01225F3F4F30930A0420930904BE
:1017E0008B010E5E1F4F809F7001819FF00C909FB8
:1017F000F00C1124C7010E94FC1890930E048093F2
:101800000D04892B09F448C062E070E080910B045C
:1018100090910C040E946C1A9C0190931004809388
:101820000F0480910D0490910E04232B99F1A701D0
:1018300060E070E00E94EC3B80E090E0E12CF12C55
:101840006801C80ED91E20910B0430910C04E216D9
:10185000F306E8F4E0910D04F0910E04E80FF91F8F
:10186000FA83E98311821082F383E28320E030E07F
:10187000A901BE016F5F7F4F80910F04909110040A
:101880000E946F1A8FEFE81AF80AC601D9CF80E0DC
:1018900090E004C00E94FE188FEF9FEF0F900F9012
:1018A000DF91CF911F910F91FF90EF90DF90CF903C
:1018B0000895CF93DF931F921F92CDB7DEB71A82A0
:1018C0001982AC01425F5F4F2091090430910A04F4
:1018D0002417350770F49F938F938CE492E09F93C5
:1018E0008F931F928BD40F900F900F900F900F90AB
:1018F00019C020E030E0A901BE016F5F7F4F8091E9
:101900000F04909110040E949A1AE981FA8130978D
:1019100061F48DE392E09F938F931F926FD40F90A9
:101920000F900F9080E090E023C083818F9382819D
:101930008F93FF93EF9382E392E09F938F9383E0E3
:101940008F935CD4E981FA810FB6F894DEBF0FBEA5
:10195000CDBF82819381E817F90719F08FE192E0FA
:10196000DACF80819181019691838083CF010496A3
:101970000F900F90DF91CF910895CF93DF9300D018
:10198000CDB7DEB71B82009711F1FC013497FA83C3
:10199000E98382819381E817F907C9F480819181F5
:1019A0000097A9F08230910520F001979183808300
:1019B0000EC011821082AE014D5F5F4FBE016F5F9E
:1019C0007F4F80910F04909110040E94931A0F9002
:1019D0000F900F90DF91CF910895CF93DF931F92D7
:1019E0001F92CDB7DEB7009751F482E092E09F934B
:1019F0008F931F9203D40F900F900F904DC0FC0156
:101A00003497FA83E98322813381E217F30729F0BF
:101A10009F938F938EED91E008C080819181009714
:101A200049F4FF93EF9381EC91E09F938F931F9282
:101A3000E5D32DC08230910598F001979183808382
:101A40009F938F93FF93EF938EE991E09F938F93F2
:101A50001F92D4D30FB6F894DEBF0FBECDBF1CC00B
:101A600011821082FF93EF9385E991E09F938F930A
:101A700083E08F93C3D320E030E0A901BE016F5F04
:101A80007F4F80910F04909110040E946F1A0F9065
:101A90000F900F900F900F900F900F90DF91CF91BC
:101AA000089580910F04909110040C94BB1A0F9329
:101AB0001F93CF93DF931F921F92CDB7DEB78C0198
:101AC00020E030E0A901BE016F5F7F4FF801808107
:101AD00091810E949A1A019731F489819A81009725
:101AE00079F37BDFEDCF80E090E00F900F90DF91F6
:101AF000CF911F910F9108950F931F93CF93DF9371
:101B00001F921F92CDB7DEB77A836983009741F1A8
:101B10008C0120E030E0A901BE016F5F7F4FFC0126
:101B2000848595850E946F1A0197E9F0F8018485F4
:101B300095850E94BB1A9F938F93F80185858F939B
:101B400084858F9385E894E09F938F931F9256D35B
:101B50000FB6F894DEBF0FBECDBF8FEF9FEF05C06D
:101B60008EEF9FEF02C080E090E00F900F90DF912A
:101B7000CF911F910F910895CF93DF930E940E2272
:101B8000CB010E94CB3B0E94C83B60E270E00E9408
:101B9000023B805E8093140482E194E00E94D91D90
:101BA000019719F4C7E1D4E008C082E694E01FC0B1
:101BB000689685E0C730D80791F062E070E084E66F
:101BC00090E00E946C1A9D878C871982CE01029644
:101BD0000E94C71D019761F381E494E008C085E18C
:101BE00094E00E94D91D019761F08FE194E09F93EA
:101BF0008F931F9203D30F900F900F908FEF9FEF53
:101C000002C080E090E0DF91CF910895CF92DF9203
:101C1000EF92FF920F931F93E7E1F4E000E010E0F2
:101C2000A181AA23E1F0A081A11119C0C480D580AF
:101C3000E680F780C626D726E826F926C222D322D8
:101C4000E422F522CD28CE28CF2849F428E1209F90
:101C5000C001219F900D1124895E9B4F08C00F5F2A
:101C60001F4F78960A301105D9F680E090E01F9159
:101C70000F91FF90EF90DF90CF900895EF92FF9239
:101C80001F93CF93DF93182F44E650E060E070E09D
:101C900085E194E00E94F11D019739F085E094E020
:101CA0009F938F931F92AAD230C08091110490E02D
:101CB00001966AE070E00E94023B9C01EAE0F0E0DD
:101CC000D8E18AE0E82EF12CD29FD001D39FB00D4D
:101CD0001124A95EBB4F1196CC91CC23E1F0C90130
:101CE0000196B7010E94023B482F319711F09C01E9
:101CF000EBCFC13089F48CEE93E09F938F931F92CA
:101D00007DD285E194E00E942C1E0F900F900F90E1
:101D100080E090E015C0422F88E1829FE001839F20
:101D2000D00D1124C95EDB4F81E089831F861E869A
:101D300018834093110485E194E00E942C1ECE018B
:101D4000DF91CF911F91FF90EF9008958F929F9216
:101D5000AF92BF92CF92DF92EF92FF92CF93DF9339
:101D60004B015C0169017A0180E088DFEC01892B7D
:101D700089F08C829D82AE82BF82C886D986EA862F
:101D8000FB860E940E22688B798B8A8B9B8BCE01FF
:101D90000C968DDECE01DF91CF91FF90EF90DF901A
:101DA000CF90BF90AF909F908F900895CF93DF9387
:101DB000EC01892B61F48CEC93E09F938F931F923D
:101DC0001DD20F900F900F908EEF9FEF2EC0898144
:101DD00081110BC088EB93E09F938F9385E08F93E5
:101DE0000DD20F900F900F901EC044E650E060E0BF
:101DF00070E085E194E00E94F11D019761F08EE9A9
:101E000093E09F938F931F92F9D10F900F900F90B3
:101E10008DEF9FEF0AC01982CE010C9648DE85E156
:101E200094E00E942C1E80E090E0DF91CF91089515
:101E30006F927F928F929F92AF92BF92CF92DF92DA
:101E4000EF92FF920F931F93CF93DF93A62E142F41
:101E5000D82FD295DD0FDD0FD07C0D2FD1D7B82E26
:101E6000B29490EFB92282958170082B8A2D8F71E0
:101E7000982F990F092BC12FCF73912CA29420EF8B
:101E8000A22282958F70D82BBBD78F71880FD82B49
:101E90001295110F110F107C8C2F86958695A82A0C
:101EA000C0FE03C083E593E004C0C2FE0AC088EF11
:101EB00092E09F938F931F92A1D10F900F900F905C
:101EC0005DC0C4FE03C081EA92E0F3CFC6FE05C048
:101ED000992493948824839401C0812C48EE53E084
:101EE00060E070E082E194E00E94F11D019709F04A
:101EF00045C07090140480E2682E809114048F5FB6
:101F000080931404781609F1803410F06092140460
:101F100090911404892F8F73107C182B9295990F30
:101F2000990F907CCF73C92B869586959B2D907FBA
:101F3000B92EB82A20E030EC4FE050E0692D7C2F1C
:101F40008B2D902F63DE892BC1F682E194E00E94F5
:101F50002C1E80911404781689F0282D312F4A2DDB
:101F60005D2F692D7C2F8B2D902FF0DEFC010097CB
:101F700029F0C48AD58AE68AF78A02C080E090E018
:101F8000DF91CF911F910F91FF90EF90DF90CF9055
:101F9000BF90AF909F908F907F906F900895FC01BD
:101FA0009581929596959695937086818F70880FFE
:101FB000880F892B90E00895DF92EF92FF920F93A4
:101FC0001F93CF93DF93C7E1D4E000E010E088E1F6
:101FD000D82E93E7E92E92E0F92E8F858F938E8588
:101FE0008F93D09EC001D19E900D1124FC01E45E20
:101FF000FB4F20812F731F922F932081322F329518
:1020000036953695337021812F70220F220F232BA6
:102010001F922F93FC01E35EFB4F2081322F3295FC
:102020003F70218121702295207F232B1F922F93B7
:10203000FC01E25EFB4F808186958F711F928F932A
:1020400089811F928F93DF93CF931F930F93FF92FA
:10205000EF920E947F3C0F5F1F4F68968DB79EB72F
:1020600042960FB6F8949EBF0FBE8DBF0A30110581
:1020700009F0B3CFDF91CF911F910F91FF90EF90B7
:10208000DF9008958F929F92AF92BF92CF92DF928E
:10209000EF92FF920F931F93CC24CA94DC2C76010D
:1020A0004150510961097109F8F0FC012191CF01FA
:1020B00046015701822695018401112722273327E3
:1020C000F801EE0FFF1FEE0FFF1FEC55FB4F0591C0
:1020D000159125913491CD2CDE2CEF2CFF24C026B8
:1020E000D126E226F326DCCFC701B60160957095B4
:1020F000809590951F910F91FF90EF90DF90CF907A
:10210000BF90AF909F908F900895CF93DF930097EB
:1021100001F1EC0148855985662331F04C5F5F4F32
:1021200060E070E00A9603C060E070E00E96AADFFF
:10213000C0D0E885F985EC0FFD1F66877787808B17
:10214000918B8885998504969987888780E090E0AF
:1021500002C08EEF9FEFDF91CF910895EF92FF9233
:102160000F931F93CF93DF9300D01F92CDB7DEB7AD
:10217000009719F48EEF9FEF36C0FC014085518522
:1021800044305105B8F38C01662321F060E070E023
:102190000A9605C04450510960E070E00E9672DF67
:1021A00069837A838B839C8369817A818B819C810B
:1021B00080D069837A838B839C83F801E084F184E7
:1021C000C8018E0D9F1D44E050E0BE016F5F7F4F40
:1021D0000A960E94D63B009769F6F4E0EF1AF108E0
:1021E000F801F186E0860F900F900F900F90DF912D
:1021F000CF911F910F91FF90EF900895CF93DF93B0
:10220000CDB7DEB78E81873008F048C0E82FF0E008
:10221000E65FFD4F9081992309F440C0833079F047
:1022200028F4813051F0823091F005C0853059F0AA
:1022300040F0863051F092E10BC094E109C096E085
:1022400007C093E005C095E003C097E001C093E1AB
:10225000E0910705F0910805309739F0AE01475F2E
:102260005F4F6F817885199519C0892F0E94C92108
:10227000AE01475F5F4F6F81788580918D2090918F
:102280008E200E94103D84EA98E09F938F930E94D5
:102290007F3C80EF0E94C9210F900F90DF91CF917A
:1022A0000895982789279827089598278927982798
:1022B00008950C945B3B0895FCCFCF93DF93EC0122
:1022C000CB01BA016115710520E18207910550F03B
:1022D0000E94FD3920E030E040E855E30E943A3AA0
:1022E0002DE413C0611534E073078105910550F0AA
:1022F0000E94FD3920E030E040E85AE30E943A3A7B
:102300002BE403C00E94FD3922E41F922F939F9378
:102310008F937F936F9387EA98E09F938F931F9299
:1023200089E18F93DF93CF930E94A63C2DB73EB7F0
:10233000245F3F4F0FB6F8943EBF0FBE2DBFDF9115
:10234000CF9108950F931F93CF93DF938C01C0918A
:102350000905D0910A05209769F04AE050E0B801DC
:10236000888199810E94FA3B892B21F009A8DAA97A
:10237000C02DF1CFCE01DF91CF911F910F91089524
:10238000E0910905F0910A05309759F490930A05F8
:10239000809309050CC021A932A92115310529F026
:1023A000F901E817F907B9F705C092AB81ABFC0159
:1023B00012AA11AA0895AF92BF92CF92DF92EF9224
:1023C000FF920F931F93CF93DF93CDB7DEB7E297C2
:1023D0000FB6F894DEBF0FBECDBF00910905109176
:1023E0000A057E018AE1E80EF11CFE0131966F01BB
:1023F0008EEAA82E88E0B82E0115110509F46CC0EC
:10240000F80145A156A167A170A5C70156DFF801E3
:1024100041A552A563A574A5C6014FDFDF92CF92F7
:10242000F80184A58F9383A58F9382A58F9381A5AF
:102430008F93FF92EF9280A58F9387A18F9386A1B0
:102440008F9385A18F9384A18F9383A18F9382A172
:102450008F9381A18F9380A18F93878D8F93868D8A
:102460008F93858D8F93848D8F93838D8F93828DA2
:102470008F93818D8F93808D8F9387898F9386899A
:102480008F9385898F9384898F9383898F93828992
:102490008F9381898F9380898F9387858F9386858A
:1024A0008F9385858F9384858F9383858F93828582
:1024B0008F9381858F9381818F9380818F93BF923A
:1024C000AF920E947F3CF80101A912A90FB6F894BF
:1024D000DEBF0FBECDBF90CFE2960FB6F894DEBF41
:1024E0000FBECDBFDF91CF911F910F91FF90EF9065
:1024F000DF90CF90BF90AF900895CF93DF93EC0122
:102500008A859B85009709F068DA1B861A861C86E7
:10251000198218821E821F82188619861D861E86C1
:102520001F86188A1A821B821C821D8280E090E01E
:10253000DF91CF9108954F925F926F927F928F9229
:102540009F92AF92BF92CF92DF92EF92FF920F9342
:102550001F93CF93DF93CDB7DEB760970FB6F89494
:10256000DEBF0FBECDBF7B0148EE53E060E070E000
:1025700089EB95E00E94F11D019779F088E899E0D8
:102580009F938F9381E08F9339DE0F900F900F9080
:10259000BEEFAB2EBB24BA9415C10091BB051091C0
:1025A000BC05C801019693709093BC058093BB0550
:1025B00089EB95E00E942C1E17FDE0CFD7011C96F9
:1025C0009C911C9792959F701D968C91817082951D
:1025D000807F892B0E94201DF70125858F3F49F4BC
:1025E0008485982F92959F70822F81708295807F2D
:1025F000892B8F7190E0A0E0B0E0AC01BD01E3E178
:10260000440F551F661F771FEA95D1F749875A87F0
:102610006B877C871370B801110F880B990B6D873E
:102620007E878F87988BD70118960D911C911997EB
:102630004801B5E08B0E911CF3E096948794FA95CF
:10264000E1F7912CA12CB12CAAE0880C991CAA1CB2
:10265000BB1CAA95D1F726952F71DC01CB01B22BBB
:10266000882A992AAA2ABB2A49855A856B857C859E
:10267000842A952AA62AB72A0330110510F002E011
:1026800010E0D7011A966D917D918D919C911D97C7
:1026900010DE2B013C01F7018085918502DE498225
:1026A0005A826B827C829E838D836701FEE0CF0E0F
:1026B000D11CA801B601CE0107960E94E33B26E09B
:1026C000200FAE014F5F5F4FC501B4010E94490A60
:1026D0005C01892B49F081E699E09F938F9381E01B
:1026E0008F938CDD65C08401D70118964D915C9164
:1026F00019970417150708F063C0401B510B9A0186
:102700004930510510F028E030E0D7011D968C913A
:1027100086958F714D845E846F847888782A68945A
:1027200062F869857A858B859C85462A572A682AAE
:10273000792A4801820E931E0C0D1D1D495F5F4FC3
:10274000421B530BCA0133E0969587953A95E1F702
:1027500090E0A0E0B0E04AE0880F991FAA1FBB1FDD
:102760004A95D1F7BC01CD0164297529862997299D
:10277000A8010E94490A892B09F4B5CF89E399E0A1
:102780009F938F9381E08F9339DD80912202909106
:102790002302A0912402B09125020196A11DB11D32
:1027A0008093220290932302A0932402B0932502E7
:1027B0000F900F900F9085EFA82EBB24BA9402C003
:1027C000C7010BD9C50160960FB6F894DEBF0FBEE6
:1027D000CDBFDF91CF911F910F91FF90EF90DF90D0
:1027E000CF90BF90AF909F908F907F906F905F90B1
:1027F0004F900895CF93DF93CDB7DEB72D970FB6E7
:10280000F894DEBF0FBECDBF50E3252E5AE0352E23
:1028100061E4462E6AE0562E7CE5672E7AE0772E3C
:10282000E0EAEE2EEAE0FE2E80E090E00E945436D0
:10283000182F092F80E090E00E948E320F931F9393
:102840009F938F932DEB3AE03F932F9382E08F93EA
:10285000D5DC28EE33E040E050E0BE016F5F7F4FF3
:102860008091B5059091B60565D60FB6F894DEBF98
:102870000FBECDBF019771F10BE015E045EBC42E03
:1028800045E0D42EF801B484F1E0BF121DC00E94CF
:102890000E22D8011D962D913D914D915C9150973E
:1028A000DC01CB01821B930BA40BB50B813D974040
:1028B000A105B10548F0FF92EF92BF929FDCC801DD
:1028C0001CDE0F900F900F900F5E1F4FC016D106A9
:1028D000C9F6AACF89809A80AB80BC80ABE0B5E016
:1028E000FD0180E090E024852130C1F446815781CC
:1028F00060857185482559256A257B255370687F39
:102900007F71452B462B472B49F421E1289F8001FD
:10291000299F100D1124055F1A4F21C00196719651
:102920008A30910501F7A2FC6BC180E090E01C9613
:102930002C911C97211143C121E1289F8001299FDF
:10294000100D1124055F1A4F81E0F80184878682FB
:102950009782A086B18612821382148215820E9409
:102960000E22D8011D966D937D938D939C93509765
:10297000D501C40132E1B695A795979587953A950B
:10298000D1F780FD82C08D81863028F45F924F920E
:1029900081E08F93CAC0F80182859385892BE1F08D
:1029A0003F922F9281E08F9329DC809132029091A7
:1029B0003302A0913402B09135020196A11DB11DE0
:1029C0008093320290933302A0933402B093350285
:1029D0000F900F900F900EC082E390E00E94590C70
:1029E000D8011B969C938E931A97892B19F4E6E0D5
:1029F000FAE098C0F801A285B3851A9684E0FE013A
:102A0000369601900D928A95E1F7D8011A96CD90ED
:102A1000DC901B97F60162857385848595854CDC77
:102A2000D6011A966D937D938D939C931D97D80133
:102A30001A96ED91FC911B978A859B8591878087DB
:102A40001A96CD90DC901B97F601808591852DDC40
:102A5000D60119969C938E931897F80111821082D3
:102A6000D501C4012AE0B695A795979587952A9533
:102A7000D1F79927AA27BB270196A11DB11D8283F3
:102A80009383A483B58356E001C050E08AE0B694F6
:102A9000A794979487948A95D1F79924AA24BB2464
:102AA000F80182819381A481B5810197A109B109BF
:102AB00088169906AA06BB06E1F029EE39E03F9395
:102AC0002F931F929BDBC80118DD809132029091F9
:102AD0003302A0913402B09135020196A11DB11DBF
:102AE0008093320290933302A0933402B093350264
:102AF0008DC082829382A482B582208131814D81F2
:102B0000C52ED12C0284F385E02D50E0BA01620F6E
:102B1000731F6C197D098085918586179707E0F4EE
:102B2000E6EDF9E0FF93EF931F9268DB80913202AC
:102B300090913302A0913402B09135020196A11D0B
:102B4000B11D8093320290933302A0933402B0936C
:102B50003502C801D2DC5AC0C9010E964C195D0974
:102B600066E070E06C0F7D1F6C0D7D1D8E0F9F1F4A
:102B70000E94E33B8D8190E08C199D09D8012D9135
:102B80003C911197280F391F11963C932E931A965A
:102B90008D919C911B97FC01408551852417350729
:102BA00009F042CE40E050E061E172E0EED3D8019E
:102BB0001B961C921E921A97C8019FDC35CE019677
:102BC00051968A30910509F0B2CEEDE7FAE0FF9315
:102BD000EF9381E08F9312DB809126029091270280
:102BE000A0912802B09129020196A11DB11D8093E8
:102BF000260290932702A0932802B093290206C0D0
:102C00007F926F9281E08F93F9DA5FCF0F900F90F0
:102C10000F900ACEAB01BC018091B5059091B6052D
:102C200082D421E030E0019711F420E030E08827E1
:102C30009927821B930B08958F929F92AF92BF9218
:102C4000EF92FF920F931F93CF93DF93182FEB0117
:102C5000EBE0F5E011821082168217821086118651
:102C6000138612861486158616861786108A128297
:102C7000138214821582719685E0E53BF80751F7BF
:102C80000E940E22CB010E94CB3B0E94C83B937056
:102C90009093BC058093BB0589EB95E08AD701979B
:102CA00069F180EB99E09F938F931F92A7DA8EE2F0
:102CB0009BE09F938F931F92A1DA0F900F900F903C
:102CC0000F900F900F9017C0812C912C54016DE044
:102CD00070E080E290E000D49093B6058093B50553
:102CE000892B11F58FEF9AE09F938F931F9286DACD
:102CF0000F900F900F908FEF9FEF51C0112371F045
:102D0000113011F38DE19BE09F938F931F9276DA40
:102D10000F900F900F908EEF9FEF41C0812C912C60
:102D200048EFA42EB12CD3CF37EBE32E35E0F32EB2
:102D300003E010E020E030E048EC50E065E872E0AD
:102D40008AEF93E10E94FB21892B19F084EE9AE02F
:102D5000CBCF56D08F7190E0A0E0B0E0BC01CD01A8
:102D600023E1660F771F881F991F2A95D1F78E01DF
:102D7000A50194010E94D409892B61F084EC9AE0AA
:102D80009F938F931F923ADA0F900F900F9085EFD9
:102D90009FEF05C081E192E0F3DA80E090E0DF91FF
:102DA000CF911F910F91FF90EF90BF90AF909F90A8
:102DB0008F9008950F931F93CF93DF938B01FB01A7
:102DC000C4858C2F82958F70C585C170C295C07FD8
:102DD000C82BD0E015D090E0C817D90721F0C80162
:102DE0000E94ED0C06C040E050E064E472E0C801CF
:102DF000CCD280E090E0DF91CF911F910F910895A8
:102E00008091C10508958091BF059091C0050895F6
:102E10008091BD059091BE050895809177029091B3
:102E2000780208958093C1050E94BC0D0097C9F4F3
:102E300004D20097B1F480D2009799F484E492E030
:102E40009FDA2FEF44E452E065E08091C10510D68F
:102E50002FEF44E452E065E080E20AD620E090E003
:102E600001C0282F822F0895CF92DF92EF92FF9218
:102E7000CF93DF936B017C0160FF03C081E99DE08C
:102E800004C064FF0CC08AE39DE09F938F931F9260
:102E9000B5D90F900F900F9080E090E029C062FFAD
:102EA00003C083EE9CE0F1CFDC01CB018A7A9E7FE8
:102EB000892B8A2B8B2B19F08DEC9CE0E6CF81E0DF
:102EC0000E943E0EEC01892B39F3D0FE0AC062E06D
:102ED00070E084E690E000D39F878E87892B19F4F9
:102EE000DBCF1F861E86CC8ADD8AEE8AFF8ACE0162
:102EF000DF91CF91FF90EF90DF90CF900895CF9327
:102F0000DF931F921F92CDB7DEB7009719F480E0D0
:102F100090E00FC0FC01868597850097C1F39A0168
:102F2000AB01BE016F5F7F4F05D3019781F78981A8
:102F30009A810F900F90DF91CF910895CF93DF93F7
:102F40001F921F92CDB7DEB71A821982009719F42B
:102F500080E090E010C0FC0121812130C9F79A0186
:102F6000AB01BE016F5F7F4F84859585E3D20197EA
:102F700079F789819A810F900F90DF91CF91089511
:102F80004F925F926F927F928F929F92AF92BF9279
:102F9000CF92DF92EF92FF920F931F93CF93DF9325
:102FA000B62E872E982EA92E6A01E9012701380135
:102FB0004115510551F485EA9CE09F938F931F9230
:102FC0001DD90F900F900F90BBC0209721F08C81DE
:102FD0009D81892BA1F4AF929F928F92BF928DE831
:102FE0009CE09F938F931F9209D92DB73EB7295F1D
:102FF0003F4F0FB6F8943EBF0FBE2DBFA1C08A2D24
:1030000086958F71082F10E099819F9398819F93E7
:10301000FA0191859F9390859F931F926F939A2DAC
:1030200092959695969593701F929F93972F9F7365
:103030001F929F93272F2295269526952370992DD1
:103040009F70990F990F922B1F929F93292D229574
:103050002F709A2D91709295907F922B1F929F9333
:103060001F928F938EE49CE09F938F9384E08F93C5
:10307000C5D8F601B28683869486A5868091C1055F
:1030800090E02DB73EB72D5E3F4F0FB6F8943EBF90
:103090000FBE2DBF08171907E1F4B3FE03C08FEE72
:1030A0009BE009C0B0FE10C060E0C6012ED8892B9D
:1030B00059F08AED9BE09F938F9381E08F939ED888
:1030C0000F900F900F9031C0B2FE03C086E79BE0D7
:1030D000F2CFF601A084B1848E819F81009719F010
:1030E0008A159B0510F1EC81FD81A3019201B601C7
:1030F000CE0119950097C9F449855A856B857C8561
:103100004F5F5F4F6F4F7F4F49875A876B877C8731
:103110004DA15EA16FA178A54A0D5B1D611D711DBA
:103120004DA35EA36FA378A70DC089899A89AB8947
:10313000BC890196A11DB11D898B9A8BAB8BBC8B71
:1031400086EF9FEFDF91CF911F910F91FF90EF904E
:10315000DF90CF90BF90AF909F908F907F906F90B7
:103160005F904F9008958F929F92AF92BF92CF92AF
:10317000DF92EF92FF920F931F93CF93DF93EC01B7
:103180006B0149015A01892B29F0672B19F08981BC
:10319000813061F08DE59BE09F938F931F922ED835
:1031A0000F900F900F9080E090E019C09A85929553
:1031B0009F708B8581708295807F892B2AD49C019A
:1031C000688579858A859B8585017401A601D8DE8D
:1031D00031E020E0892B09F030E0832F922FDF913E
:1031E000CF911F910F91FF90EF90DF90CF90BF9004
:1031F000AF909F908F9008950C9454230C941923B2
:1032000080329105B8F4FC01EE0FFF1F8E0F9F1F57
:10321000FC01EE53FA4F8081813019F48181928153
:10322000089580912206813029F48091230690919F
:103230002406089580E090E0089583E6E2ECF5E04E
:10324000DF011D928A95E9F780E090E00895CF9321
:10325000DF939C01892B91F0CB01E90162E070E0E2
:103260003BD19F878E8721E030E0892B11F020E051
:1032700030E088279927821B930B02C08EEF9FEFC7
:10328000DF91CF9108950F931F93CF93DF93009712
:1032900009F44BC08C01613280F01F9280E28F9361
:1032A0008DE19EE09F938F931F920E94FE100F90DE
:1032B0000F900F900F900F9038C0C62FD0E0CE0126
:1032C000880F991FC80FD91FCE53DA4F88818823E2
:1032D00089F01F926F9383E09EE09F938F931F92DC
:1032E0000E94FE100F900F900F900F900F908CEF98
:1032F0009FEF1DC01F926F931F930F9386EE9DE06B
:103300009F938F9382E08F930E94FE101A8309830C
:1033100081E088838DB79EB707960FB6F8949EBF5D
:103320000FBE8DBF80E090E002C08EEF9FEFDF9177
:10333000CF911F910F9108958091250690912606B7
:10334000892B19F080E090E0089564E070E08AE055
:1033500090E0C2D09093260680932506892B91F7A2
:103360008FEF9FEF08952FEF3FEF40E050E0BC015B
:103370008091250690912606DDD0019719F480E012
:1033800090E008958DEF9FEF0895CF92DF92EF9236
:10339000FF920F931F93CF93DF9300D01F92CDB76F
:1033A000DEB77C018B016A01009749F48BEC9EE04B
:1033B0009F938F9381E08F930E94FE107DC06115D3
:1033C0007105A1F481EA9EE09F938F9381E08F9332
:1033D0000E94FE100F900F900F90C701CD2819F496
:1033E0000E94ED0C6CC00E94BD0C69C07A83698399
:1033F0009C838B838091250690912606411551056B
:1034000031F520E030E0A901BE016F5F7F4F67D04A
:103410000197D9F5F80185859685A785B08901962C
:10342000A11DB11D85879687A787B08BF7012085E1
:103430003185F80181A592A5A3A5B4A5820F931F9C
:10344000A11DB11D81A792A7A3A7B4A738C0BE0133
:103450006F5F7F4F68D00197E9F28DE69EE09F9302
:103460008F9381E08F930E94FE10F801818D928DE1
:10347000A38DB48D0196A11DB11D818F928FA38F55
:10348000B48FC7010E94BD0C17C08DE69EE09F93CC
:103490008F9381E08F930E94FE10F801818D928DB1
:1034A000A38DB48D0196A11DB11D818F928FA38F25
:1034B000B48FC7010E94ED0C0F900F900F900F90EA
:1034C0000F900F900F90DF91CF911F910F91FF9070
:1034D000EF90DF90CF90089540E00C94F92C0F937B
:1034E0001F93CF93DF93EC018B01CA01B9016F3FAA
:1034F0002FEF72078105910541F02AE030E040E0AE
:1035000050E00E94153BCA01B90120E0AB01B801AF
:10351000CE010E94242D082E000C990BDF91CF9133
:103520001F910F91089520E00E94C42D082E000CD9
:10353000990B08950F931F93CF93DF93EC018B01A9
:103540002F3F8FEF38074105510541F0CA01B901FE
:103550002AE030E040E050E00E94153BA901B801AC
:10356000CE010E94F12D082E000C990BDF91CF9116
:103570001F910F9108950E94522F90E008950F938C
:103580001F93CF93DF93EA018901F901828580FFC0
:1035900031C0808591858430910570F49F938F931D
:1035A00081E79FE09F938F931F920E94FE100F90E0
:1035B0000F900F900F900F9060E0C8010E94AE1026
:1035C000892B29F185E49FE09F938F931F920E949E
:1035D000FE1088819981AA81BB810196A11DB11D30
:1035E00088839983AA83BB830F900F900F908AE9F9
:1035F0009FEF0FC066FF0BC085E19FE09F938F9305
:1036000081E08F930E94FE100F900F900F9080E04A
:1036100090E0DF91CF911F910F910895CF92DF92AB
:10362000EF92FF920F931F93CF93DF9300D000D0C0
:10363000CDB7DEB7CE01019696DE6C01892B09F07D
:1036400016C1EB81FC81FE83ED83A981BA811196BD
:103650008C9111978F938C918F9381858F93808517
:103660008F9382851F928F93858582958695869507
:1036700083701F928F9383858F731F928F9383859F
:10368000982F929596959695937084858F70880F54
:10369000880F892B1F928F938485982F92959F7006
:1036A000858581708295807F892B1F928F93858578
:1036B00086958F711F928F9386EE90E19F938F93E3
:1036C00084E08F930E94FE10ED81FE810485802F9F
:1036D00082958F70058501700295007F082B10E0A0
:1036E0008FDB90E00FB6F894DEBF0FBECDBFED814B
:1036F000FE810817190781F18485982F92959F7094
:10370000858581708295807F892B8F3129F181D1C8
:103710009C01ED81FE81009709F48BC049815A819B
:103720008417950731F4DC0118964C91442309F471
:1037300080C06285738584859585E12CF12C870195
:10374000AF011EDC892B09F409C180ED90E19F9344
:103750008F9381E08F9381C009811A81828582FFD6
:1037600003C089E390E104C083FF14C081EE9FE0B1
:103770009F938F931F920E94FE10F801858D968D66
:10378000A78DB0A10196A11DB11D858F968FA78F22
:10379000B0A315C081FF17C080E99FE09F938F936E
:1037A0001F920E94FE10F80185899689A789B08D25
:1037B0000196A11DB11D858B968BA78BB08F0F90A5
:1037C0000F900F9023C08385982F9295969596958C
:1037D000937084858F70880F880F892B90E010DD9F
:1037E0008C012D813E81892B09F445C0D801549666
:1037F0006D917D918D919C91579770FF3CC049814F
:103800005A814B5E5F4FBBDE97FF15C08D819E8155
:103810000E94ED0CA3C049815A814B5E5F4FF801B5
:103820006489758986899789AADEED81FE8197FF73
:103830003BC0CF01EDCF20E030E0A901BE016B5FBE
:103840007F4FF801868597854ADE019709F486C087
:1038500084EB90E19F938F931F920E94FE108D81C5
:103860009E810E94ED0C0F900F900F9077C0CC249A
:10387000CA94DC2C73C0D9011A966D917D918D91FB
:103880009C911D9720E03FEF4FEF5FE30E94060EF3
:103890007C012D813E81009709F04EC00115110574
:1038A00009F0B9CFC901B4CF8585807CF82EA8DA9C
:1038B0008F71880FED81FE819585969594FB552734
:1038C00050F98F29582B6385462F4F73469546959F
:1038D0009295907F492B862F829586958695837049
:1038E00034853F70330F330F232F282B362F32951B
:1038F000330F330F307C322B2285628573858485AC
:1039000095850E94A60E7C01892B19F486E990E129
:10391000A1CFD8011E968D919C911F97F701978793
:10392000868754968D919D910D90BC91A02D848B8E
:10393000958BA68BB78B0EC049815A814B5E5F4F2A
:10394000DC0154966D917D918D919C91579717DE76
:1039500097FD5CCF6D817E81C70176D5C601269625
:103960000FB6F894DEBF0FBECDBFDF91CF911F9190
:103970000F91FF90EF90DF90CF900895C2EFDEE0BF
:1039800012E080E090E00E945436082FF92E80E08B
:1039900090E00E948E32FF920F939F938F93DF935C
:1039A000CF931F930E94FE106FEF7FEF80E090E0B7
:1039B00035DE8DB79EB707960FB6F8949EBF0FBE43
:1039C0008DBFDFCFEF92FF920F931F9327E2E22E7E
:1039D00026E0F22E8B0120E030E0AC016EE872E0D0
:1039E0008EEB9CE108D5892B69F089EF9EE09F93CF
:1039F0008F931F920E94FE100F900F900F908FEFE9
:103A00009FEF02C080E090E01F910F91FF90EF9038
:103A1000089590E0FC01EE0FFF1FE80FF91FE75D2E
:103A2000F94F80819181892B41F480918906909191
:103A30008A06009721F0E9E8F6E0808191810895F7
:103A400090E0FC01EE0FFF1FE80FF91FE75DF94F53
:103A500080819181892B51F48091890690918A0609
:103A6000892B11F48FEF0895E9E8F6E0828108953B
:103A70000F931F93CF93DF934115510529F1D22F57
:103A80008A01C82FCA010E94C011C13278F48C2F5C
:103A900090E0FC01EE0FFF1FE80FF91FE75DF94F03
:103AA00011830083D28380E090E010C01F92CF93F7
:103AB00081E691E19F938F931F920E94FE100F90D9
:103AC0000F900F900F900F908EEF9FEFDF91CF919F
:103AD0001F910F910895EF92FF920F931F93CF9331
:103AE000DF9386E491E19F938F930E947F3C09E2EC
:103AF00016E00F900F90C0E0D0E086E3E82E81E161
:103B0000F82ED801ED91FC9111973097D9F01296CB
:103B10008C918F3F11F090E001C0CE019F938F9365
:103B200081818F9380818F93DF93CF93FF92EF9268
:103B30000E947F3CADB7BEB718960FB6F894BEBFD3
:103B40000FBEADBF21960D5F1F4FC032D105C9F624
:103B500080918B061F928F93E0918906F0918A06DF
:103B600081818F9380818F9385E291E19F938F93E1
:103B70000E947F3C0F900F900F900F900F900F902E
:103B8000DF91CF911F910F91FF90EF900895CF9308
:103B9000DF93EC0181E00E94AC2D9C019983888326
:103BA00081E090E0232B11F480E090E0DF91CF9151
:103BB0000895CF93DF93EC0143E060E081E00E9441
:103BC000F92C99838883009739F020E040E050E099
:103BD00060E070E00E94242D81E090E0DF91CF91C1
:103BE0000895CF92DF92EF92FF92CF93DF93EC0193
:103BF0006A017B01DF93CF9382E991E19F938F93D9
:103C000086E08F930E94FE100F900F900F900F9000
:103C10000F908FEFC816D806E104F10451F0C701E8
:103C2000B6012AE030E040E050E00E94153B690117
:103C30007A01B601888199810E94732E21E030E0DB
:103C4000813011F020E030E0C901DF91CF91FF9089
:103C5000EF90DF90CF900895CF93DF93EC01DF9347
:103C6000CF9389E891E19F938F9386E08F930E9491
:103C7000FE1020E040E050E060E070E08881998133
:103C80000E94242D21E030E00F900F900F900F90B4
:103C90000F90813011F020E030E0C901DF91CF9129
:103CA00008953F924F925F926F927F928F929F9270
:103CB000AF92BF92CF92DF92EF92FF920F931F933A
:103CC000CF93DF93382E4A015B01E901A7D32B0183
:103CD0003C01C02ED12CE12CF12C9501840141E056
:103CE000632D82E00E94180F8C01892B19F48FEF4D
:103CF0009FEF4FC0CE010E94590C7C01009781F1CB
:103D0000FC01D187C0873E9680E090E08C179D072C
:103D100019F081930196FACF20E030E0A901B701B4
:103D2000C80121DA892B71F1B501A401C80106D9B6
:103D30007C010097A9F0FC013E9680E090E08C1792
:103D40009D0749F0219130E0AC0155272417350734
:103D5000C9F40196F4CF812C912C5401839415C0A1
:103D6000812C912C5401C8010E94D60E57D3DC013E
:103D7000CB0184199509A609B70989288A288B28B7
:103D800041F4B5CF812C912C5401C7010E94ED0C58
:103D9000EACFDF91CF911F910F91FF90EF90DF90CD
:103DA000CF90BF90AF909F908F907F906F905F90DB
:103DB0004F903F900895CF92DF92EF92FF920F9332
:103DC0001F93DC01CB0169017A01A801B6010E94B1
:103DD000E33BBC0180E090E01F910F91FF90EF90DA
:103DE000DF90CF9008958F929F92AF92BF92CF9223
:103DF000DF92EF92FF920F931F93CF93DF937C019B
:103E0000EB010E94CF0F8730910508F017C2FC012B
:103E10008827EE58FF4F8F4F0C94533B8E858111AE
:103E20000DC28F85833009F46BC030F4813069F0A6
:103E3000823009F450C05AC1853009F4FAC008F440
:103E4000E1C0863009F40FC151C10E940D1744E151
:103E500050E0BC01CE018E5B9F4F0E94083CFE01EA
:103E6000EB5AFF4F10828CE0E2E9F2E0DE01AA5A41
:103E7000BF4F01900D928A95E1F7FE01EF59FF4F78
:103E8000108289E0EEE9F2E0DE01AE59BF4F019009
:103E90000D928A95E1F7FE01E659FF4F10820E94CC
:103EA000031744E150E0BC01CE0140960E94083C5B
:103EB0001BA20E9408174EE150E0BC01CE0184967F
:103EC0000E94083CFE01EF5BFF4F10828DE590E001
:103ED0009987888708C1CE0142960E94A211009757
:103EE00019F48EEF9FEF09C02989AC0165E088893C
:103EF000BFDD892BB1F780E090E02FE030E07FC09C
:103F0000CE0140960E94A2118C01009709F473C063
:103F1000FC0161857285838594850E9459116B8FA0
:103F20007C8F8D8F9E8FF80165857685878590893A
:103F30000E9459116F8F78A389A39AA3F801618910
:103F40007289838994890E9459116BA37CA38DA3E4
:103F50009EA3F801658976898789908D0E94591101
:103F60006FA378A789A79AA7F801618D728D838DB9
:103F7000948D0E9459116BA77CA78DA79EA7F8016D
:103F8000658D768D878D90A10E9459116FA778ABB2
:103F900089AB9AABF80161A172A183A194A10E949F
:103FA00059116BAB7CAB8DAB9EABF80165A176A1D3
:103FB00087A190A50E9459116FAB78AF89AF9AAFD6
:103FC000F80161A572A583A594A50E9459116BAF54
:103FD0007CAF8DAF9EAFF80165A576A587A590A9AA
:103FE0000E945911FE01FF9660837183828393833F
:103FF00080E090E002C08EEF9FEF25E330E039874C
:10400000288776C0688979898A899B890E94591195
:104010009B01AC01688B798B8A8B9B8B0C89093C4B
:1040200008F064C010E0CE014596BC0180E090E04D
:1040300014C0688979898A899B890E945911688B83
:10404000798B8A8B9B8B0C89093C08F04FC010E060
:104050009E012B5E3F4F40E050E0E0917902F091ED
:104060007A02199540C0688979898A899B890E945A
:104070005C11688B798B8A8B9B8B6C897D898E898F
:104080009F890E945C116C8B7D8B8E8B9F8B8889A6
:104090009989AA89BB89892B8A2B8B2B41F080E0D7
:1040A00090E0892B21F0CE0140960E94000080E034
:1040B00090E0892B21F0CE0140960E940000688993
:1040C00079898A899B890E945911688B798B8A8B9F
:1040D0009B8B6C897D898E899F890E9459116C8B7D
:1040E0007D8B8E8B9F8B80E090E002C08EEF9FEFE8
:1040F0002FEF2E87892B09F496C0A0C08BE991E1A0
:104100009F938F9382E08F930E94FE100F900F90E9
:104110000F9089C088859985019709F08FC08E8599
:10412000853509F08BC0ABD06C0166D88C01009747
:1041300091F467EA72E08E01025F1F4FC8010E948E
:10414000F33BF80101900020E9F73197E01BF10BF8
:10415000F987E88768C08ED0B601C8010E94173C75
:104160004C01C12CD12CC814D90474F5209739F412
:1041700084EC90E00E94590CEC01892B29F1540148
:10418000AC18BD08F5ECAF16B1041CF084ECA82EF9
:10419000B12CB986A886B8016C0D7D1DA501CE0194
:1041A0000E960E94E33BCA0CDB1C20E030E0A90124
:1041B000BE01C7010E94B318892B19F4CE010E94D9
:1041C000ED0CC0E0D0E0CFCFC80118D82CC05ED035
:1041D0001DC06E857F85888999890E945C11673032
:1041E00020E8720727E0820720E8920711F4A1D0A7
:1041F00025C06A397245854E914D01F5B6D01EC075
:104200000E94510DBC01990F880B990B0E94591106
:104210006E877F87888B998B84E090E09987888769
:1042200002C009D1F3CF2097C1F020E030E0A9010E
:10423000BE01C7010E94B318892B79F4CE01DF912A
:10424000CF911F910F91FF90EF90DF90CF90BF9093
:10425000AF909F908F900C94ED0CDF91CF911F91B8
:104260000F91FF90EF90DF90CF90BF90AF909F9015
:104270008F9008950E945C3780E090E008950E943E
:104280008B3228E2829FC001112408954F925F92E1
:104290006F927F928F929F92AF92BF92CF92DF9256
:1042A000EF92FF9240E1C42E47E2D42EE12CF12C94
:1042B00044244A94542C3201812C912C5401C6017F
:1042C000880D991DF1D1B501A4014C0D5D1D6E1D28
:1042D0007F1D009739F42A013B01F694E794D794A7
:1042E000C79412C04A015B01B701A601480D591DD0
:1042F0006A1D7B1D441555056605770520F0F6946B
:10430000E794D794C79495D180E2C816D104E1040C
:10431000F104A8F6C501B401FF90EF90DF90CF90B3
:10432000BF90AF909F908F907F906F905F904F90D5
:10433000089580E090E0892B21F081E090E00E94D8
:10434000000080E090E0892B19F00E940000FFCF70
:104350008EEC91E19F938F931F920E94FE100F901D
:104360000F900F908EEF9FEF089580E090E0892BE3
:1043700019F00E940000FFCF8BEB91E19F938F9388
:104380001F920E94FE100F900F900F908EEF9FEFE4
:104390000895E82FEF70E150E83030F4F0E0E75492
:1043A000FD4F208130E002C020E030E0807F80328D
:1043B00051F018F4803169F00AC0803331F0803454
:1043C00031F484E007C082E005C083E003C080E0F0
:1043D00001C081E03F932F931F928F9382EB91E175
:1043E0009F938F930E947F3C0F900F900F900F90A0
:1043F0000F900F900895EF92FF920F930E94BB30A1
:1044000021E030E0813011F420E030E08827992766
:10441000821B930B0F91FF90EF9008950E948132C1
:104420002AE0AC01249FC001259F900D1124BC01FE
:1044300080E090E008950E94813264E670E00E947E
:10444000EE3A80E090E008950F931F93CF93DF93AF
:104450001F921F92CDB7DEB79A8389838B010E948A
:104460007C0D97FF0BC084E092E19F938F931F9286
:104470000E94FE10C8010E94ED0C1BC0E981FA8168
:10448000868597850097E9F020E030E0A901BE011C
:104490006F5F7F4F24D8019781F08FED91E19F935B
:1044A0008F9381E08F930E94FE1089819A810E94F0
:1044B000D60E0F900F900F9004C0E981FA811786F5
:1044C00016860F900F90DF91CF911F910F91089555
:1044D00020918C0630918D06232B59F163307105A4
:1044E00028F4FB01EF53FD4F208101C020E0813013
:1044F000910571F08230910591F0892BD1F43BB197
:1045000081E090E001C0880F2A95EAF7832710C068
:104510003BB101C0880F2A95EAF7832B09C03BB154
:1045200081E090E001C0880F2A95EAF78095832307
:104530008BB908959C01F894E5E6F0E09081977FAF
:10454000908310929000E1E9F0E0108210929500C3
:104550001092940030939900209398008081886095
:104560008083808184608083C19A789408951092BA
:10457000950010929400089528B321FB882780F9B4
:1045800090E021FF11C0F8941092900010929100D9
:104590001092950010929400C198809165008860F7
:1045A00080936500789481E00895CF93DF93FC01B8
:1045B000A6E9B6E0CD91DC911197CE17DF0710F494
:1045C000DE01F8CF12968D919C9113979D01280FD3
:1045D000391FE217F30749F422813381820F931FB9
:1045E00013969C938E931297FD01828193819F0174
:1045F000280F391FC217D30791F4209194063091E8
:104600009506C217D30759F02A813B81820F931F69
:1046100093838283888199819183808302C0D1832F
:10462000C083EA17FB0711F0ED93FC93DF91CF9164
:104630000895CF93DF93009759F1EC0124978A8175
:104640009B8120918E0630918F06AC01422353232B
:10465000452BF1F048815981452BD1F420953095B7
:10466000822393239B838A830E947B32209192062C
:10467000309193068A819B81820F931F90939306BA
:1046800080939206CE0191DFDF91CF910C9433336A
:10469000DF91CF91089584EC92E09F938F930E94D5
:1046A0006C3C0F900F90FFCFCF92DF92EF92FF9272
:1046B0000F931F93CF93DF93EC010E947B32809185
:1046C000940690919506892B81F58AE996E090935E
:1046D00097068093960610929906109298062AEFF4
:1046E0003FE130939506209394061092FD1F10929F
:1046F000FC1F1092FB1F1092FA1F80E699E1909325
:104700009D0680939C0630939B0620939A06909377
:10471000910680939006909393068093920680E092
:1047200090E890938F0680938E06C0908E06D0906E
:104730008F06C6018C239D23892B09F05BC020972F
:1047400009F458C09E012C5F3F4F09F453C0E0901C
:104750009206F0909306E216F30608F44BC0C0915F
:104760009606D0919706E6E9F6E04A815B8142170A
:10477000530740F08091940690919506C817D90789
:1047800041F438C0888199810097A1F3FE01EC01C2
:10479000ECCF008111810C5F1F4F8881998191833B
:1047A0008083421B530B4930510548F0CE01820FE4
:1047B000931FFC01538342833B832A83F6DE2A81C5
:1047C0003B81C701821B930B9093930680939206C3
:1047D00040919006509191068417950720F490938C
:1047E000910680939006C22AD32ADB82CA8219825C
:1047F000188202C000E010E00E9433330115110559
:1048000009F449DFC801DF91CF911F910F91FF900B
:10481000EF90DF90CF900895FC01039692838183FF
:104820002FEF3FEF3483238396838583908787839D
:1048300010820895FC01118610860895CF93DF93AE
:104840009C01FB01DC011196CD91DC911297D38381
:10485000C2838C819D81958384838C819D81DC01C1
:1048600013967C936E9312977D836C833187208798
:10487000F90180818F5F8083DF91CF9108950F933D
:104880001F93CF93DF938C01FB01808191818F3F38
:104890002FEF920721F4E801AF81B8850EC0D8014F
:1048A000139612962D913C911397E90148815981F5
:1048B0008417950710F0D901F4CF12968D919C9131
:1048C000139793838283EC01FD83EC83B583A483E8
:1048D0001396FC93EE93129711870087F80180815D
:1048E0008F5F8083DF91CF911F910F910895CF93B8
:1048F000DF93FC01A085B18582819381248135817C
:10490000EC013D832C83C481D5819B838A831196DE
:104910008D919C911297E817F90721F41296DC9378
:10492000CE931197118610868C9181508C938C9127
:10493000DF91CF910895A8950FB6F894A89580912E
:104940006000886180936000109260000FBE9CE060
:1049500088E10FB6F894A895809360000FBE9093FD
:104960006000A89584E190E00E94A03360E070E0D0
:1049700080E090E0ADDDF5CF60E070E0CB010E941B
:1049800034177C0160E20E9443196AE070E0C701BD
:104990000E94271986E8C82E82E1D82E92E0992E2F
:1049A00025E6A22E22E1B22E80E090E00E9454364D
:1049B000EC0180E090E00E948E32DF93CF939F93D2
:1049C0008F93DF92CF929F920E94FE1040E157E2B8
:1049D00060E070E0C7010E947F17EC018DB79EB7C1
:1049E00007960FB6F8949EBF0FBE8DBF2097E1F2D9
:1049F00044E650E060E070E0CE010E949E178C011A
:104A0000CE0101151105C1F00E94CF0F0A9781F464
:104A1000C8010E969F938F93BF92AF920E947F3CE6
:104A2000C8010E94ED0C0F900F900F900F90E0CFF7
:104A3000B801CE01D8D9DCCF0E94D60EB5CF8EE515
:104A4000C82E82E1D82EC2E091E5A92E92E1B92EBE
:104A500024E4822E22E1922E3EE2E32E32E1F32E76
:104A600080E090E00E945436182F092F80E090E0FB
:104A70000E948E320F931F939F938F93DF92CF925A
:104A8000CF930E94FE1084E690E00E94A033EDB721
:104A9000FEB7808191819F938F93BF92AF92CF9306
:104AA0000E94FE1000E02AE030E044E650E060E0C2
:104AB00070E081E0F6D88C018DB79EB70C960FB6EA
:104AC000F8949EBF0FBE8DBF0F3F9FEF190741F4B3
:104AD0009F928F921F920E94FE100F900F900F9046
:104AE0001F930F93FF92EF92CF930E94FE1084E6E4
:104AF00090E00E94A0330F900F900F900F900F90B6
:104B0000AFCFEF92FF920F931F93CF93DF9300D01D
:104B10001F92CDB7DEB79FE088E10FB6F894A89555
:104B2000809360000FBE9093600060E070E088ECBE
:104B300099E00E94223C8FEF9FEF0E94930962E36D
:104B400070E084E090E00E94D90B86E00E9412178A
:104B50006BE772E080E00E941C162FEF41E152E00B
:104B600065E080E20E94381D61E070E084EB90E037
:104B70000E94E21CCE0103967C0102E010E020E0DE
:104B800030E04CED50E06BEC72E08CEB94E233DC07
:104B9000CE0101967C0101E010E020E030E04CED18
:104BA00050E062ED72E08FE195E225DC8EEFE82EB9
:104BB0008FE1F82E03E010E020E030E044EB50E01D
:104BC00069ED72E08BEB9AE016DC81EB92E19F934A
:104BD0008F930E947F3C0E94DC0F83EA92E19F93B7
:104BE0008F930E947F3C0E946B1D86E992E19F9308
:104BF0008F930E947F3C0E94DB11E12CF12C20E07E
:104C000030E044E650E06FED72E08BE994E20E9400
:104C1000BB3061E070E08DE892E10E94AA090E9439
:104C200050320F900F900F900F900F900F9080E0E8
:104C300090E00F900F900F900F90DF91CF911F9108
:104C40000F91FF90EF9008951F920F920FB60F9261
:104C500011240BB60F922F933F934F935F936F9353
:104C60007F938F939F93AF93BF93EF93FF93CF93D4
:104C7000DF931F92CDB7DEB7D8988091FE1F909139
:104C8000FF1F0E94083289838981813009F4F9D499
:104C90000F90DF91CF91FF91EF91BF91AF919F91D5
:104CA0008F917F916F915F914F913F912F910F90D5
:104CB0000BBE0F900FBE0F901F9018951F920F9272
:104CC0000FB60F92112461E070E082E292E10E943F
:104CD000AA09FFCF8EBD00000DB407FEFDCF8EB533
:104CE000089581E08093002080910720882399F027
:104CF0002FB7F89480910720813059F48DB38093B9
:104D000005209DB380910620809589238DBB2FBF00
:104D100002C02093052080E58CBD81E08DBD2C98DC
:104D200008952C9A80910720882361F09FB7F8940A
:104D30002091072080910520213019F48DBB9FBF61
:104D400008958FBF0895CF93DF93EC010E94FD2F4C
:104D5000249ACE01DF91CF91E4CF1F93CF93DF93BD
:104D6000EC01162FBEDF83E0B5DF812FB3DF80E0DB
:104D7000B1DF182FCE01D5DF812FDF91CF911F91A9
:104D80000895DF92EF92FF920F931F93CF93DF93DB
:104D90008C01C62FD42EE52EF22EA3DF83E09ADFFE
:104DA0008C2F98DFCD2DDE2DCE018F0D911D7C0136
:104DB000CE15DF0521F080E08DDF8993F9CFC801A2
:104DC000DF91CF911F910F91FF90EF90DF90A9CFCE
:104DD0000F931F93CF93DF93EC01062F142F81DFE6
:104DE00082E078DF802F76DF812F74DFCE01DF91C4
:104DF000CF911F910F9195CFDF92EF92FF920F937A
:104E00001F93CF93DF938C01C62FD42EE52EF22E65
:104E100068DF82E05FDF8C2F5DDFCD2DDE2DCE01E0
:104E20008F0D911D7C01CE15DF0519F0899152DFA0
:104E3000FACFC801DF91CF911F910F91FF90EF90B2
:104E4000DF906FCFFF920F931F93CF93DF93EC010F
:104E5000F62E042F122F45DF85E03CDF8F2D3ADF41
:104E6000802F38DF812F36DFCE01DF91CF911F9168
:104E70000F91FF9056CFEF92FF920F931F93CF9316
:104E8000DF93CDB7DEB72E970FB6F894DEBF0FBE17
:104E9000CDBF8C0126DF80EC1DDFC80142DF83EC33
:104EA00099E00197F1F700C00000FE0131967F0103
:104EB0008EE011928A95E9F72EE0A70160E3C80120
:104EC0009BDF2EE0A70160E4C80196DF2EE0A7017A
:104ED00060E5C80191DF40E060E6C80179DF40E0AD
:104EE00060E7C80175DF43E06BE2C80171DF24E0D1
:104EF00044E660E6C801A6DF20E040E660E7C801BE
:104F0000A1DF80E02E960FB6F894DEBF0FBECDBFB6
:104F1000DF91CF911F910F91FF90EF9008951F9314
:104F2000CF93DF93EC01DDDE80EAD4DE80E0D2DED9
:104F3000182FCE01F6DE812FDF91CF911F910895BA
:104F40000F931F93CF93DF938C01C62FDFB7262FCC
:104F500040EE6FE077DF789480E792E0EBDA0CDBED
:104F6000019641F06EE0C801F8DE807EC813F7CFED
:104F700081E001C080E0DFBF91E08927DF91CF9120
:104F80001F910F91089560E8DBCF60E0D9CF0F93B8
:104F90001F93CF93DF938C01C62FD42FF4DF8111A1
:104FA000BAC0D130B9F108F468C0D23009F096C067
:104FB0008C2F90E08031910508F090C0FC0188278B
:104FC000E758FF4F8F4F0C94533BC7E8DFEB34C0DB
:104FD000C4E8D4EA8BC0C5E8D2EE47E490C0C7E885
:104FE000DFEB6BC0C6E8D4EB68C0C7E8DFEB69C095
:104FF000C6E8D4EB66C0C5E8D1EB63C0C6E8D4EB25
:1050000068C0C5E8D1EB65C0C2E8D0E962C0C0E8BD
:10501000D0E85FC08C2F90E08031910508F05EC031
:10502000FC018827E757FF4F8F4F0C94533BC7E88D
:10503000DFEF58C0C7E8DFEF4FE061C0C5E8D1EF50
:105040004EE45DC0C7E8DFEF51C0C7E8DAEF4EC0FD
:10505000C7E8DFEF32C0C7E0DEEB2FC0C6E8D0EF15
:105060002CC0C7E8DAEF2DC0C5E8D1EF2EC0C6E8E6
:10507000D0EF2FC0C2E8D0ED2CC08C2F90E0FC0107
:105080003497EC30F10550F58827E756FF4F8F4FE6
:105090000C94533BC7E8DFEF02C0C7E8DAEF49E002
:1050A0002EC0C7E8DFEF02C0C7E8DEEF44E027C04C
:1050B000C7E8DAEFFBCFC7E8DAEF43E020C0C7E884
:1050C000DFEF41E01CC0C6E8DBEF41E418C0C7E8F1
:1050D000DAEF40E014C0C2E8D9EDFBCF81E01BC09D
:1050E000C7E8DFEB4FE10BC0C7E8DFEB47E007C0E5
:1050F000C7E8DFEF4FE303C0C7E8DFEF4BE06AE24A
:10510000C80166DE4D2F69E2C80162DE4C2F68E2FD
:10511000C8015EDE80E0DF91CF911F910F9108956D
:1051200041E035CF0F931F93FB014423B1F003837C
:105130001283890122273327902F9C71802F83703F
:1051400048E0949F800D11248860818355E0169576
:1051500007955A95E1F700830DC0C80123E09695A5
:1051600087952A95E1F780830295000F007E0183E1
:10517000138212821F910F9108958F929F92AF9286
:10518000BF92CF92DF92EF92FF920F931F93CF9334
:10519000DF9300D01F92CDB7DEB77C01D62EC42E90
:1051A00048015901F0DE811119C0950184014C2D8F
:1051B000BE016F5F7F4FC701B5DFDD2029F081E0C1
:1051C000D8120BC064E201C060E224E0AE014F5F80
:1051D0005F4FC70111DE80E001C081E00F900F90AA
:1051E0000F900F90DF91CF911F910F91FF90EF9053
:1051F000DF90CF90BF90AF909F908F9008958F9247
:105200009F92AF92BF92CF92DF92EF92FF920F9355
:105210001F93CF93DF9300D01F92CDB7DEB76C0101
:10522000F62EE42E48015901AEDE811134C082E031
:10523000F816A9F08F1540F0FF20D1F081E0F812A8
:1052400029C044E0F42E15C084E0F81671F0F81679
:1052500048F085E0F8121EC088E1F82E0AC038E058
:10526000F32E07C020E1F22E04C094E1F92E01C014
:10527000F12C950184014E2DBE016F5F7F4FC60159
:1052800051DF24E0AE014F5F5F4F6F2DC601B4DDEB
:1052900080E001C081E00F900F900F900F90DF91A0
:1052A000CF911F910F91FF90EF90DF90CF90BF9023
:1052B000AF909F908F9008954F925F926F927F92E0
:1052C000AF92BF92CF92DF92EF92FF920F931F9314
:1052D000CF93DF93CDB7DEB72D970FB6F894DEBF2F
:1052E0000FBECDBF6C015A01E62EF12CFA010081F0
:1052F000118122813381B901A801442777FD4395AB
:105300005527662777272801390144245524662428
:10531000F0E47F2237FD05C08FEF97E0A0E0B0E01A
:1053200004C08FEF9FEFAFEFBFE1082319232A23BB
:105330003B23BE016F5F7F4FC601F4DEF501148190
:10534000812F45284628472809F080648D83412F06
:1053500050E0B501685F7F4FCE0106960E94E33BA7
:1053600025E0210F8701000F111F0E0D1F1D005199
:105370001D4FAE014F5F5F4FF8016181C6013CDDFB
:1053800028E048E0F8016081C6015CDD80E02D96F0
:105390000FB6F894DEBF0FBECDBFDF91CF911F9146
:1053A0000F91FF90EF90DF90CF90BF90AF907F90E4
:1053B0006F905F904F9008957F928F929F92AF92DF
:1053C000BF92CF92DF92EF92FF920F931F93CF93F2
:1053D000DF9300D01F921F92CDB7DEB74C015A0168
:1053E00024E0629F80011124F801E851FD4F25E07F
:1053F000AE014F5F5F4F6181C4DC8A819981C82E05
:10540000D12C45E0D594C7944A95E1F7E8E09E9FFA
:10541000C00CD11C11240D2C000CEE08FF0883FFDA
:1054200020C092E0CC0CDD1CEE1CFF1C9A95D1F73D
:105430008370C80ED11CE11CF11CFE2CED2CDC2C61
:10544000CC248B81C80ED11CE11CF11CFE2CED2C50
:10545000DC2CCC248C81C80ED11CE11CF11C68947E
:10546000F7F88D818F70782EF8E0F81710F1F801B9
:10547000E851FD4F6081C40170DC83FF02C0689475
:10548000F6F8F501C082D182E282F3827482A5012E
:10549000485F5F4F08511D4F272DF8016281C401FD
:1054A00070DC20E0F80143816CE2C401CBDC80E0D9
:1054B00001C081E00F900F900F900F900F90DF913F
:1054C000CF911F910F91FF90EF90DF90CF90BF9001
:1054D000AF909F908F907F9008950F931F93CF93DD
:1054E000DF93EC018B011BDD80FF03C0A80160E0AE
:1054F00004C081FF08C0A80161E0CE01DF91CF9117
:105500001F910F9159CF85E0DF91CF911F910F919E
:10551000089540E06CE25CCC60E31FDC80E008951D
:1055200031E1FC013083319722E220833197A3E3FC
:10553000A0833197608331977083319710823197C0
:105540001082319760E86083319710823197108222
:1055500031971082319762E06083319763E0608316
:10556000319764E06083319765E06083319766E04E
:105570006083319767E06083319768E0608331979B
:1055800069E06083319760E16083319730833197C0
:1055900032E13083319733E13083319734E1308326
:1055A000319735E13083319736E13083319737E1F8
:1055B0003083319738E13083319739E13083319747
:1055C00030E23083319731E2308331972083319755
:1055D00023E220833197408331975083319726E22D
:1055E0002083319727E22083319728E22083319767
:1055F00029E22083319720E32083319721E3208320
:105600008997089589E08093890083EC80938800CE
:105610008BE080938100EFE6F0E080818260808300
:10562000A0916D20B0916E20CD91CDBFDD91DEBFF8
:10563000FF91EF91DF91CF91BF91AF919F918F91AA
:105640007F916F915F914F913F912F911F910F919A
:10565000FF90EF90DF90CF90BF90AF909F908F9092
:105660007F906F905F904F903F902F901F900F9082
:105670000CBE0F900BBE0F900FBE0F90089581E0EF
:1056800008950F920FB6F8940F920BB60F920CB6C6
:105690000F921F9211242F923F924F925F926F921E
:1056A0007F928F929F92AF92BF92CF92DF92EF92B2
:1056B000FF920F931F932F933F934F935F936F939B
:1056C0007F938F939F93AF93BF93CF93DF93EF938A
:1056D000FF93A0916D20B0916E200DB60D920EB685
:1056E0000D920E94B233A0916D20B0916E20CD91A9
:1056F000CDBFDD91DEBFFF91EF91DF91CF91BF91E3
:10570000AF919F918F917F916F915F914F913F9159
:105710002F911F910F91FF90EF90DF90CF90BF904E
:10572000AF909F908F907F906F905F904F903F9041
:105730002F901F900F900CBE0F900BBE0F900FBEBE
:105740000F9008950F920FB6F8940F920BB60F9228
:105750000CB60F921F9211242F923F924F925F929C
:105760006F927F928F929F92AF92BF92CF92DF9271
:10577000EF92FF920F931F932F933F934F935F935B
:105780006F937F938F939F93AF93BF93CF93DF9349
:10579000EF93FF93A0916D20B0916E200DB60D9206
:1057A0000EB60D92C3D68111DDD7A0916D20B091B8
:1057B0006E20CD91CDBFDD91DEBFFF91EF91DF91E6
:1057C000CF91BF91AF919F918F917F916F915F9199
:1057D0004F913F912F911F910F91FF90EF90DF908C
:1057E000CF90BF90AF909F908F907F906F905F9081
:1057F0004F903F902F901F900F900CBE0F900BBEBC
:105800000F900FBE0F9008959DDF18950FB6F89476
:105810000F92FC01928D0F900FBE81E0911180E0FC
:1058200008950F931F93CF93DF93EC01042F1A8DEC
:105830004C8D41110BC088819981892BE9F58C81B0
:105840009D810E94DB361D821C8237C050E0011111
:1058500015C08A819B810E94E33B2C8D8A819B81AC
:10586000820F911D9B838A832C813D818217930730
:1058700018F1888199819B838A831EC08E819F81C4
:105880000E94E33B8C8D90E09195819591092E814A
:105890003F81280F391F3F832E8348815981241768
:1058A000350730F42C813D81820F931F9F838E83B7
:1058B000023011F41111115080E01F5F1A8FDF9137
:1058C000CF911F910F910895FC01CB01448D44238A
:1058D000A1F050E026813781240F351F37832683BE
:1058E000648175812617370720F020813181378345
:1058F0002683668177810C94E33B0895EF92FF92B3
:105900001F93CF93DF93EC010FB6F8940F921E8D87
:105910007C0181E1E80EF11C11165CF48989882371
:1059200041F0C7010E94B13481110E942E351150FF
:10593000F3CF8FEF8E8F0F900FBE0FB6F8940F92AC
:105940001D8D7E0188E0E80EF11C11165CF488853F
:10595000882341F0C7010E94B13481110E942E3585
:105960001150F3CF8FEF8D8F0F900FBEDF91CF913E
:105970001F91FF90EF900895CF93DF93EC010FB646
:10598000F8940F92488159818B8D7C8D9A01879F65
:10599000200D311D11243D832C831A8E5B834A8395
:1059A00090E00197789F9001799F300D1124CA01F2
:1059B000820F931F9F838E838FEF8D8F8E8F611148
:1059C0000AC08885882379F0CE010896CAD7882333
:1059D00051F057DE08C0CE0108960E940C24CE017B
:1059E00041960E940C240F900FBE81E0DF91CF9171
:1059F0000895FF920F931F93CF93DF93082F162FD5
:105A0000F42E662321F0869FC001112402C080E09D
:105A100090E081960E945423EC01009771F01111DF
:105A200003C09983888303C08196998388830B8FF1
:105A30001C8F61E0CE01A0DFF8A2CE01DF91CF91F3
:105A40001F910F91FF900895AF92BF92CF92DF9276
:105A5000FF920F931F93CF93DF9300D01F921F925B
:105A6000CDB7DEB78C016B015D834C83F22E80E0F5
:105A7000580198E0A90EB11C0FB6F8940F92F801E6
:105A8000228D938D291718F0F2E0FF1211C04F2DCF
:105A9000B601C801C6DEF8019189992319F0C80141
:105AA00041965FD78111EDDD0F900FBE81E045C0BB
:105AB0002C813D81232B19F40F900FBE3DC0811125
:105AC00003C0CE0101968DD70F900FBE14D50FB62F
:105AD000F8940F92F801858D8F3F09F4158EF80127
